{
  "abi": [
    {
      "inputs": [],
      "stateMutability": "nonpayable",
      "type": "constructor"
    },
    {
      "anonymous": false,
      "inputs": [
        {
          "indexed": true,
          "internalType": "address",
          "name": "owner",
          "type": "address"
        },
        {
          "indexed": true,
          "internalType": "address",
          "name": "approved",
          "type": "address"
        },
        {
          "indexed": true,
          "internalType": "uint256",
          "name": "tokenId",
          "type": "uint256"
        }
      ],
      "name": "Approval",
      "type": "event"
    },
    {
      "anonymous": false,
      "inputs": [
        {
          "indexed": true,
          "internalType": "address",
          "name": "owner",
          "type": "address"
        },
        {
          "indexed": true,
          "internalType": "address",
          "name": "operator",
          "type": "address"
        },
        {
          "indexed": false,
          "internalType": "bool",
          "name": "approved",
          "type": "bool"
        }
      ],
      "name": "ApprovalForAll",
      "type": "event"
    },
    {
      "anonymous": false,
      "inputs": [
        {
          "indexed": false,
          "internalType": "uint256",
          "name": "_fromTokenId",
          "type": "uint256"
        },
        {
          "indexed": false,
          "internalType": "uint256",
          "name": "_toTokenId",
          "type": "uint256"
        }
      ],
      "name": "BatchMetadataUpdate",
      "type": "event"
    },
    {
      "anonymous": false,
      "inputs": [
        {
          "indexed": false,
          "internalType": "uint256",
          "name": "_tokenId",
          "type": "uint256"
        }
      ],
      "name": "MetadataUpdate",
      "type": "event"
    },
    {
      "anonymous": false,
      "inputs": [
        {
          "indexed": true,
          "internalType": "address",
          "name": "previousOwner",
          "type": "address"
        },
        {
          "indexed": true,
          "internalType": "address",
          "name": "newOwner",
          "type": "address"
        }
      ],
      "name": "OwnershipTransferred",
      "type": "event"
    },
    {
      "anonymous": false,
      "inputs": [
        {
          "indexed": true,
          "internalType": "address",
          "name": "from",
          "type": "address"
        },
        {
          "indexed": true,
          "internalType": "address",
          "name": "to",
          "type": "address"
        },
        {
          "indexed": true,
          "internalType": "uint256",
          "name": "tokenId",
          "type": "uint256"
        }
      ],
      "name": "Transfer",
      "type": "event"
    },
    {
      "inputs": [
        {
          "internalType": "uint256",
          "name": "",
          "type": "uint256"
        }
      ],
      "name": "_memories",
      "outputs": [
        {
          "internalType": "uint256",
          "name": "id",
          "type": "uint256"
        },
        {
          "internalType": "address",
          "name": "creator",
          "type": "address"
        },
        {
          "internalType": "string",
          "name": "name",
          "type": "string"
        },
        {
          "internalType": "uint256",
          "name": "tokenId",
          "type": "uint256"
        },
        {
          "internalType": "address",
          "name": "tbaAddress",
          "type": "address"
        }
      ],
      "stateMutability": "view",
      "type": "function"
    },
    {
      "inputs": [
        {
          "internalType": "uint256",
          "name": "_id",
          "type": "uint256"
        },
        {
          "internalType": "string",
          "name": "_uri",
          "type": "string"
        },
        {
          "internalType": "string",
          "name": "_itemIpfsHash",
          "type": "string"
        }
      ],
      "name": "addItemToMemory",
      "outputs": [],
      "stateMutability": "nonpayable",
      "type": "function"
    },
    {
      "inputs": [
        {
          "internalType": "address",
          "name": "to",
          "type": "address"
        },
        {
          "internalType": "uint256",
          "name": "tokenId",
          "type": "uint256"
        }
      ],
      "name": "approve",
      "outputs": [],
      "stateMutability": "nonpayable",
      "type": "function"
    },
    {
      "inputs": [
        {
          "internalType": "address",
          "name": "owner",
          "type": "address"
        }
      ],
      "name": "balanceOf",
      "outputs": [
        {
          "internalType": "uint256",
          "name": "",
          "type": "uint256"
        }
      ],
      "stateMutability": "view",
      "type": "function"
    },
    {
      "inputs": [
        {
          "internalType": "string",
          "name": "_name",
          "type": "string"
        },
        {
          "internalType": "string",
          "name": "_uri",
          "type": "string"
        }
      ],
      "name": "createMemory",
      "outputs": [],
      "stateMutability": "nonpayable",
      "type": "function"
    },
    {
      "inputs": [
        {
          "internalType": "uint256",
          "name": "_id",
          "type": "uint256"
        }
      ],
      "name": "donateToMemory",
      "outputs": [],
      "stateMutability": "payable",
      "type": "function"
    },
    {
      "inputs": [
        {
          "internalType": "uint256",
          "name": "tokenId",
          "type": "uint256"
        }
      ],
      "name": "getApproved",
      "outputs": [
        {
          "internalType": "address",
          "name": "",
          "type": "address"
        }
      ],
      "stateMutability": "view",
      "type": "function"
    },
    {
      "inputs": [],
      "name": "getMemories",
      "outputs": [
        {
          "components": [
            {
              "internalType": "uint256",
              "name": "id",
              "type": "uint256"
            },
            {
              "internalType": "address",
              "name": "creator",
              "type": "address"
            },
            {
              "internalType": "string",
              "name": "name",
              "type": "string"
            },
            {
              "internalType": "uint256",
              "name": "tokenId",
              "type": "uint256"
            },
            {
              "internalType": "address",
              "name": "tbaAddress",
              "type": "address"
            }
          ],
          "internalType": "struct ERC6551Memories.Memory[]",
          "name": "",
          "type": "tuple[]"
        }
      ],
      "stateMutability": "view",
      "type": "function"
    },
    {
      "inputs": [
        {
          "internalType": "address",
          "name": "owner",
          "type": "address"
        },
        {
          "internalType": "address",
          "name": "operator",
          "type": "address"
        }
      ],
      "name": "isApprovedForAll",
      "outputs": [
        {
          "internalType": "bool",
          "name": "",
          "type": "bool"
        }
      ],
      "stateMutability": "view",
      "type": "function"
    },
    {
      "inputs": [],
      "name": "name",
      "outputs": [
        {
          "internalType": "string",
          "name": "",
          "type": "string"
        }
      ],
      "stateMutability": "view",
      "type": "function"
    },
    {
      "inputs": [],
      "name": "owner",
      "outputs": [
        {
          "internalType": "address",
          "name": "",
          "type": "address"
        }
      ],
      "stateMutability": "view",
      "type": "function"
    },
    {
      "inputs": [
        {
          "internalType": "uint256",
          "name": "tokenId",
          "type": "uint256"
        }
      ],
      "name": "ownerOf",
      "outputs": [
        {
          "internalType": "address",
          "name": "",
          "type": "address"
        }
      ],
      "stateMutability": "view",
      "type": "function"
    },
    {
      "inputs": [],
      "name": "renounceOwnership",
      "outputs": [],
      "stateMutability": "nonpayable",
      "type": "function"
    },
    {
      "inputs": [
        {
          "internalType": "address",
          "name": "from",
          "type": "address"
        },
        {
          "internalType": "address",
          "name": "to",
          "type": "address"
        },
        {
          "internalType": "uint256",
          "name": "tokenId",
          "type": "uint256"
        }
      ],
      "name": "safeTransferFrom",
      "outputs": [],
      "stateMutability": "nonpayable",
      "type": "function"
    },
    {
      "inputs": [
        {
          "internalType": "address",
          "name": "from",
          "type": "address"
        },
        {
          "internalType": "address",
          "name": "to",
          "type": "address"
        },
        {
          "internalType": "uint256",
          "name": "tokenId",
          "type": "uint256"
        },
        {
          "internalType": "bytes",
          "name": "data",
          "type": "bytes"
        }
      ],
      "name": "safeTransferFrom",
      "outputs": [],
      "stateMutability": "nonpayable",
      "type": "function"
    },
    {
      "inputs": [
        {
          "internalType": "address",
          "name": "operator",
          "type": "address"
        },
        {
          "internalType": "bool",
          "name": "approved",
          "type": "bool"
        }
      ],
      "name": "setApprovalForAll",
      "outputs": [],
      "stateMutability": "nonpayable",
      "type": "function"
    },
    {
      "inputs": [
        {
          "internalType": "bytes4",
          "name": "interfaceId",
          "type": "bytes4"
        }
      ],
      "name": "supportsInterface",
      "outputs": [
        {
          "internalType": "bool",
          "name": "",
          "type": "bool"
        }
      ],
      "stateMutability": "view",
      "type": "function"
    },
    {
      "inputs": [],
      "name": "symbol",
      "outputs": [
        {
          "internalType": "string",
          "name": "",
          "type": "string"
        }
      ],
      "stateMutability": "view",
      "type": "function"
    },
    {
      "inputs": [
        {
          "internalType": "uint256",
          "name": "index",
          "type": "uint256"
        }
      ],
      "name": "tokenByIndex",
      "outputs": [
        {
          "internalType": "uint256",
          "name": "",
          "type": "uint256"
        }
      ],
      "stateMutability": "view",
      "type": "function"
    },
    {
      "inputs": [
        {
          "internalType": "address",
          "name": "owner",
          "type": "address"
        },
        {
          "internalType": "uint256",
          "name": "index",
          "type": "uint256"
        }
      ],
      "name": "tokenOfOwnerByIndex",
      "outputs": [
        {
          "internalType": "uint256",
          "name": "",
          "type": "uint256"
        }
      ],
      "stateMutability": "view",
      "type": "function"
    },
    {
      "inputs": [
        {
          "internalType": "uint256",
          "name": "tokenId",
          "type": "uint256"
        }
      ],
      "name": "tokenURI",
      "outputs": [
        {
          "internalType": "string",
          "name": "",
          "type": "string"
        }
      ],
      "stateMutability": "view",
      "type": "function"
    },
    {
      "inputs": [],
      "name": "totalSupply",
      "outputs": [
        {
          "internalType": "uint256",
          "name": "",
          "type": "uint256"
        }
      ],
      "stateMutability": "view",
      "type": "function"
    },
    {
      "inputs": [
        {
          "internalType": "address",
          "name": "from",
          "type": "address"
        },
        {
          "internalType": "address",
          "name": "to",
          "type": "address"
        },
        {
          "internalType": "uint256",
          "name": "tokenId",
          "type": "uint256"
        }
      ],
      "name": "transferFrom",
      "outputs": [],
      "stateMutability": "nonpayable",
      "type": "function"
    },
    {
      "inputs": [
        {
          "internalType": "address",
          "name": "newOwner",
          "type": "address"
        }
      ],
      "name": "transferOwnership",
      "outputs": [],
      "stateMutability": "nonpayable",
      "type": "function"
    }
  ],
  "bytecode": {
    "object": "0x60806040523480156200001157600080fd5b506040518060400160405280601081526020016f657263363535312d6d656d6f7269657360801b8152506040518060400160405280600381526020016245364d60e81b815250816000908162000068919062000195565b50600162000077828262000195565b505050620000946200008e6200009a60201b60201c565b6200009e565b62000261565b3390565b600b80546001600160a01b038381166001600160a01b0319831681179093556040519116919082907f8be0079c531659141344cd1fd0a4f28419497f9722a3daafe3b4186f6b6457e090600090a35050565b634e487b7160e01b600052604160045260246000fd5b600181811c908216806200011b57607f821691505b6020821081036200013c57634e487b7160e01b600052602260045260246000fd5b50919050565b601f8211156200019057600081815260208120601f850160051c810160208610156200016b5750805b601f850160051c820191505b818110156200018c5782815560010162000177565b5050505b505050565b81516001600160401b03811115620001b157620001b1620000f0565b620001c981620001c2845462000106565b8462000142565b602080601f831160018114620002015760008415620001e85750858301515b600019600386901b1c1916600185901b1785556200018c565b600085815260208120601f198616915b82811015620002325788860151825594840194600190910190840162000211565b5085821015620002515787850151600019600388901b60f8161c191681555b5050505050600190811b01905550565b6127ae80620002716000396000f3fe60806040526004361061014b5760003560e01c806370a08231116100b6578063b88d4fde1161006f578063b88d4fde146103ae578063c87b56dd146103ce578063d8cd6479146103ee578063e985e9c51461040e578063ec736cff14610457578063f2fde38b1461047757600080fd5b806370a08231146102f5578063715018a6146103155780638da5cb5b1461032a57806395d89b4114610348578063a22cb4651461035d578063b85e3c0e1461037d57600080fd5b80632b4c97c8116101085780632b4c97c8146102405780632f745c591461025357806342842e0e146102735780634f6ccce7146102935780636352211e146102b357806364b0a7b9146102d357600080fd5b806301ffc9a71461015057806306fdde0314610185578063081812fc146101a7578063095ea7b3146101df57806318160ddd1461020157806323b872dd14610220575b600080fd5b34801561015c57600080fd5b5061017061016b366004611f67565b610497565b60405190151581526020015b60405180910390f35b34801561019157600080fd5b5061019a6104a8565b60405161017c9190611fd4565b3480156101b357600080fd5b506101c76101c2366004611fe7565b61053a565b6040516001600160a01b03909116815260200161017c565b3480156101eb57600080fd5b506101ff6101fa36600461201c565b610561565b005b34801561020d57600080fd5b506008545b60405190815260200161017c565b34801561022c57600080fd5b506101ff61023b366004612046565b61067b565b6101ff61024e366004611fe7565b6106ac565b34801561025f57600080fd5b5061021261026e36600461201c565b6107aa565b34801561027f57600080fd5b506101ff61028e366004612046565b610840565b34801561029f57600080fd5b506102126102ae366004611fe7565b61085b565b3480156102bf57600080fd5b506101c76102ce366004611fe7565b6108ee565b3480156102df57600080fd5b506102e861094e565b60405161017c9190612082565b34801561030157600080fd5b50610212610310366004612127565b610b14565b34801561032157600080fd5b506101ff610b9a565b34801561033657600080fd5b50600b546001600160a01b03166101c7565b34801561035457600080fd5b5061019a610bae565b34801561036957600080fd5b506101ff610378366004612142565b610bbd565b34801561038957600080fd5b5061039d610398366004611fe7565b610bcc565b60405161017c95949392919061217e565b3480156103ba57600080fd5b506101ff6103c936600461224c565b610c97565b3480156103da57600080fd5b5061019a6103e9366004611fe7565b610ccf565b3480156103fa57600080fd5b506101ff6104093660046122e8565b610cda565b34801561041a57600080fd5b5061017061042936600461234c565b6001600160a01b03918216600090815260056020908152604080832093909416825291909152205460ff1690565b34801561046357600080fd5b506101ff61047236600461237f565b610e57565b34801561048357600080fd5b506101ff610492366004612127565b610fa7565b60006104a282611020565b92915050565b6060600080546104b7906123ec565b80601f01602080910402602001604051908101604052809291908181526020018280546104e3906123ec565b80156105305780601f1061050557610100808354040283529160200191610530565b820191906000526020600020905b81548152906001019060200180831161051357829003601f168201915b5050505050905090565b600061054582611045565b506000908152600460205260409020546001600160a01b031690565b600061056c826108ee565b9050806001600160a01b0316836001600160a01b0316036105de5760405162461bcd60e51b815260206004820152602160248201527f4552433732313a20617070726f76616c20746f2063757272656e74206f776e656044820152603960f91b60648201526084015b60405180910390fd5b336001600160a01b03821614806105fa57506105fa8133610429565b61066c5760405162461bcd60e51b815260206004820152603d60248201527f4552433732313a20617070726f76652063616c6c6572206973206e6f7420746f60448201527f6b656e206f776e6572206f7220617070726f76656420666f7220616c6c00000060648201526084016105d5565b61067683836110a4565b505050565b6106853382611112565b6106a15760405162461bcd60e51b81526004016105d590612420565b610676838383611191565b6000818152600e6020526040902033313411156107005760405162461bcd60e51b8152602060048201526012602482015271696e73756666696369656e742066756e647360701b60448201526064016105d5565b60048101546040516000916001600160a01b0316906108fc90349084818181858888f193505050503d8060008114610754576040519150601f19603f3d011682016040523d82523d6000602084013e610759565b606091505b50509050806106765760405162461bcd60e51b815260206004820152601a60248201527f5472616e7366657220746f2063726561746f72206661696c656400000000000060448201526064016105d5565b60006107b583610b14565b82106108175760405162461bcd60e51b815260206004820152602b60248201527f455243373231456e756d657261626c653a206f776e657220696e646578206f7560448201526a74206f6620626f756e647360a81b60648201526084016105d5565b506001600160a01b03919091166000908152600660209081526040808320938352929052205490565b61067683838360405180602001604052806000815250610c97565b600061086660085490565b82106108c95760405162461bcd60e51b815260206004820152602c60248201527f455243373231456e756d657261626c653a20676c6f62616c20696e646578206f60448201526b7574206f6620626f756e647360a01b60648201526084016105d5565b600882815481106108dc576108dc61246d565b90600052602060002001549050919050565b6000818152600260205260408120546001600160a01b0316806104a25760405162461bcd60e51b8152602060048201526018602482015277115490cdcc8c4e881a5b9d985b1a59081d1bdad95b88125160421b60448201526064016105d5565b60606000600d5467ffffffffffffffff81111561096d5761096d6121c0565b6040519080825280602002602001820160405280156109e257816020015b6109cf6040518060a001604052806000815260200160006001600160a01b03168152602001606081526020016000815260200160006001600160a01b031681525090565b81526020019060019003908161098b5790505b50905060005b600d54811015610b0e576000818152600e6020908152604091829020825160a0810184528154815260018201546001600160a01b031692810192909252600281018054919384929084019190610a3d906123ec565b80601f0160208091040260200160405190810160405280929190818152602001828054610a69906123ec565b8015610ab65780601f10610a8b57610100808354040283529160200191610ab6565b820191906000526020600020905b815481529060010190602001808311610a9957829003601f168201915b5050509183525050600382015460208201526004909101546001600160a01b03166040909101528351849084908110610af157610af161246d565b60200260200101819052505080610b0790612499565b90506109e8565b50919050565b60006001600160a01b038216610b7e5760405162461bcd60e51b815260206004820152602960248201527f4552433732313a2061646472657373207a65726f206973206e6f7420612076616044820152683634b21037bbb732b960b91b60648201526084016105d5565b506001600160a01b031660009081526003602052604090205490565b610ba2611302565b610bac600061135c565b565b6060600180546104b7906123ec565b610bc83383836113ae565b5050565b600e6020526000908152604090208054600182015460028301805492936001600160a01b0390921692610bfe906123ec565b80601f0160208091040260200160405190810160405280929190818152602001828054610c2a906123ec565b8015610c775780601f10610c4c57610100808354040283529160200191610c77565b820191906000526020600020905b815481529060010190602001808311610c5a57829003601f168201915b5050505060038301546004909301549192916001600160a01b0316905085565b610ca13383611112565b610cbd5760405162461bcd60e51b81526004016105d590612420565b610cc98484848461147c565b50505050565b60606104a2826114af565b6000825111610d225760405162461bcd60e51b8152602060048201526014602482015273506c6561736520696e736572742061206e616d6560601b60448201526064016105d5565b6000815111610d695760405162461bcd60e51b8152602060048201526013602482015272506c6561736520696e7365727420612055524960681b60448201526064016105d5565b6000610d74600c5490565b9050610d84600c80546001019055565b610d8e33826115b7565b610d9881836115d1565b7302101dfb77fde026414827fdc604ddaf224f0921732d25602551487c3f3354dd80d76d54383a24335862aa36a730600080610dd8868686868b8661169c565b600d546000818152600e602052604090209081556001810180546001600160a01b0319163317905590915060028101610e118b82612500565b50600381018890556004810180546001600160a01b0319166001600160a01b038416179055600d8054906000610e4683612499565b919050555050505050505050505050565b6000825111610e9e5760405162461bcd60e51b8152602060048201526013602482015272506c6561736520696e7365727420612055524960681b60448201526064016105d5565b6000815111610eef5760405162461bcd60e51b815260206004820152601f60248201527f506c6561736520696e7365727420616e206974656d206970667320686173680060448201526064016105d5565b6000610efa600c5490565b9050610f0a600c80546001019055565b610f1433826115b7565b610f1e81846115d1565b6000848152600e6020526040908190206004808201549251632142170760e11b815233918101919091526001600160a01b0390921660248301526044820183905290309081906342842e0e90606401600060405180830381600087803b158015610f8757600080fd5b505af1158015610f9b573d6000803e3d6000fd5b50505050505050505050565b610faf611302565b6001600160a01b0381166110145760405162461bcd60e51b815260206004820152602660248201527f4f776e61626c653a206e6577206f776e657220697320746865207a65726f206160448201526564647265737360d01b60648201526084016105d5565b61101d8161135c565b50565b60006001600160e01b03198216632483248360e11b14806104a257506104a2826116cd565b6000818152600260205260409020546001600160a01b031661101d5760405162461bcd60e51b8152602060048201526018602482015277115490cdcc8c4e881a5b9d985b1a59081d1bdad95b88125160421b60448201526064016105d5565b600081815260046020526040902080546001600160a01b0319166001600160a01b03841690811790915581906110d9826108ee565b6001600160a01b03167f8c5be1e5ebec7d5bd14f71427d1e84f3dd0314c0f7b2291e5b200ac8c7c3b92560405160405180910390a45050565b60008061111e836108ee565b9050806001600160a01b0316846001600160a01b0316148061116557506001600160a01b0380821660009081526005602090815260408083209388168352929052205460ff165b806111895750836001600160a01b031661117e8461053a565b6001600160a01b0316145b949350505050565b826001600160a01b03166111a4826108ee565b6001600160a01b0316146111ca5760405162461bcd60e51b81526004016105d5906125c0565b6001600160a01b03821661122c5760405162461bcd60e51b8152602060048201526024808201527f4552433732313a207472616e7366657220746f20746865207a65726f206164646044820152637265737360e01b60648201526084016105d5565b61123983838360016116f2565b826001600160a01b031661124c826108ee565b6001600160a01b0316146112725760405162461bcd60e51b81526004016105d5906125c0565b600081815260046020908152604080832080546001600160a01b03199081169091556001600160a01b0387811680865260038552838620805460001901905590871680865283862080546001019055868652600290945282852080549092168417909155905184937fddf252ad1be2c89b69c2b068fc378daa952ba7f163c4a11628f55a4df523b3ef91a4505050565b600b546001600160a01b03163314610bac5760405162461bcd60e51b815260206004820181905260248201527f4f776e61626c653a2063616c6c6572206973206e6f7420746865206f776e657260448201526064016105d5565b600b80546001600160a01b038381166001600160a01b0319831681179093556040519116919082907f8be0079c531659141344cd1fd0a4f28419497f9722a3daafe3b4186f6b6457e090600090a35050565b816001600160a01b0316836001600160a01b03160361140f5760405162461bcd60e51b815260206004820152601960248201527f4552433732313a20617070726f766520746f2063616c6c65720000000000000060448201526064016105d5565b6001600160a01b03838116600081815260056020908152604080832094871680845294825291829020805460ff191686151590811790915591519182527f17307eab39ab6107e8899845ad3d59bd9653f200f220920489ca2b5937696c31910160405180910390a3505050565b611487848484611191565b611493848484846116fe565b610cc95760405162461bcd60e51b81526004016105d590612605565b60606114ba82611045565b6000828152600a6020526040812080546114d3906123ec565b80601f01602080910402602001604051908101604052809291908181526020018280546114ff906123ec565b801561154c5780601f106115215761010080835404028352916020019161154c565b820191906000526020600020905b81548152906001019060200180831161152f57829003601f168201915b50505050509050600061156a60408051602081019091526000815290565b9050805160000361157c575092915050565b8151156115ae578082604051602001611596929190612657565b60405160208183030381529060405292505050919050565b611189846117ff565b610bc8828260405180602001604052806000815250611873565b6000828152600260205260409020546001600160a01b031661164c5760405162461bcd60e51b815260206004820152602e60248201527f45524337323155524953746f726167653a2055524920736574206f66206e6f6e60448201526d32bc34b9ba32b73a103a37b5b2b760911b60648201526084016105d5565b6000828152600a602052604090206116648282612500565b506040518281527ff8e1a15aba9398e019f0b49df1a4fde98ee17ae345cb5f6b5e2c27f5033e8ce79060200160405180910390a15050565b6000806116ac87878787876118a6565b805160209091012090506116c183828a61190f565b98975050505050505050565b60006001600160e01b0319821663780e9d6360e01b14806104a257506104a282611939565b610cc984848484611989565b60006001600160a01b0384163b156117f457604051630a85bd0160e11b81526001600160a01b0385169063150b7a0290611742903390899088908890600401612686565b6020604051808303816000875af192505050801561177d575060408051601f3d908101601f1916820190925261177a918101906126c3565b60015b6117da573d8080156117ab576040519150601f19603f3d011682016040523d82523d6000602084013e6117b0565b606091505b5080516000036117d25760405162461bcd60e51b81526004016105d590612605565b805181602001fd5b6001600160e01b031916630a85bd0160e11b149050611189565b506001949350505050565b606061180a82611045565b600061182160408051602081019091526000815290565b90506000815111611841576040518060200160405280600081525061186c565b8061184b84611abd565b60405160200161185c929190612657565b6040516020818303038152906040525b9392505050565b61187d8383611b50565b61188a60008484846116fe565b6106765760405162461bcd60e51b81526004016105d590612605565b60408051602081018390529081018590526001600160a01b0384166060828101919091526080820184905290869060a00160408051601f19818403018152908290526118f592916020016126e0565b604051602081830303815290604052905095945050505050565b6000604051836040820152846020820152828152600b8101905060ff815360559020949350505050565b60006001600160e01b031982166380ac58cd60e01b148061196a57506001600160e01b03198216635b5e139f60e01b145b806104a257506301ffc9a760e01b6001600160e01b03198316146104a2565b60018111156119f85760405162461bcd60e51b815260206004820152603560248201527f455243373231456e756d657261626c653a20636f6e7365637574697665207472604482015274185b9cd9995c9cc81b9bdd081cdd5c1c1bdc9d1959605a1b60648201526084016105d5565b816001600160a01b038516611a5457611a4f81600880546000838152600960205260408120829055600182018355919091527ff3f7a9fe364faab93b216da50a3214154f22a0a2b415b23a84c8169e8b636ee30155565b611a77565b836001600160a01b0316856001600160a01b031614611a7757611a778582611ce9565b6001600160a01b038416611a9357611a8e81611d86565b611ab6565b846001600160a01b0316846001600160a01b031614611ab657611ab68482611e35565b5050505050565b60606000611aca83611e79565b600101905060008167ffffffffffffffff811115611aea57611aea6121c0565b6040519080825280601f01601f191660200182016040528015611b14576020820181803683370190505b5090508181016020015b600019016f181899199a1a9b1b9c1cb0b131b232b360811b600a86061a8153600a8504945084611b1e57509392505050565b6001600160a01b038216611ba65760405162461bcd60e51b815260206004820181905260248201527f4552433732313a206d696e7420746f20746865207a65726f206164647265737360448201526064016105d5565b6000818152600260205260409020546001600160a01b031615611c0b5760405162461bcd60e51b815260206004820152601c60248201527f4552433732313a20746f6b656e20616c7265616479206d696e7465640000000060448201526064016105d5565b611c196000838360016116f2565b6000818152600260205260409020546001600160a01b031615611c7e5760405162461bcd60e51b815260206004820152601c60248201527f4552433732313a20746f6b656e20616c7265616479206d696e7465640000000060448201526064016105d5565b6001600160a01b038216600081815260036020908152604080832080546001019055848352600290915280822080546001600160a01b0319168417905551839291907fddf252ad1be2c89b69c2b068fc378daa952ba7f163c4a11628f55a4df523b3ef908290a45050565b60006001611cf684610b14565b611d00919061274f565b600083815260076020526040902054909150808214611d53576001600160a01b03841660009081526006602090815260408083208584528252808320548484528184208190558352600790915290208190555b5060009182526007602090815260408084208490556001600160a01b039094168352600681528383209183525290812055565b600854600090611d989060019061274f565b60008381526009602052604081205460088054939450909284908110611dc057611dc061246d565b906000526020600020015490508060088381548110611de157611de161246d565b6000918252602080832090910192909255828152600990915260408082208490558582528120556008805480611e1957611e19612762565b6001900381819060005260206000200160009055905550505050565b6000611e4083610b14565b6001600160a01b039093166000908152600660209081526040808320868452825280832085905593825260079052919091209190915550565b60008072184f03e93ff9f4daa797ed6e38ed64bf6a1f0160401b8310611eb85772184f03e93ff9f4daa797ed6e38ed64bf6a1f0160401b830492506040015b6d04ee2d6d415b85acef81000000008310611ee4576d04ee2d6d415b85acef8100000000830492506020015b662386f26fc100008310611f0257662386f26fc10000830492506010015b6305f5e1008310611f1a576305f5e100830492506008015b6127108310611f2e57612710830492506004015b60648310611f40576064830492506002015b600a83106104a25760010192915050565b6001600160e01b03198116811461101d57600080fd5b600060208284031215611f7957600080fd5b813561186c81611f51565b60005b83811015611f9f578181015183820152602001611f87565b50506000910152565b60008151808452611fc0816020860160208601611f84565b601f01601f19169290920160200192915050565b60208152600061186c6020830184611fa8565b600060208284031215611ff957600080fd5b5035919050565b80356001600160a01b038116811461201757600080fd5b919050565b6000806040838503121561202f57600080fd5b61203883612000565b946020939093013593505050565b60008060006060848603121561205b57600080fd5b61206484612000565b925061207260208501612000565b9150604084013590509250925092565b60006020808301818452808551808352604092508286019150828160051b87010184880160005b8381101561211957888303603f19018552815180518452878101516001600160a01b03908116898601528782015160a0898701819052916120ec83880183611fa8565b606085810151908901526080948501519091169390960192909252505093860193908601906001016120a9565b509098975050505050505050565b60006020828403121561213957600080fd5b61186c82612000565b6000806040838503121561215557600080fd5b61215e83612000565b91506020830135801515811461217357600080fd5b809150509250929050565b858152600060018060a01b03808716602084015260a060408401526121a660a0840187611fa8565b606084019590955292909216608090910152509392505050565b634e487b7160e01b600052604160045260246000fd5b600067ffffffffffffffff808411156121f1576121f16121c0565b604051601f8501601f19908116603f01168101908282118183101715612219576122196121c0565b8160405280935085815286868601111561223257600080fd5b858560208301376000602087830101525050509392505050565b6000806000806080858703121561226257600080fd5b61226b85612000565b935061227960208601612000565b925060408501359150606085013567ffffffffffffffff81111561229c57600080fd5b8501601f810187136122ad57600080fd5b6122bc878235602084016121d6565b91505092959194509250565b600082601f8301126122d957600080fd5b61186c838335602085016121d6565b600080604083850312156122fb57600080fd5b823567ffffffffffffffff8082111561231357600080fd5b61231f868387016122c8565b9350602085013591508082111561233557600080fd5b50612342858286016122c8565b9150509250929050565b6000806040838503121561235f57600080fd5b61236883612000565b915061237660208401612000565b90509250929050565b60008060006060848603121561239457600080fd5b83359250602084013567ffffffffffffffff808211156123b357600080fd5b6123bf878388016122c8565b935060408601359150808211156123d557600080fd5b506123e2868287016122c8565b9150509250925092565b600181811c9082168061240057607f821691505b602082108103610b0e57634e487b7160e01b600052602260045260246000fd5b6020808252602d908201527f4552433732313a2063616c6c6572206973206e6f7420746f6b656e206f776e6560408201526c1c881bdc88185c1c1c9bdd9959609a1b606082015260800190565b634e487b7160e01b600052603260045260246000fd5b634e487b7160e01b600052601160045260246000fd5b6000600182016124ab576124ab612483565b5060010190565b601f82111561067657600081815260208120601f850160051c810160208610156124d95750805b601f850160051c820191505b818110156124f8578281556001016124e5565b505050505050565b815167ffffffffffffffff81111561251a5761251a6121c0565b61252e8161252884546123ec565b846124b2565b602080601f831160018114612563576000841561254b5750858301515b600019600386901b1c1916600185901b1785556124f8565b600085815260208120601f198616915b8281101561259257888601518255948401946001909101908401612573565b50858210156125b05787850151600019600388901b60f8161c191681555b5050505050600190811b01905550565b60208082526025908201527f4552433732313a207472616e736665722066726f6d20696e636f72726563742060408201526437bbb732b960d91b606082015260800190565b60208082526032908201527f4552433732313a207472616e7366657220746f206e6f6e20455243373231526560408201527131b2b4bb32b91034b6b83632b6b2b73a32b960711b606082015260800190565b60008351612669818460208801611f84565b83519083019061267d818360208801611f84565b01949350505050565b6001600160a01b03858116825284166020820152604081018390526080606082018190526000906126b990830184611fa8565b9695505050505050565b6000602082840312156126d557600080fd5b815161186c81611f51565b733d60ad80600a3d3981f3363d3d373d3d3d363d7360601b8152606083901b6bffffffffffffffffffffffff191660148201526e5af43d82803e903d91602b57fd5bf360881b60288201528151600090612741816037850160208701611f84565b919091016037019392505050565b818103818111156104a2576104a2612483565b634e487b7160e01b600052603160045260246000fdfea26469706673582212200f93c08481d8b1f22d106b31eec4ce60727ce9194cf90b01407e54c1bdefd96f64736f6c63430008130033",
    "linkReferences": {}
  },
  "methodIdentifiers": {
    "_memories(uint256)": "b85e3c0e",
    "addItemToMemory(uint256,string,string)": "ec736cff",
    "approve(address,uint256)": "095ea7b3",
    "balanceOf(address)": "70a08231",
    "createMemory(string,string)": "d8cd6479",
    "donateToMemory(uint256)": "2b4c97c8",
    "getApproved(uint256)": "081812fc",
    "getMemories()": "64b0a7b9",
    "isApprovedForAll(address,address)": "e985e9c5",
    "name()": "06fdde03",
    "owner()": "8da5cb5b",
    "ownerOf(uint256)": "6352211e",
    "renounceOwnership()": "715018a6",
    "safeTransferFrom(address,address,uint256)": "42842e0e",
    "safeTransferFrom(address,address,uint256,bytes)": "b88d4fde",
    "setApprovalForAll(address,bool)": "a22cb465",
    "supportsInterface(bytes4)": "01ffc9a7",
    "symbol()": "95d89b41",
    "tokenByIndex(uint256)": "4f6ccce7",
    "tokenOfOwnerByIndex(address,uint256)": "2f745c59",
    "tokenURI(uint256)": "c87b56dd",
    "totalSupply()": "18160ddd",
    "transferFrom(address,address,uint256)": "23b872dd",
    "transferOwnership(address)": "f2fde38b"
  },
  "id": 22
}