{
  "abi": [
    {
      "inputs": [],
      "stateMutability": "nonpayable",
      "type": "constructor"
    },
    {
      "anonymous": false,
      "inputs": [
        {
          "indexed": true,
          "internalType": "address",
          "name": "owner",
          "type": "address"
        },
        {
          "indexed": true,
          "internalType": "address",
          "name": "approved",
          "type": "address"
        },
        {
          "indexed": true,
          "internalType": "uint256",
          "name": "tokenId",
          "type": "uint256"
        }
      ],
      "name": "Approval",
      "type": "event"
    },
    {
      "anonymous": false,
      "inputs": [
        {
          "indexed": true,
          "internalType": "address",
          "name": "owner",
          "type": "address"
        },
        {
          "indexed": true,
          "internalType": "address",
          "name": "operator",
          "type": "address"
        },
        {
          "indexed": false,
          "internalType": "bool",
          "name": "approved",
          "type": "bool"
        }
      ],
      "name": "ApprovalForAll",
      "type": "event"
    },
    {
      "anonymous": false,
      "inputs": [
        {
          "indexed": false,
          "internalType": "uint256",
          "name": "_fromTokenId",
          "type": "uint256"
        },
        {
          "indexed": false,
          "internalType": "uint256",
          "name": "_toTokenId",
          "type": "uint256"
        }
      ],
      "name": "BatchMetadataUpdate",
      "type": "event"
    },
    {
      "anonymous": false,
      "inputs": [
        {
          "indexed": false,
          "internalType": "uint256",
          "name": "_tokenId",
          "type": "uint256"
        }
      ],
      "name": "MetadataUpdate",
      "type": "event"
    },
    {
      "anonymous": false,
      "inputs": [
        {
          "indexed": true,
          "internalType": "address",
          "name": "from",
          "type": "address"
        },
        {
          "indexed": true,
          "internalType": "address",
          "name": "to",
          "type": "address"
        },
        {
          "indexed": true,
          "internalType": "uint256",
          "name": "tokenId",
          "type": "uint256"
        }
      ],
      "name": "Transfer",
      "type": "event"
    },
    {
      "inputs": [
        {
          "internalType": "address",
          "name": "to",
          "type": "address"
        },
        {
          "internalType": "uint256",
          "name": "tokenId",
          "type": "uint256"
        }
      ],
      "name": "approve",
      "outputs": [],
      "stateMutability": "nonpayable",
      "type": "function"
    },
    {
      "inputs": [
        {
          "internalType": "address",
          "name": "owner",
          "type": "address"
        }
      ],
      "name": "balanceOf",
      "outputs": [
        {
          "internalType": "uint256",
          "name": "",
          "type": "uint256"
        }
      ],
      "stateMutability": "view",
      "type": "function"
    },
    {
      "inputs": [
        {
          "internalType": "string",
          "name": "_uri",
          "type": "string"
        }
      ],
      "name": "createMemory",
      "outputs": [],
      "stateMutability": "nonpayable",
      "type": "function"
    },
    {
      "inputs": [
        {
          "internalType": "uint256",
          "name": "_tokenId",
          "type": "uint256"
        }
      ],
      "name": "donateToMemory",
      "outputs": [],
      "stateMutability": "payable",
      "type": "function"
    },
    {
      "inputs": [
        {
          "internalType": "uint256",
          "name": "tokenId",
          "type": "uint256"
        }
      ],
      "name": "getApproved",
      "outputs": [
        {
          "internalType": "address",
          "name": "",
          "type": "address"
        }
      ],
      "stateMutability": "view",
      "type": "function"
    },
    {
      "inputs": [
        {
          "internalType": "uint256",
          "name": "_tokenId",
          "type": "uint256"
        }
      ],
      "name": "getIndividualMemory",
      "outputs": [
        {
          "internalType": "uint256",
          "name": "",
          "type": "uint256"
        },
        {
          "internalType": "address",
          "name": "",
          "type": "address"
        },
        {
          "internalType": "address",
          "name": "",
          "type": "address"
        }
      ],
      "stateMutability": "view",
      "type": "function"
    },
    {
      "inputs": [],
      "name": "getMemories",
      "outputs": [
        {
          "components": [
            {
              "internalType": "uint256",
              "name": "tokenId",
              "type": "uint256"
            },
            {
              "internalType": "address",
              "name": "creator",
              "type": "address"
            },
            {
              "internalType": "address",
              "name": "tbaAddress",
              "type": "address"
            }
          ],
          "internalType": "struct ERC6551Memories.Memory[]",
          "name": "",
          "type": "tuple[]"
        }
      ],
      "stateMutability": "view",
      "type": "function"
    },
    {
      "inputs": [
        {
          "internalType": "address",
          "name": "owner",
          "type": "address"
        },
        {
          "internalType": "address",
          "name": "operator",
          "type": "address"
        }
      ],
      "name": "isApprovedForAll",
      "outputs": [
        {
          "internalType": "bool",
          "name": "",
          "type": "bool"
        }
      ],
      "stateMutability": "view",
      "type": "function"
    },
    {
      "inputs": [
        {
          "internalType": "uint256",
          "name": "",
          "type": "uint256"
        }
      ],
      "name": "memories",
      "outputs": [
        {
          "internalType": "uint256",
          "name": "tokenId",
          "type": "uint256"
        },
        {
          "internalType": "address",
          "name": "creator",
          "type": "address"
        },
        {
          "internalType": "address",
          "name": "tbaAddress",
          "type": "address"
        }
      ],
      "stateMutability": "view",
      "type": "function"
    },
    {
      "inputs": [],
      "name": "name",
      "outputs": [
        {
          "internalType": "string",
          "name": "",
          "type": "string"
        }
      ],
      "stateMutability": "view",
      "type": "function"
    },
    {
      "inputs": [
        {
          "internalType": "uint256",
          "name": "tokenId",
          "type": "uint256"
        }
      ],
      "name": "ownerOf",
      "outputs": [
        {
          "internalType": "address",
          "name": "",
          "type": "address"
        }
      ],
      "stateMutability": "view",
      "type": "function"
    },
    {
      "inputs": [
        {
          "internalType": "address",
          "name": "from",
          "type": "address"
        },
        {
          "internalType": "address",
          "name": "to",
          "type": "address"
        },
        {
          "internalType": "uint256",
          "name": "tokenId",
          "type": "uint256"
        }
      ],
      "name": "safeTransferFrom",
      "outputs": [],
      "stateMutability": "nonpayable",
      "type": "function"
    },
    {
      "inputs": [
        {
          "internalType": "address",
          "name": "from",
          "type": "address"
        },
        {
          "internalType": "address",
          "name": "to",
          "type": "address"
        },
        {
          "internalType": "uint256",
          "name": "tokenId",
          "type": "uint256"
        },
        {
          "internalType": "bytes",
          "name": "data",
          "type": "bytes"
        }
      ],
      "name": "safeTransferFrom",
      "outputs": [],
      "stateMutability": "nonpayable",
      "type": "function"
    },
    {
      "inputs": [
        {
          "internalType": "address",
          "name": "operator",
          "type": "address"
        },
        {
          "internalType": "bool",
          "name": "approved",
          "type": "bool"
        }
      ],
      "name": "setApprovalForAll",
      "outputs": [],
      "stateMutability": "nonpayable",
      "type": "function"
    },
    {
      "inputs": [
        {
          "internalType": "bytes4",
          "name": "interfaceId",
          "type": "bytes4"
        }
      ],
      "name": "supportsInterface",
      "outputs": [
        {
          "internalType": "bool",
          "name": "",
          "type": "bool"
        }
      ],
      "stateMutability": "view",
      "type": "function"
    },
    {
      "inputs": [],
      "name": "symbol",
      "outputs": [
        {
          "internalType": "string",
          "name": "",
          "type": "string"
        }
      ],
      "stateMutability": "view",
      "type": "function"
    },
    {
      "inputs": [
        {
          "internalType": "uint256",
          "name": "index",
          "type": "uint256"
        }
      ],
      "name": "tokenByIndex",
      "outputs": [
        {
          "internalType": "uint256",
          "name": "",
          "type": "uint256"
        }
      ],
      "stateMutability": "view",
      "type": "function"
    },
    {
      "inputs": [
        {
          "internalType": "address",
          "name": "owner",
          "type": "address"
        },
        {
          "internalType": "uint256",
          "name": "index",
          "type": "uint256"
        }
      ],
      "name": "tokenOfOwnerByIndex",
      "outputs": [
        {
          "internalType": "uint256",
          "name": "",
          "type": "uint256"
        }
      ],
      "stateMutability": "view",
      "type": "function"
    },
    {
      "inputs": [
        {
          "internalType": "uint256",
          "name": "tokenId",
          "type": "uint256"
        }
      ],
      "name": "tokenURI",
      "outputs": [
        {
          "internalType": "string",
          "name": "",
          "type": "string"
        }
      ],
      "stateMutability": "view",
      "type": "function"
    },
    {
      "inputs": [],
      "name": "totalSupply",
      "outputs": [
        {
          "internalType": "uint256",
          "name": "",
          "type": "uint256"
        }
      ],
      "stateMutability": "view",
      "type": "function"
    },
    {
      "inputs": [
        {
          "internalType": "address",
          "name": "from",
          "type": "address"
        },
        {
          "internalType": "address",
          "name": "to",
          "type": "address"
        },
        {
          "internalType": "uint256",
          "name": "tokenId",
          "type": "uint256"
        }
      ],
      "name": "transferFrom",
      "outputs": [],
      "stateMutability": "nonpayable",
      "type": "function"
    }
  ],
  "bytecode": {
    "object": "0x60806040523480156200001157600080fd5b506040518060400160405280601081526020016f657263363535312d6d656d6f7269657360801b8152506040518060400160405280600381526020016245364d60e81b815250816000908162000068919062000125565b50600162000077828262000125565b505050620001f1565b634e487b7160e01b600052604160045260246000fd5b600181811c90821680620000ab57607f821691505b602082108103620000cc57634e487b7160e01b600052602260045260246000fd5b50919050565b601f8211156200012057600081815260208120601f850160051c81016020861015620000fb5750805b601f850160051c820191505b818110156200011c5782815560010162000107565b5050505b505050565b81516001600160401b0381111562000141576200014162000080565b620001598162000152845462000096565b84620000d2565b602080601f831160018114620001915760008415620001785750858301515b600019600386901b1c1916600185901b1785556200011c565b600085815260208120601f198616915b82811015620001c257888601518255948401946001909101908401620001a1565b5085821015620001e15787850151600019600388901b60f8161c191681555b5050505050600190811b01905550565b6121e480620002016000396000f3fe60806040526004361061012a5760003560e01c80634f6ccce7116100ab57806395d89b411161006f57806395d89b4114610381578063a22cb46514610396578063b88d4fde146103b6578063b99b4a81146103d6578063c87b56dd14610420578063e985e9c51461044057600080fd5b80634f6ccce7146102df5780636352211e146102ff57806363f6efec1461031f57806364b0a7b91461033f57806370a082311461036157600080fd5b806323b872dd116100f257806323b872dd146101ff5780632b4c97c81461021f5780632f745c591461023257806342842e0e146102525780634971ff001461027257600080fd5b806301ffc9a71461012f57806306fdde0314610164578063081812fc14610186578063095ea7b3146101be57806318160ddd146101e0575b600080fd5b34801561013b57600080fd5b5061014f61014a366004611ac6565b610489565b60405190151581526020015b60405180910390f35b34801561017057600080fd5b5061017961049a565b60405161015b9190611b33565b34801561019257600080fd5b506101a66101a1366004611b46565b61052c565b6040516001600160a01b03909116815260200161015b565b3480156101ca57600080fd5b506101de6101d9366004611b7b565b610553565b005b3480156101ec57600080fd5b506008545b60405190815260200161015b565b34801561020b57600080fd5b506101de61021a366004611ba5565b61066d565b6101de61022d366004611b46565b61069e565b34801561023e57600080fd5b506101f161024d366004611b7b565b61079c565b34801561025e57600080fd5b506101de61026d366004611ba5565b610832565b34801561027e57600080fd5b506102ba61028d366004611b46565b600c6020526000908152604090208054600182015460029092015490916001600160a01b03908116911683565b604080519384526001600160a01b03928316602085015291169082015260600161015b565b3480156102eb57600080fd5b506101f16102fa366004611b46565b61084d565b34801561030b57600080fd5b506101a661031a366004611b46565b6108e0565b34801561032b57600080fd5b506101de61033a366004611c6d565b610940565b34801561034b57600080fd5b50610354610a05565b60405161015b9190611cb6565b34801561036d57600080fd5b506101f161037c366004611d1c565b610b00565b34801561038d57600080fd5b50610179610b86565b3480156103a257600080fd5b506101de6103b1366004611d37565b610b95565b3480156103c257600080fd5b506101de6103d1366004611d73565b610ba4565b3480156103e257600080fd5b506102ba6103f1366004611b46565b6000908152600c602052604090208054600182015460029092015490926001600160a01b039283169290911690565b34801561042c57600080fd5b5061017961043b366004611b46565b610bdc565b34801561044c57600080fd5b5061014f61045b366004611def565b6001600160a01b03918216600090815260056020908152604080832093909416825291909152205460ff1690565b600061049482610be7565b92915050565b6060600080546104a990611e22565b80601f01602080910402602001604051908101604052809291908181526020018280546104d590611e22565b80156105225780601f106104f757610100808354040283529160200191610522565b820191906000526020600020905b81548152906001019060200180831161050557829003601f168201915b5050505050905090565b600061053782610c0c565b506000908152600460205260409020546001600160a01b031690565b600061055e826108e0565b9050806001600160a01b0316836001600160a01b0316036105d05760405162461bcd60e51b815260206004820152602160248201527f4552433732313a20617070726f76616c20746f2063757272656e74206f776e656044820152603960f91b60648201526084015b60405180910390fd5b336001600160a01b03821614806105ec57506105ec813361045b565b61065e5760405162461bcd60e51b815260206004820152603d60248201527f4552433732313a20617070726f76652063616c6c6572206973206e6f7420746f60448201527f6b656e206f776e6572206f7220617070726f76656420666f7220616c6c00000060648201526084016105c7565b6106688383610c6e565b505050565b6106773382610cdc565b6106935760405162461bcd60e51b81526004016105c790611e56565b610668838383610d5b565b6000818152600c6020526040902033313411156106f25760405162461bcd60e51b8152602060048201526012602482015271696e73756666696369656e742066756e647360701b60448201526064016105c7565b60028101546040516000916001600160a01b0316906108fc90349084818181858888f193505050503d8060008114610746576040519150601f19603f3d011682016040523d82523d6000602084013e61074b565b606091505b50509050806106685760405162461bcd60e51b815260206004820152601a60248201527f5472616e7366657220746f2063726561746f72206661696c656400000000000060448201526064016105c7565b60006107a783610b00565b82106108095760405162461bcd60e51b815260206004820152602b60248201527f455243373231456e756d657261626c653a206f776e657220696e646578206f7560448201526a74206f6620626f756e647360a81b60648201526084016105c7565b506001600160a01b03919091166000908152600660209081526040808320938352929052205490565b61066883838360405180602001604052806000815250610ba4565b600061085860085490565b82106108bb5760405162461bcd60e51b815260206004820152602c60248201527f455243373231456e756d657261626c653a20676c6f62616c20696e646578206f60448201526b7574206f6620626f756e647360a01b60648201526084016105c7565b600882815481106108ce576108ce611ea3565b90600052602060002001549050919050565b6000818152600260205260408120546001600160a01b0316806104945760405162461bcd60e51b8152602060048201526018602482015277115490cdcc8c4e881a5b9d985b1a59081d1bdad95b88125160421b60448201526064016105c7565b60008151116109875760405162461bcd60e51b8152602060048201526013602482015272506c6561736520696e7365727420612055524960681b60448201526064016105c7565b6000610992600b5490565b90506109a2600b80546001019055565b6109ac3382610ecc565b6109b68183610ee6565b60006109c182610fb1565b6000838152600c602052604090206001810180546001600160a01b0319908116331790915593815560020180546001600160a01b0390921691909316179091555050565b60606000610a12600b5490565b67ffffffffffffffff811115610a2a57610a2a611be1565b604051908082528060200260200182016040528015610a7557816020015b6040805160608101825260008082526020808301829052928201528252600019909201910181610a485790505b50905060005b600b54811015610afa576000818152600c602090815260409182902082516060810184528154815260018201546001600160a01b03908116938201939093526002820154909216928201929092528351849084908110610add57610add611ea3565b60200260200101819052505080610af390611ecf565b9050610a7b565b50919050565b60006001600160a01b038216610b6a5760405162461bcd60e51b815260206004820152602960248201527f4552433732313a2061646472657373207a65726f206973206e6f7420612076616044820152683634b21037bbb732b960b91b60648201526084016105c7565b506001600160a01b031660009081526003602052604090205490565b6060600180546104a990611e22565b610ba0338383610ffe565b5050565b610bae3383610cdc565b610bca5760405162461bcd60e51b81526004016105c790611e56565b610bd6848484846110cc565b50505050565b6060610494826110ff565b60006001600160e01b03198216632483248360e11b1480610494575061049482611207565b6000818152600260205260409020546001600160a01b0316610c6b5760405162461bcd60e51b8152602060048201526018602482015277115490cdcc8c4e881a5b9d985b1a59081d1bdad95b88125160421b60448201526064016105c7565b50565b600081815260046020526040902080546001600160a01b0319166001600160a01b0384169081179091558190610ca3826108e0565b6001600160a01b03167f8c5be1e5ebec7d5bd14f71427d1e84f3dd0314c0f7b2291e5b200ac8c7c3b92560405160405180910390a45050565b600080610ce8836108e0565b9050806001600160a01b0316846001600160a01b03161480610d2f57506001600160a01b0380821660009081526005602090815260408083209388168352929052205460ff165b80610d535750836001600160a01b0316610d488461052c565b6001600160a01b0316145b949350505050565b826001600160a01b0316610d6e826108e0565b6001600160a01b031614610d945760405162461bcd60e51b81526004016105c790611ee8565b6001600160a01b038216610df65760405162461bcd60e51b8152602060048201526024808201527f4552433732313a207472616e7366657220746f20746865207a65726f206164646044820152637265737360e01b60648201526084016105c7565b610e03838383600161122c565b826001600160a01b0316610e16826108e0565b6001600160a01b031614610e3c5760405162461bcd60e51b81526004016105c790611ee8565b600081815260046020908152604080832080546001600160a01b03199081169091556001600160a01b0387811680865260038552838620805460001901905590871680865283862080546001019055868652600290945282852080549092168417909155905184937fddf252ad1be2c89b69c2b068fc378daa952ba7f163c4a11628f55a4df523b3ef91a4505050565b610ba0828260405180602001604052806000815250611238565b6000828152600260205260409020546001600160a01b0316610f615760405162461bcd60e51b815260206004820152602e60248201527f45524337323155524953746f726167653a2055524920736574206f66206e6f6e60448201526d32bc34b9ba32b73a103a37b5b2b760911b60648201526084016105c7565b6000828152600a60205260409020610f798282611f7b565b506040518281527ff8e1a15aba9398e019f0b49df1a4fde98ee17ae345cb5f6b5e2c27f5033e8ce79060200160405180910390a15050565b60007302101dfb77fde026414827fdc604ddaf224f0921732d25602551487c3f3354dd80d76d54383a24335862aa36a7308480610ff2868686868c8661126b565b98975050505050505050565b816001600160a01b0316836001600160a01b03160361105f5760405162461bcd60e51b815260206004820152601960248201527f4552433732313a20617070726f766520746f2063616c6c65720000000000000060448201526064016105c7565b6001600160a01b03838116600081815260056020908152604080832094871680845294825291829020805460ff191686151590811790915591519182527f17307eab39ab6107e8899845ad3d59bd9653f200f220920489ca2b5937696c31910160405180910390a3505050565b6110d7848484610d5b565b6110e384848484611290565b610bd65760405162461bcd60e51b81526004016105c79061203b565b606061110a82610c0c565b6000828152600a60205260408120805461112390611e22565b80601f016020809104026020016040519081016040528092919081815260200182805461114f90611e22565b801561119c5780601f106111715761010080835404028352916020019161119c565b820191906000526020600020905b81548152906001019060200180831161117f57829003601f168201915b5050505050905060006111ba60408051602081019091526000815290565b905080516000036111cc575092915050565b8151156111fe5780826040516020016111e692919061208d565b60405160208183030381529060405292505050919050565b610d5384611391565b60006001600160e01b0319821663780e9d6360e01b1480610494575061049482611405565b610bd684848484611455565b6112428383611589565b61124f6000848484611290565b6106685760405162461bcd60e51b81526004016105c79061203b565b60008061127b8787878787611722565b80516020909101209050610ff283828a61178b565b60006001600160a01b0384163b1561138657604051630a85bd0160e11b81526001600160a01b0385169063150b7a02906112d49033908990889088906004016120bc565b6020604051808303816000875af192505050801561130f575060408051601f3d908101601f1916820190925261130c918101906120f9565b60015b61136c573d80801561133d576040519150601f19603f3d011682016040523d82523d6000602084013e611342565b606091505b5080516000036113645760405162461bcd60e51b81526004016105c79061203b565b805181602001fd5b6001600160e01b031916630a85bd0160e11b149050610d53565b506001949350505050565b606061139c82610c0c565b60006113b360408051602081019091526000815290565b905060008151116113d357604051806020016040528060008152506113fe565b806113dd846117b5565b6040516020016113ee92919061208d565b6040516020818303038152906040525b9392505050565b60006001600160e01b031982166380ac58cd60e01b148061143657506001600160e01b03198216635b5e139f60e01b145b8061049457506301ffc9a760e01b6001600160e01b0319831614610494565b60018111156114c45760405162461bcd60e51b815260206004820152603560248201527f455243373231456e756d657261626c653a20636f6e7365637574697665207472604482015274185b9cd9995c9cc81b9bdd081cdd5c1c1bdc9d1959605a1b60648201526084016105c7565b816001600160a01b0385166115205761151b81600880546000838152600960205260408120829055600182018355919091527ff3f7a9fe364faab93b216da50a3214154f22a0a2b415b23a84c8169e8b636ee30155565b611543565b836001600160a01b0316856001600160a01b031614611543576115438582611848565b6001600160a01b03841661155f5761155a816118e5565b611582565b846001600160a01b0316846001600160a01b031614611582576115828482611994565b5050505050565b6001600160a01b0382166115df5760405162461bcd60e51b815260206004820181905260248201527f4552433732313a206d696e7420746f20746865207a65726f206164647265737360448201526064016105c7565b6000818152600260205260409020546001600160a01b0316156116445760405162461bcd60e51b815260206004820152601c60248201527f4552433732313a20746f6b656e20616c7265616479206d696e7465640000000060448201526064016105c7565b61165260008383600161122c565b6000818152600260205260409020546001600160a01b0316156116b75760405162461bcd60e51b815260206004820152601c60248201527f4552433732313a20746f6b656e20616c7265616479206d696e7465640000000060448201526064016105c7565b6001600160a01b038216600081815260036020908152604080832080546001019055848352600290915280822080546001600160a01b0319168417905551839291907fddf252ad1be2c89b69c2b068fc378daa952ba7f163c4a11628f55a4df523b3ef908290a45050565b60408051602081018390529081018590526001600160a01b0384166060828101919091526080820184905290869060a00160408051601f19818403018152908290526117719291602001612116565b604051602081830303815290604052905095945050505050565b6000604051836040820152846020820152828152600b8101905060ff815360559020949350505050565b606060006117c2836119d8565b600101905060008167ffffffffffffffff8111156117e2576117e2611be1565b6040519080825280601f01601f19166020018201604052801561180c576020820181803683370190505b5090508181016020015b600019016f181899199a1a9b1b9c1cb0b131b232b360811b600a86061a8153600a850494508461181657509392505050565b6000600161185584610b00565b61185f9190612185565b6000838152600760205260409020549091508082146118b2576001600160a01b03841660009081526006602090815260408083208584528252808320548484528184208190558352600790915290208190555b5060009182526007602090815260408084208490556001600160a01b039094168352600681528383209183525290812055565b6008546000906118f790600190612185565b6000838152600960205260408120546008805493945090928490811061191f5761191f611ea3565b90600052602060002001549050806008838154811061194057611940611ea3565b600091825260208083209091019290925582815260099091526040808220849055858252812055600880548061197857611978612198565b6001900381819060005260206000200160009055905550505050565b600061199f83610b00565b6001600160a01b039093166000908152600660209081526040808320868452825280832085905593825260079052919091209190915550565b60008072184f03e93ff9f4daa797ed6e38ed64bf6a1f0160401b8310611a175772184f03e93ff9f4daa797ed6e38ed64bf6a1f0160401b830492506040015b6d04ee2d6d415b85acef81000000008310611a43576d04ee2d6d415b85acef8100000000830492506020015b662386f26fc100008310611a6157662386f26fc10000830492506010015b6305f5e1008310611a79576305f5e100830492506008015b6127108310611a8d57612710830492506004015b60648310611a9f576064830492506002015b600a83106104945760010192915050565b6001600160e01b031981168114610c6b57600080fd5b600060208284031215611ad857600080fd5b81356113fe81611ab0565b60005b83811015611afe578181015183820152602001611ae6565b50506000910152565b60008151808452611b1f816020860160208601611ae3565b601f01601f19169290920160200192915050565b6020815260006113fe6020830184611b07565b600060208284031215611b5857600080fd5b5035919050565b80356001600160a01b0381168114611b7657600080fd5b919050565b60008060408385031215611b8e57600080fd5b611b9783611b5f565b946020939093013593505050565b600080600060608486031215611bba57600080fd5b611bc384611b5f565b9250611bd160208501611b5f565b9150604084013590509250925092565b634e487b7160e01b600052604160045260246000fd5b600067ffffffffffffffff80841115611c1257611c12611be1565b604051601f8501601f19908116603f01168101908282118183101715611c3a57611c3a611be1565b81604052809350858152868686011115611c5357600080fd5b858560208301376000602087830101525050509392505050565b600060208284031215611c7f57600080fd5b813567ffffffffffffffff811115611c9657600080fd5b8201601f81018413611ca757600080fd5b610d5384823560208401611bf7565b602080825282518282018190526000919060409081850190868401855b82811015611d0f57815180518552868101516001600160a01b039081168887015290860151168585015260609093019290850190600101611cd3565b5091979650505050505050565b600060208284031215611d2e57600080fd5b6113fe82611b5f565b60008060408385031215611d4a57600080fd5b611d5383611b5f565b915060208301358015158114611d6857600080fd5b809150509250929050565b60008060008060808587031215611d8957600080fd5b611d9285611b5f565b9350611da060208601611b5f565b925060408501359150606085013567ffffffffffffffff811115611dc357600080fd5b8501601f81018713611dd457600080fd5b611de387823560208401611bf7565b91505092959194509250565b60008060408385031215611e0257600080fd5b611e0b83611b5f565b9150611e1960208401611b5f565b90509250929050565b600181811c90821680611e3657607f821691505b602082108103610afa57634e487b7160e01b600052602260045260246000fd5b6020808252602d908201527f4552433732313a2063616c6c6572206973206e6f7420746f6b656e206f776e6560408201526c1c881bdc88185c1c1c9bdd9959609a1b606082015260800190565b634e487b7160e01b600052603260045260246000fd5b634e487b7160e01b600052601160045260246000fd5b600060018201611ee157611ee1611eb9565b5060010190565b60208082526025908201527f4552433732313a207472616e736665722066726f6d20696e636f72726563742060408201526437bbb732b960d91b606082015260800190565b601f82111561066857600081815260208120601f850160051c81016020861015611f545750805b601f850160051c820191505b81811015611f7357828155600101611f60565b505050505050565b815167ffffffffffffffff811115611f9557611f95611be1565b611fa981611fa38454611e22565b84611f2d565b602080601f831160018114611fde5760008415611fc65750858301515b600019600386901b1c1916600185901b178555611f73565b600085815260208120601f198616915b8281101561200d57888601518255948401946001909101908401611fee565b508582101561202b5787850151600019600388901b60f8161c191681555b5050505050600190811b01905550565b60208082526032908201527f4552433732313a207472616e7366657220746f206e6f6e20455243373231526560408201527131b2b4bb32b91034b6b83632b6b2b73a32b960711b606082015260800190565b6000835161209f818460208801611ae3565b8351908301906120b3818360208801611ae3565b01949350505050565b6001600160a01b03858116825284166020820152604081018390526080606082018190526000906120ef90830184611b07565b9695505050505050565b60006020828403121561210b57600080fd5b81516113fe81611ab0565b733d60ad80600a3d3981f3363d3d373d3d3d363d7360601b8152606083901b6bffffffffffffffffffffffff191660148201526e5af43d82803e903d91602b57fd5bf360881b60288201528151600090612177816037850160208701611ae3565b919091016037019392505050565b8181038181111561049457610494611eb9565b634e487b7160e01b600052603160045260246000fdfea264697066735822122066f8fb5bf3e93bf836893aaabf90c1f1380dd9f8f38414b5c8c2f27b634bc06a64736f6c63430008130033",
    "linkReferences": {}
  },
  "methodIdentifiers": {
    "approve(address,uint256)": "095ea7b3",
    "balanceOf(address)": "70a08231",
    "createMemory(string)": "63f6efec",
    "donateToMemory(uint256)": "2b4c97c8",
    "getApproved(uint256)": "081812fc",
    "getIndividualMemory(uint256)": "b99b4a81",
    "getMemories()": "64b0a7b9",
    "isApprovedForAll(address,address)": "e985e9c5",
    "memories(uint256)": "4971ff00",
    "name()": "06fdde03",
    "ownerOf(uint256)": "6352211e",
    "safeTransferFrom(address,address,uint256)": "42842e0e",
    "safeTransferFrom(address,address,uint256,bytes)": "b88d4fde",
    "setApprovalForAll(address,bool)": "a22cb465",
    "supportsInterface(bytes4)": "01ffc9a7",
    "symbol()": "95d89b41",
    "tokenByIndex(uint256)": "4f6ccce7",
    "tokenOfOwnerByIndex(address,uint256)": "2f745c59",
    "tokenURI(uint256)": "c87b56dd",
    "totalSupply()": "18160ddd",
    "transferFrom(address,address,uint256)": "23b872dd"
  },
  "id": 22
}