{
  "abi": [
    {
      "inputs": [],
      "stateMutability": "nonpayable",
      "type": "constructor"
    },
    {
      "anonymous": false,
      "inputs": [
        {
          "indexed": true,
          "internalType": "address",
          "name": "owner",
          "type": "address"
        },
        {
          "indexed": true,
          "internalType": "address",
          "name": "approved",
          "type": "address"
        },
        {
          "indexed": true,
          "internalType": "uint256",
          "name": "tokenId",
          "type": "uint256"
        }
      ],
      "name": "Approval",
      "type": "event"
    },
    {
      "anonymous": false,
      "inputs": [
        {
          "indexed": true,
          "internalType": "address",
          "name": "owner",
          "type": "address"
        },
        {
          "indexed": true,
          "internalType": "address",
          "name": "operator",
          "type": "address"
        },
        {
          "indexed": false,
          "internalType": "bool",
          "name": "approved",
          "type": "bool"
        }
      ],
      "name": "ApprovalForAll",
      "type": "event"
    },
    {
      "anonymous": false,
      "inputs": [
        {
          "indexed": false,
          "internalType": "uint256",
          "name": "_fromTokenId",
          "type": "uint256"
        },
        {
          "indexed": false,
          "internalType": "uint256",
          "name": "_toTokenId",
          "type": "uint256"
        }
      ],
      "name": "BatchMetadataUpdate",
      "type": "event"
    },
    {
      "anonymous": false,
      "inputs": [
        {
          "indexed": true,
          "internalType": "uint256",
          "name": "tokenId",
          "type": "uint256"
        },
        {
          "indexed": true,
          "internalType": "address",
          "name": "donor",
          "type": "address"
        },
        {
          "indexed": false,
          "internalType": "uint256",
          "name": "amount",
          "type": "uint256"
        }
      ],
      "name": "DonationReceived",
      "type": "event"
    },
    {
      "anonymous": false,
      "inputs": [
        {
          "indexed": true,
          "internalType": "uint256",
          "name": "tokenId",
          "type": "uint256"
        },
        {
          "indexed": true,
          "internalType": "address",
          "name": "itemOwner",
          "type": "address"
        },
        {
          "indexed": false,
          "internalType": "address",
          "name": "contractAddress",
          "type": "address"
        },
        {
          "indexed": false,
          "internalType": "uint256",
          "name": "itemTokenId",
          "type": "uint256"
        }
      ],
      "name": "ItemAddedToMemory",
      "type": "event"
    },
    {
      "anonymous": false,
      "inputs": [
        {
          "indexed": true,
          "internalType": "uint256",
          "name": "tokenId",
          "type": "uint256"
        },
        {
          "indexed": true,
          "internalType": "address",
          "name": "creator",
          "type": "address"
        },
        {
          "indexed": false,
          "internalType": "address",
          "name": "tbaAddress",
          "type": "address"
        }
      ],
      "name": "MemoryCreated",
      "type": "event"
    },
    {
      "anonymous": false,
      "inputs": [
        {
          "indexed": false,
          "internalType": "uint256",
          "name": "_tokenId",
          "type": "uint256"
        }
      ],
      "name": "MetadataUpdate",
      "type": "event"
    },
    {
      "anonymous": false,
      "inputs": [
        {
          "indexed": true,
          "internalType": "address",
          "name": "from",
          "type": "address"
        },
        {
          "indexed": true,
          "internalType": "address",
          "name": "to",
          "type": "address"
        },
        {
          "indexed": true,
          "internalType": "uint256",
          "name": "tokenId",
          "type": "uint256"
        }
      ],
      "name": "Transfer",
      "type": "event"
    },
    {
      "inputs": [
        {
          "internalType": "uint256",
          "name": "_tokenId",
          "type": "uint256"
        },
        {
          "internalType": "address",
          "name": "_contractAddress",
          "type": "address"
        },
        {
          "internalType": "uint256",
          "name": "_itemTokenId",
          "type": "uint256"
        }
      ],
      "name": "addItemToMemory",
      "outputs": [],
      "stateMutability": "nonpayable",
      "type": "function"
    },
    {
      "inputs": [
        {
          "internalType": "address",
          "name": "to",
          "type": "address"
        },
        {
          "internalType": "uint256",
          "name": "tokenId",
          "type": "uint256"
        }
      ],
      "name": "approve",
      "outputs": [],
      "stateMutability": "nonpayable",
      "type": "function"
    },
    {
      "inputs": [
        {
          "internalType": "address",
          "name": "owner",
          "type": "address"
        }
      ],
      "name": "balanceOf",
      "outputs": [
        {
          "internalType": "uint256",
          "name": "",
          "type": "uint256"
        }
      ],
      "stateMutability": "view",
      "type": "function"
    },
    {
      "inputs": [
        {
          "internalType": "string",
          "name": "_uri",
          "type": "string"
        }
      ],
      "name": "createMemory",
      "outputs": [],
      "stateMutability": "nonpayable",
      "type": "function"
    },
    {
      "inputs": [
        {
          "internalType": "uint256",
          "name": "_tokenId",
          "type": "uint256"
        }
      ],
      "name": "donateToMemory",
      "outputs": [],
      "stateMutability": "payable",
      "type": "function"
    },
    {
      "inputs": [
        {
          "internalType": "uint256",
          "name": "tokenId",
          "type": "uint256"
        }
      ],
      "name": "getApproved",
      "outputs": [
        {
          "internalType": "address",
          "name": "",
          "type": "address"
        }
      ],
      "stateMutability": "view",
      "type": "function"
    },
    {
      "inputs": [
        {
          "internalType": "uint256",
          "name": "_tokenId",
          "type": "uint256"
        }
      ],
      "name": "getIndividualMemory",
      "outputs": [
        {
          "internalType": "uint256",
          "name": "",
          "type": "uint256"
        },
        {
          "internalType": "address",
          "name": "",
          "type": "address"
        },
        {
          "internalType": "address",
          "name": "",
          "type": "address"
        }
      ],
      "stateMutability": "view",
      "type": "function"
    },
    {
      "inputs": [],
      "name": "getMemories",
      "outputs": [
        {
          "components": [
            {
              "internalType": "uint256",
              "name": "tokenId",
              "type": "uint256"
            },
            {
              "internalType": "address",
              "name": "creator",
              "type": "address"
            },
            {
              "internalType": "address",
              "name": "tbaAddress",
              "type": "address"
            }
          ],
          "internalType": "struct ERC6551Memories.Memory[]",
          "name": "",
          "type": "tuple[]"
        }
      ],
      "stateMutability": "view",
      "type": "function"
    },
    {
      "inputs": [
        {
          "internalType": "address",
          "name": "owner",
          "type": "address"
        },
        {
          "internalType": "address",
          "name": "operator",
          "type": "address"
        }
      ],
      "name": "isApprovedForAll",
      "outputs": [
        {
          "internalType": "bool",
          "name": "",
          "type": "bool"
        }
      ],
      "stateMutability": "view",
      "type": "function"
    },
    {
      "inputs": [
        {
          "internalType": "uint256",
          "name": "",
          "type": "uint256"
        }
      ],
      "name": "memories",
      "outputs": [
        {
          "internalType": "uint256",
          "name": "tokenId",
          "type": "uint256"
        },
        {
          "internalType": "address",
          "name": "creator",
          "type": "address"
        },
        {
          "internalType": "address",
          "name": "tbaAddress",
          "type": "address"
        }
      ],
      "stateMutability": "view",
      "type": "function"
    },
    {
      "inputs": [],
      "name": "name",
      "outputs": [
        {
          "internalType": "string",
          "name": "",
          "type": "string"
        }
      ],
      "stateMutability": "view",
      "type": "function"
    },
    {
      "inputs": [
        {
          "internalType": "uint256",
          "name": "tokenId",
          "type": "uint256"
        }
      ],
      "name": "ownerOf",
      "outputs": [
        {
          "internalType": "address",
          "name": "",
          "type": "address"
        }
      ],
      "stateMutability": "view",
      "type": "function"
    },
    {
      "inputs": [
        {
          "internalType": "address",
          "name": "from",
          "type": "address"
        },
        {
          "internalType": "address",
          "name": "to",
          "type": "address"
        },
        {
          "internalType": "uint256",
          "name": "tokenId",
          "type": "uint256"
        }
      ],
      "name": "safeTransferFrom",
      "outputs": [],
      "stateMutability": "nonpayable",
      "type": "function"
    },
    {
      "inputs": [
        {
          "internalType": "address",
          "name": "from",
          "type": "address"
        },
        {
          "internalType": "address",
          "name": "to",
          "type": "address"
        },
        {
          "internalType": "uint256",
          "name": "tokenId",
          "type": "uint256"
        },
        {
          "internalType": "bytes",
          "name": "data",
          "type": "bytes"
        }
      ],
      "name": "safeTransferFrom",
      "outputs": [],
      "stateMutability": "nonpayable",
      "type": "function"
    },
    {
      "inputs": [
        {
          "internalType": "address",
          "name": "operator",
          "type": "address"
        },
        {
          "internalType": "bool",
          "name": "approved",
          "type": "bool"
        }
      ],
      "name": "setApprovalForAll",
      "outputs": [],
      "stateMutability": "nonpayable",
      "type": "function"
    },
    {
      "inputs": [
        {
          "internalType": "bytes4",
          "name": "interfaceId",
          "type": "bytes4"
        }
      ],
      "name": "supportsInterface",
      "outputs": [
        {
          "internalType": "bool",
          "name": "",
          "type": "bool"
        }
      ],
      "stateMutability": "view",
      "type": "function"
    },
    {
      "inputs": [],
      "name": "symbol",
      "outputs": [
        {
          "internalType": "string",
          "name": "",
          "type": "string"
        }
      ],
      "stateMutability": "view",
      "type": "function"
    },
    {
      "inputs": [
        {
          "internalType": "uint256",
          "name": "index",
          "type": "uint256"
        }
      ],
      "name": "tokenByIndex",
      "outputs": [
        {
          "internalType": "uint256",
          "name": "",
          "type": "uint256"
        }
      ],
      "stateMutability": "view",
      "type": "function"
    },
    {
      "inputs": [
        {
          "internalType": "address",
          "name": "owner",
          "type": "address"
        },
        {
          "internalType": "uint256",
          "name": "index",
          "type": "uint256"
        }
      ],
      "name": "tokenOfOwnerByIndex",
      "outputs": [
        {
          "internalType": "uint256",
          "name": "",
          "type": "uint256"
        }
      ],
      "stateMutability": "view",
      "type": "function"
    },
    {
      "inputs": [
        {
          "internalType": "uint256",
          "name": "tokenId",
          "type": "uint256"
        }
      ],
      "name": "tokenURI",
      "outputs": [
        {
          "internalType": "string",
          "name": "",
          "type": "string"
        }
      ],
      "stateMutability": "view",
      "type": "function"
    },
    {
      "inputs": [],
      "name": "totalSupply",
      "outputs": [
        {
          "internalType": "uint256",
          "name": "",
          "type": "uint256"
        }
      ],
      "stateMutability": "view",
      "type": "function"
    },
    {
      "inputs": [
        {
          "internalType": "address",
          "name": "from",
          "type": "address"
        },
        {
          "internalType": "address",
          "name": "to",
          "type": "address"
        },
        {
          "internalType": "uint256",
          "name": "tokenId",
          "type": "uint256"
        }
      ],
      "name": "transferFrom",
      "outputs": [],
      "stateMutability": "nonpayable",
      "type": "function"
    }
  ],
  "bytecode": {
    "object": "0x60806040523480156200001157600080fd5b506040518060400160405280601081526020016f657263363535312d6d656d6f7269657360801b8152506040518060400160405280600381526020016245364d60e81b815250816000908162000068919062000125565b50600162000077828262000125565b505050620001f1565b634e487b7160e01b600052604160045260246000fd5b600181811c90821680620000ab57607f821691505b602082108103620000cc57634e487b7160e01b600052602260045260246000fd5b50919050565b601f8211156200012057600081815260208120601f850160051c81016020861015620000fb5750805b601f850160051c820191505b818110156200011c5782815560010162000107565b5050505b505050565b81516001600160401b0381111562000141576200014162000080565b620001598162000152845462000096565b84620000d2565b602080601f831160018114620001915760008415620001785750858301515b600019600386901b1c1916600185901b1785556200011c565b600085815260208120601f198616915b82811015620001c257888601518255948401946001909101908401620001a1565b5085821015620001e15787850151600019600388901b60f8161c191681555b5050505050600190811b01905550565b61254e80620002016000396000f3fe6080604052600436106101355760003560e01c80636352211e116100ab57806395d89b411161006f57806395d89b41146103ac578063a22cb465146103c1578063b88d4fde146103e1578063b99b4a8114610401578063c87b56dd1461044b578063e985e9c51461046b57600080fd5b80636352211e1461030a57806363f6efec1461032a57806364b0a7b91461034a57806370a082311461036c5780637486fee41461038c57600080fd5b806323b872dd116100fd57806323b872dd1461020a5780632b4c97c81461022a5780632f745c591461023d57806342842e0e1461025d5780634971ff001461027d5780634f6ccce7146102ea57600080fd5b806301ffc9a71461013a57806306fdde031461016f578063081812fc14610191578063095ea7b3146101c957806318160ddd146101eb575b600080fd5b34801561014657600080fd5b5061015a610155366004611de9565b6104b4565b60405190151581526020015b60405180910390f35b34801561017b57600080fd5b506101846104c5565b6040516101669190611e56565b34801561019d57600080fd5b506101b16101ac366004611e69565b610557565b6040516001600160a01b039091168152602001610166565b3480156101d557600080fd5b506101e96101e4366004611e97565b61057e565b005b3480156101f757600080fd5b506008545b604051908152602001610166565b34801561021657600080fd5b506101e9610225366004611ec3565b610698565b6101e9610238366004611e69565b6106c9565b34801561024957600080fd5b506101fc610258366004611e97565b610804565b34801561026957600080fd5b506101e9610278366004611ec3565b61089a565b34801561028957600080fd5b506102c5610298366004611e69565b600c6020526000908152604090208054600182015460029092015490916001600160a01b03908116911683565b604080519384526001600160a01b039283166020850152911690820152606001610166565b3480156102f657600080fd5b506101fc610305366004611e69565b6108b5565b34801561031657600080fd5b506101b1610325366004611e69565b610948565b34801561033657600080fd5b506101e9610345366004611f90565b6109a8565b34801561035657600080fd5b5061035f610aab565b6040516101669190611fd9565b34801561037857600080fd5b506101fc61038736600461203f565b610ba6565b34801561039857600080fd5b506101e96103a736600461205c565b610c2c565b3480156103b857600080fd5b50610184610eb1565b3480156103cd57600080fd5b506101e96103dc366004612083565b610ec0565b3480156103ed57600080fd5b506101e96103fc3660046120c1565b610ecf565b34801561040d57600080fd5b506102c561041c366004611e69565b6000908152600c602052604090208054600182015460029092015490926001600160a01b039283169290911690565b34801561045757600080fd5b50610184610466366004611e69565b610f07565b34801561047757600080fd5b5061015a610486366004612141565b6001600160a01b03918216600090815260056020908152604080832093909416825291909152205460ff1690565b60006104bf82610f12565b92915050565b6060600080546104d49061216f565b80601f01602080910402602001604051908101604052809291908181526020018280546105009061216f565b801561054d5780601f106105225761010080835404028352916020019161054d565b820191906000526020600020905b81548152906001019060200180831161053057829003601f168201915b5050505050905090565b600061056282610f37565b506000908152600460205260409020546001600160a01b031690565b600061058982610948565b9050806001600160a01b0316836001600160a01b0316036105fb5760405162461bcd60e51b815260206004820152602160248201527f4552433732313a20617070726f76616c20746f2063757272656e74206f776e656044820152603960f91b60648201526084015b60405180910390fd5b336001600160a01b038216148061061757506106178133610486565b6106895760405162461bcd60e51b815260206004820152603d60248201527f4552433732313a20617070726f76652063616c6c6572206973206e6f7420746f60448201527f6b656e206f776e6572206f7220617070726f76656420666f7220616c6c00000060648201526084016105f2565b6106938383610f99565b505050565b6106a23382611007565b6106be5760405162461bcd60e51b81526004016105f2906121a3565b610693838383611086565b6000818152600c60205260409020333134111561071d5760405162461bcd60e51b8152602060048201526012602482015271696e73756666696369656e742066756e647360701b60448201526064016105f2565b60028101546040516000916001600160a01b0316906108fc90349084818181858888f193505050503d8060008114610771576040519150601f19603f3d011682016040523d82523d6000602084013e610776565b606091505b50509050806107c75760405162461bcd60e51b815260206004820152601a60248201527f5472616e7366657220746f2063726561746f72206661696c656400000000000060448201526064016105f2565b604051348152339084907f0b5b4c52969ff7329ecf7ee536409fda87812b15a8622bc6e8cdeab3aee14a26906020015b60405180910390a3505050565b600061080f83610ba6565b82106108715760405162461bcd60e51b815260206004820152602b60248201527f455243373231456e756d657261626c653a206f776e657220696e646578206f7560448201526a74206f6620626f756e647360a81b60648201526084016105f2565b506001600160a01b03919091166000908152600660209081526040808320938352929052205490565b61069383838360405180602001604052806000815250610ecf565b60006108c060085490565b82106109235760405162461bcd60e51b815260206004820152602c60248201527f455243373231456e756d657261626c653a20676c6f62616c20696e646578206f60448201526b7574206f6620626f756e647360a01b60648201526084016105f2565b60088281548110610936576109366121f0565b90600052602060002001549050919050565b6000818152600260205260408120546001600160a01b0316806104bf5760405162461bcd60e51b8152602060048201526018602482015277115490cdcc8c4e881a5b9d985b1a59081d1bdad95b88125160421b60448201526064016105f2565b60008151116109ef5760405162461bcd60e51b8152602060048201526013602482015272506c6561736520696e7365727420612055524960681b60448201526064016105f2565b60006109fa600b5490565b9050610a0a600b80546001019055565b610a1433826111f7565b610a1e8183611211565b6000610a29826112dc565b6000838152600c60209081526040918290206001810180546001600160a01b0319908116339081179092558783556002830180546001600160a01b0388169216821790559351938452939450929185917fa410a9180b846e3adfce078226b1fb63d95f762f25cb8a9878bfbb72fe9a17e491015b60405180910390a350505050565b60606000610ab8600b5490565b67ffffffffffffffff811115610ad057610ad0611f04565b604051908082528060200260200182016040528015610b1b57816020015b6040805160608101825260008082526020808301829052928201528252600019909201910181610aee5790505b50905060005b600b54811015610ba0576000818152600c602090815260409182902082516060810184528154815260018201546001600160a01b03908116938201939093526002820154909216928201929092528351849084908110610b8357610b836121f0565b60200260200101819052505080610b999061221c565b9050610b21565b50919050565b60006001600160a01b038216610c105760405162461bcd60e51b815260206004820152602960248201527f4552433732313a2061646472657373207a65726f206973206e6f7420612076616044820152683634b21037bbb732b960b91b60648201526084016105f2565b506001600160a01b031660009081526003602052604090205490565b6000838152600c602052604090206001015482906001600160a01b03163314610ca85760405162461bcd60e51b815260206004820152602860248201527f43616c6c6572206d757374206265207468652063726561746f72206f6620746860448201526765206d656d6f727960c01b60648201526084016105f2565b6040516331a9108f60e11b81526004810183905233906001600160a01b03831690636352211e90602401602060405180830381865afa158015610cef573d6000803e3d6000fd5b505050506040513d601f19601f82011682018060405250810190610d139190612235565b6001600160a01b031614610d785760405162461bcd60e51b815260206004820152602660248201527f43616c6c6572206d757374206265207468652063726561746f72206f6620746860448201526565206974656d60d01b60648201526084016105f2565b6001600160a01b03831673f9aed7e3e070f56c80f9801a18d96e2d684ae64914610df25760405162461bcd60e51b815260206004820152602560248201527f4d75737420626520636f6e74726163742061646472657373206f6620746865206044820152646974656d7360d81b60648201526084016105f2565b6000848152600c602052604090819020600201549051632142170760e11b81523360048201526001600160a01b03918216602482015260448101849052908216906342842e0e90606401600060405180830381600087803b158015610e5657600080fd5b505af1158015610e6a573d6000803e3d6000fd5b5050604080516001600160a01b0387168152602081018690523393508792507f1b9b4f50d93af1fea37519ac8a1cb4eaae9ef6b0f0b7e47a2a59308ecf18b88b9101610a9d565b6060600180546104d49061216f565b610ecb338383611329565b5050565b610ed93383611007565b610ef55760405162461bcd60e51b81526004016105f2906121a3565b610f01848484846113ef565b50505050565b60606104bf82611422565b60006001600160e01b03198216632483248360e11b14806104bf57506104bf8261152a565b6000818152600260205260409020546001600160a01b0316610f965760405162461bcd60e51b8152602060048201526018602482015277115490cdcc8c4e881a5b9d985b1a59081d1bdad95b88125160421b60448201526064016105f2565b50565b600081815260046020526040902080546001600160a01b0319166001600160a01b0384169081179091558190610fce82610948565b6001600160a01b03167f8c5be1e5ebec7d5bd14f71427d1e84f3dd0314c0f7b2291e5b200ac8c7c3b92560405160405180910390a45050565b60008061101383610948565b9050806001600160a01b0316846001600160a01b0316148061105a57506001600160a01b0380821660009081526005602090815260408083209388168352929052205460ff165b8061107e5750836001600160a01b031661107384610557565b6001600160a01b0316145b949350505050565b826001600160a01b031661109982610948565b6001600160a01b0316146110bf5760405162461bcd60e51b81526004016105f290612252565b6001600160a01b0382166111215760405162461bcd60e51b8152602060048201526024808201527f4552433732313a207472616e7366657220746f20746865207a65726f206164646044820152637265737360e01b60648201526084016105f2565b61112e838383600161154f565b826001600160a01b031661114182610948565b6001600160a01b0316146111675760405162461bcd60e51b81526004016105f290612252565b600081815260046020908152604080832080546001600160a01b03199081169091556001600160a01b0387811680865260038552838620805460001901905590871680865283862080546001019055868652600290945282852080549092168417909155905184937fddf252ad1be2c89b69c2b068fc378daa952ba7f163c4a11628f55a4df523b3ef91a4505050565b610ecb82826040518060200160405280600081525061155b565b6000828152600260205260409020546001600160a01b031661128c5760405162461bcd60e51b815260206004820152602e60248201527f45524337323155524953746f726167653a2055524920736574206f66206e6f6e60448201526d32bc34b9ba32b73a103a37b5b2b760911b60648201526084016105f2565b6000828152600a602052604090206112a482826122e5565b506040518281527ff8e1a15aba9398e019f0b49df1a4fde98ee17ae345cb5f6b5e2c27f5033e8ce79060200160405180910390a15050565b60007302101dfb77fde026414827fdc604ddaf224f0921732d25602551487c3f3354dd80d76d54383a24335862aa36a730848061131d868686868c8661158e565b98975050505050505050565b816001600160a01b0316836001600160a01b03160361138a5760405162461bcd60e51b815260206004820152601960248201527f4552433732313a20617070726f766520746f2063616c6c65720000000000000060448201526064016105f2565b6001600160a01b03838116600081815260056020908152604080832094871680845294825291829020805460ff191686151590811790915591519182527f17307eab39ab6107e8899845ad3d59bd9653f200f220920489ca2b5937696c3191016107f7565b6113fa848484611086565b611406848484846115b3565b610f015760405162461bcd60e51b81526004016105f2906123a5565b606061142d82610f37565b6000828152600a6020526040812080546114469061216f565b80601f01602080910402602001604051908101604052809291908181526020018280546114729061216f565b80156114bf5780601f10611494576101008083540402835291602001916114bf565b820191906000526020600020905b8154815290600101906020018083116114a257829003601f168201915b5050505050905060006114dd60408051602081019091526000815290565b905080516000036114ef575092915050565b8151156115215780826040516020016115099291906123f7565b60405160208183030381529060405292505050919050565b61107e846116b4565b60006001600160e01b0319821663780e9d6360e01b14806104bf57506104bf82611728565b610f0184848484611778565b61156583836118ac565b61157260008484846115b3565b6106935760405162461bcd60e51b81526004016105f2906123a5565b60008061159e8787878787611a45565b8051602090910120905061131d83828a611aae565b60006001600160a01b0384163b156116a957604051630a85bd0160e11b81526001600160a01b0385169063150b7a02906115f7903390899088908890600401612426565b6020604051808303816000875af1925050508015611632575060408051601f3d908101601f1916820190925261162f91810190612463565b60015b61168f573d808015611660576040519150601f19603f3d011682016040523d82523d6000602084013e611665565b606091505b5080516000036116875760405162461bcd60e51b81526004016105f2906123a5565b805181602001fd5b6001600160e01b031916630a85bd0160e11b14905061107e565b506001949350505050565b60606116bf82610f37565b60006116d660408051602081019091526000815290565b905060008151116116f65760405180602001604052806000815250611721565b8061170084611ad8565b6040516020016117119291906123f7565b6040516020818303038152906040525b9392505050565b60006001600160e01b031982166380ac58cd60e01b148061175957506001600160e01b03198216635b5e139f60e01b145b806104bf57506301ffc9a760e01b6001600160e01b03198316146104bf565b60018111156117e75760405162461bcd60e51b815260206004820152603560248201527f455243373231456e756d657261626c653a20636f6e7365637574697665207472604482015274185b9cd9995c9cc81b9bdd081cdd5c1c1bdc9d1959605a1b60648201526084016105f2565b816001600160a01b0385166118435761183e81600880546000838152600960205260408120829055600182018355919091527ff3f7a9fe364faab93b216da50a3214154f22a0a2b415b23a84c8169e8b636ee30155565b611866565b836001600160a01b0316856001600160a01b031614611866576118668582611b6b565b6001600160a01b0384166118825761187d81611c08565b6118a5565b846001600160a01b0316846001600160a01b0316146118a5576118a58482611cb7565b5050505050565b6001600160a01b0382166119025760405162461bcd60e51b815260206004820181905260248201527f4552433732313a206d696e7420746f20746865207a65726f206164647265737360448201526064016105f2565b6000818152600260205260409020546001600160a01b0316156119675760405162461bcd60e51b815260206004820152601c60248201527f4552433732313a20746f6b656e20616c7265616479206d696e7465640000000060448201526064016105f2565b61197560008383600161154f565b6000818152600260205260409020546001600160a01b0316156119da5760405162461bcd60e51b815260206004820152601c60248201527f4552433732313a20746f6b656e20616c7265616479206d696e7465640000000060448201526064016105f2565b6001600160a01b038216600081815260036020908152604080832080546001019055848352600290915280822080546001600160a01b0319168417905551839291907fddf252ad1be2c89b69c2b068fc378daa952ba7f163c4a11628f55a4df523b3ef908290a45050565b60408051602081018390529081018590526001600160a01b0384166060828101919091526080820184905290869060a00160408051601f1981840301815290829052611a949291602001612480565b604051602081830303815290604052905095945050505050565b6000604051836040820152846020820152828152600b8101905060ff815360559020949350505050565b60606000611ae583611cfb565b600101905060008167ffffffffffffffff811115611b0557611b05611f04565b6040519080825280601f01601f191660200182016040528015611b2f576020820181803683370190505b5090508181016020015b600019016f181899199a1a9b1b9c1cb0b131b232b360811b600a86061a8153600a8504945084611b3957509392505050565b60006001611b7884610ba6565b611b8291906124ef565b600083815260076020526040902054909150808214611bd5576001600160a01b03841660009081526006602090815260408083208584528252808320548484528184208190558352600790915290208190555b5060009182526007602090815260408084208490556001600160a01b039094168352600681528383209183525290812055565b600854600090611c1a906001906124ef565b60008381526009602052604081205460088054939450909284908110611c4257611c426121f0565b906000526020600020015490508060088381548110611c6357611c636121f0565b6000918252602080832090910192909255828152600990915260408082208490558582528120556008805480611c9b57611c9b612502565b6001900381819060005260206000200160009055905550505050565b6000611cc283610ba6565b6001600160a01b039093166000908152600660209081526040808320868452825280832085905593825260079052919091209190915550565b60008072184f03e93ff9f4daa797ed6e38ed64bf6a1f0160401b8310611d3a5772184f03e93ff9f4daa797ed6e38ed64bf6a1f0160401b830492506040015b6d04ee2d6d415b85acef81000000008310611d66576d04ee2d6d415b85acef8100000000830492506020015b662386f26fc100008310611d8457662386f26fc10000830492506010015b6305f5e1008310611d9c576305f5e100830492506008015b6127108310611db057612710830492506004015b60648310611dc2576064830492506002015b600a83106104bf5760010192915050565b6001600160e01b031981168114610f9657600080fd5b600060208284031215611dfb57600080fd5b813561172181611dd3565b60005b83811015611e21578181015183820152602001611e09565b50506000910152565b60008151808452611e42816020860160208601611e06565b601f01601f19169290920160200192915050565b6020815260006117216020830184611e2a565b600060208284031215611e7b57600080fd5b5035919050565b6001600160a01b0381168114610f9657600080fd5b60008060408385031215611eaa57600080fd5b8235611eb581611e82565b946020939093013593505050565b600080600060608486031215611ed857600080fd5b8335611ee381611e82565b92506020840135611ef381611e82565b929592945050506040919091013590565b634e487b7160e01b600052604160045260246000fd5b600067ffffffffffffffff80841115611f3557611f35611f04565b604051601f8501601f19908116603f01168101908282118183101715611f5d57611f5d611f04565b81604052809350858152868686011115611f7657600080fd5b858560208301376000602087830101525050509392505050565b600060208284031215611fa257600080fd5b813567ffffffffffffffff811115611fb957600080fd5b8201601f81018413611fca57600080fd5b61107e84823560208401611f1a565b602080825282518282018190526000919060409081850190868401855b8281101561203257815180518552868101516001600160a01b039081168887015290860151168585015260609093019290850190600101611ff6565b5091979650505050505050565b60006020828403121561205157600080fd5b813561172181611e82565b60008060006060848603121561207157600080fd5b833592506020840135611ef381611e82565b6000806040838503121561209657600080fd5b82356120a181611e82565b9150602083013580151581146120b657600080fd5b809150509250929050565b600080600080608085870312156120d757600080fd5b84356120e281611e82565b935060208501356120f281611e82565b925060408501359150606085013567ffffffffffffffff81111561211557600080fd5b8501601f8101871361212657600080fd5b61213587823560208401611f1a565b91505092959194509250565b6000806040838503121561215457600080fd5b823561215f81611e82565b915060208301356120b681611e82565b600181811c9082168061218357607f821691505b602082108103610ba057634e487b7160e01b600052602260045260246000fd5b6020808252602d908201527f4552433732313a2063616c6c6572206973206e6f7420746f6b656e206f776e6560408201526c1c881bdc88185c1c1c9bdd9959609a1b606082015260800190565b634e487b7160e01b600052603260045260246000fd5b634e487b7160e01b600052601160045260246000fd5b60006001820161222e5761222e612206565b5060010190565b60006020828403121561224757600080fd5b815161172181611e82565b60208082526025908201527f4552433732313a207472616e736665722066726f6d20696e636f72726563742060408201526437bbb732b960d91b606082015260800190565b601f82111561069357600081815260208120601f850160051c810160208610156122be5750805b601f850160051c820191505b818110156122dd578281556001016122ca565b505050505050565b815167ffffffffffffffff8111156122ff576122ff611f04565b6123138161230d845461216f565b84612297565b602080601f83116001811461234857600084156123305750858301515b600019600386901b1c1916600185901b1785556122dd565b600085815260208120601f198616915b8281101561237757888601518255948401946001909101908401612358565b50858210156123955787850151600019600388901b60f8161c191681555b5050505050600190811b01905550565b60208082526032908201527f4552433732313a207472616e7366657220746f206e6f6e20455243373231526560408201527131b2b4bb32b91034b6b83632b6b2b73a32b960711b606082015260800190565b60008351612409818460208801611e06565b83519083019061241d818360208801611e06565b01949350505050565b6001600160a01b038581168252841660208201526040810183905260806060820181905260009061245990830184611e2a565b9695505050505050565b60006020828403121561247557600080fd5b815161172181611dd3565b733d60ad80600a3d3981f3363d3d373d3d3d363d7360601b8152606083901b6bffffffffffffffffffffffff191660148201526e5af43d82803e903d91602b57fd5bf360881b602882015281516000906124e1816037850160208701611e06565b919091016037019392505050565b818103818111156104bf576104bf612206565b634e487b7160e01b600052603160045260246000fdfea2646970667358221220d849c07aa052c5f0b9697f839367ce65575d2f70899c40b9cb93c48ac5c8ce8564736f6c63430008130033",
    "linkReferences": {}
  },
  "methodIdentifiers": {
    "addItemToMemory(uint256,address,uint256)": "7486fee4",
    "approve(address,uint256)": "095ea7b3",
    "balanceOf(address)": "70a08231",
    "createMemory(string)": "63f6efec",
    "donateToMemory(uint256)": "2b4c97c8",
    "getApproved(uint256)": "081812fc",
    "getIndividualMemory(uint256)": "b99b4a81",
    "getMemories()": "64b0a7b9",
    "isApprovedForAll(address,address)": "e985e9c5",
    "memories(uint256)": "4971ff00",
    "name()": "06fdde03",
    "ownerOf(uint256)": "6352211e",
    "safeTransferFrom(address,address,uint256)": "42842e0e",
    "safeTransferFrom(address,address,uint256,bytes)": "b88d4fde",
    "setApprovalForAll(address,bool)": "a22cb465",
    "supportsInterface(bytes4)": "01ffc9a7",
    "symbol()": "95d89b41",
    "tokenByIndex(uint256)": "4f6ccce7",
    "tokenOfOwnerByIndex(address,uint256)": "2f745c59",
    "tokenURI(uint256)": "c87b56dd",
    "totalSupply()": "18160ddd",
    "transferFrom(address,address,uint256)": "23b872dd"
  },
  "id": 22
}