{
  "abi": [
    {
      "inputs": [],
      "stateMutability": "nonpayable",
      "type": "constructor"
    },
    {
      "anonymous": false,
      "inputs": [
        {
          "indexed": true,
          "internalType": "address",
          "name": "owner",
          "type": "address"
        },
        {
          "indexed": true,
          "internalType": "address",
          "name": "approved",
          "type": "address"
        },
        {
          "indexed": true,
          "internalType": "uint256",
          "name": "tokenId",
          "type": "uint256"
        }
      ],
      "name": "Approval",
      "type": "event"
    },
    {
      "anonymous": false,
      "inputs": [
        {
          "indexed": true,
          "internalType": "address",
          "name": "owner",
          "type": "address"
        },
        {
          "indexed": true,
          "internalType": "address",
          "name": "operator",
          "type": "address"
        },
        {
          "indexed": false,
          "internalType": "bool",
          "name": "approved",
          "type": "bool"
        }
      ],
      "name": "ApprovalForAll",
      "type": "event"
    },
    {
      "anonymous": false,
      "inputs": [
        {
          "indexed": false,
          "internalType": "uint256",
          "name": "_fromTokenId",
          "type": "uint256"
        },
        {
          "indexed": false,
          "internalType": "uint256",
          "name": "_toTokenId",
          "type": "uint256"
        }
      ],
      "name": "BatchMetadataUpdate",
      "type": "event"
    },
    {
      "anonymous": false,
      "inputs": [
        {
          "indexed": false,
          "internalType": "uint256",
          "name": "_tokenId",
          "type": "uint256"
        }
      ],
      "name": "MetadataUpdate",
      "type": "event"
    },
    {
      "anonymous": false,
      "inputs": [
        {
          "indexed": true,
          "internalType": "address",
          "name": "from",
          "type": "address"
        },
        {
          "indexed": true,
          "internalType": "address",
          "name": "to",
          "type": "address"
        },
        {
          "indexed": true,
          "internalType": "uint256",
          "name": "tokenId",
          "type": "uint256"
        }
      ],
      "name": "Transfer",
      "type": "event"
    },
    {
      "inputs": [
        {
          "internalType": "uint256",
          "name": "",
          "type": "uint256"
        }
      ],
      "name": "_memories",
      "outputs": [
        {
          "internalType": "address",
          "name": "creator",
          "type": "address"
        },
        {
          "internalType": "uint256",
          "name": "tokenId",
          "type": "uint256"
        },
        {
          "internalType": "address",
          "name": "tbaAddress",
          "type": "address"
        }
      ],
      "stateMutability": "view",
      "type": "function"
    },
    {
      "inputs": [
        {
          "internalType": "uint256",
          "name": "_tokenId",
          "type": "uint256"
        },
        {
          "internalType": "string",
          "name": "_uri",
          "type": "string"
        }
      ],
      "name": "addItemToMemory",
      "outputs": [],
      "stateMutability": "nonpayable",
      "type": "function"
    },
    {
      "inputs": [
        {
          "internalType": "address",
          "name": "to",
          "type": "address"
        },
        {
          "internalType": "uint256",
          "name": "tokenId",
          "type": "uint256"
        }
      ],
      "name": "approve",
      "outputs": [],
      "stateMutability": "nonpayable",
      "type": "function"
    },
    {
      "inputs": [
        {
          "internalType": "address",
          "name": "owner",
          "type": "address"
        }
      ],
      "name": "balanceOf",
      "outputs": [
        {
          "internalType": "uint256",
          "name": "",
          "type": "uint256"
        }
      ],
      "stateMutability": "view",
      "type": "function"
    },
    {
      "inputs": [
        {
          "internalType": "string",
          "name": "_uri",
          "type": "string"
        }
      ],
      "name": "createMemory",
      "outputs": [],
      "stateMutability": "nonpayable",
      "type": "function"
    },
    {
      "inputs": [
        {
          "internalType": "uint256",
          "name": "_tokenId",
          "type": "uint256"
        }
      ],
      "name": "donateToMemory",
      "outputs": [],
      "stateMutability": "payable",
      "type": "function"
    },
    {
      "inputs": [
        {
          "internalType": "uint256",
          "name": "tokenId",
          "type": "uint256"
        }
      ],
      "name": "getApproved",
      "outputs": [
        {
          "internalType": "address",
          "name": "",
          "type": "address"
        }
      ],
      "stateMutability": "view",
      "type": "function"
    },
    {
      "inputs": [],
      "name": "getMemories",
      "outputs": [
        {
          "components": [
            {
              "internalType": "address",
              "name": "creator",
              "type": "address"
            },
            {
              "internalType": "uint256",
              "name": "tokenId",
              "type": "uint256"
            },
            {
              "internalType": "address",
              "name": "tbaAddress",
              "type": "address"
            }
          ],
          "internalType": "struct ERC6551Memories.Memory[]",
          "name": "",
          "type": "tuple[]"
        }
      ],
      "stateMutability": "view",
      "type": "function"
    },
    {
      "inputs": [
        {
          "internalType": "address",
          "name": "owner",
          "type": "address"
        },
        {
          "internalType": "address",
          "name": "operator",
          "type": "address"
        }
      ],
      "name": "isApprovedForAll",
      "outputs": [
        {
          "internalType": "bool",
          "name": "",
          "type": "bool"
        }
      ],
      "stateMutability": "view",
      "type": "function"
    },
    {
      "inputs": [],
      "name": "name",
      "outputs": [
        {
          "internalType": "string",
          "name": "",
          "type": "string"
        }
      ],
      "stateMutability": "view",
      "type": "function"
    },
    {
      "inputs": [
        {
          "internalType": "uint256",
          "name": "tokenId",
          "type": "uint256"
        }
      ],
      "name": "ownerOf",
      "outputs": [
        {
          "internalType": "address",
          "name": "",
          "type": "address"
        }
      ],
      "stateMutability": "view",
      "type": "function"
    },
    {
      "inputs": [
        {
          "internalType": "address",
          "name": "from",
          "type": "address"
        },
        {
          "internalType": "address",
          "name": "to",
          "type": "address"
        },
        {
          "internalType": "uint256",
          "name": "tokenId",
          "type": "uint256"
        }
      ],
      "name": "safeTransferFrom",
      "outputs": [],
      "stateMutability": "nonpayable",
      "type": "function"
    },
    {
      "inputs": [
        {
          "internalType": "address",
          "name": "from",
          "type": "address"
        },
        {
          "internalType": "address",
          "name": "to",
          "type": "address"
        },
        {
          "internalType": "uint256",
          "name": "tokenId",
          "type": "uint256"
        },
        {
          "internalType": "bytes",
          "name": "data",
          "type": "bytes"
        }
      ],
      "name": "safeTransferFrom",
      "outputs": [],
      "stateMutability": "nonpayable",
      "type": "function"
    },
    {
      "inputs": [
        {
          "internalType": "address",
          "name": "operator",
          "type": "address"
        },
        {
          "internalType": "bool",
          "name": "approved",
          "type": "bool"
        }
      ],
      "name": "setApprovalForAll",
      "outputs": [],
      "stateMutability": "nonpayable",
      "type": "function"
    },
    {
      "inputs": [
        {
          "internalType": "bytes4",
          "name": "interfaceId",
          "type": "bytes4"
        }
      ],
      "name": "supportsInterface",
      "outputs": [
        {
          "internalType": "bool",
          "name": "",
          "type": "bool"
        }
      ],
      "stateMutability": "view",
      "type": "function"
    },
    {
      "inputs": [],
      "name": "symbol",
      "outputs": [
        {
          "internalType": "string",
          "name": "",
          "type": "string"
        }
      ],
      "stateMutability": "view",
      "type": "function"
    },
    {
      "inputs": [
        {
          "internalType": "uint256",
          "name": "index",
          "type": "uint256"
        }
      ],
      "name": "tokenByIndex",
      "outputs": [
        {
          "internalType": "uint256",
          "name": "",
          "type": "uint256"
        }
      ],
      "stateMutability": "view",
      "type": "function"
    },
    {
      "inputs": [
        {
          "internalType": "address",
          "name": "owner",
          "type": "address"
        },
        {
          "internalType": "uint256",
          "name": "index",
          "type": "uint256"
        }
      ],
      "name": "tokenOfOwnerByIndex",
      "outputs": [
        {
          "internalType": "uint256",
          "name": "",
          "type": "uint256"
        }
      ],
      "stateMutability": "view",
      "type": "function"
    },
    {
      "inputs": [
        {
          "internalType": "uint256",
          "name": "tokenId",
          "type": "uint256"
        }
      ],
      "name": "tokenURI",
      "outputs": [
        {
          "internalType": "string",
          "name": "",
          "type": "string"
        }
      ],
      "stateMutability": "view",
      "type": "function"
    },
    {
      "inputs": [],
      "name": "totalSupply",
      "outputs": [
        {
          "internalType": "uint256",
          "name": "",
          "type": "uint256"
        }
      ],
      "stateMutability": "view",
      "type": "function"
    },
    {
      "inputs": [
        {
          "internalType": "address",
          "name": "from",
          "type": "address"
        },
        {
          "internalType": "address",
          "name": "to",
          "type": "address"
        },
        {
          "internalType": "uint256",
          "name": "tokenId",
          "type": "uint256"
        }
      ],
      "name": "transferFrom",
      "outputs": [],
      "stateMutability": "nonpayable",
      "type": "function"
    }
  ],
  "bytecode": {
    "object": "0x60806040523480156200001157600080fd5b506040518060400160405280601081526020016f657263363535312d6d656d6f7269657360801b8152506040518060400160405280600381526020016245364d60e81b815250816000908162000068919062000125565b50600162000077828262000125565b505050620001f1565b634e487b7160e01b600052604160045260246000fd5b600181811c90821680620000ab57607f821691505b602082108103620000cc57634e487b7160e01b600052602260045260246000fd5b50919050565b601f8211156200012057600081815260208120601f850160051c81016020861015620000fb5750805b601f850160051c820191505b818110156200011c5782815560010162000107565b5050505b505050565b81516001600160401b0381111562000141576200014162000080565b620001598162000152845462000096565b84620000d2565b602080601f831160018114620001915760008415620001785750858301515b600019600386901b1c1916600185901b1785556200011c565b600085815260208120601f198616915b82811015620001c257888601518255948401946001909101908401620001a1565b5085821015620001e15787850151600019600388901b60f8161c191681555b5050505050600190811b01905550565b61231680620002016000396000f3fe60806040526004361061012a5760003560e01c80636352211e116100ab578063a22cb4651161006f578063a22cb46514610329578063b85e3c0e14610349578063b88d4fde146103ba578063c87b56dd146103da578063e985e9c5146103fa578063ee0245601461044357600080fd5b80636352211e1461029257806363f6efec146102b257806364b0a7b9146102d257806370a08231146102f457806395d89b411461031457600080fd5b806323b872dd116100f257806323b872dd146101ff5780632b4c97c81461021f5780632f745c591461023257806342842e0e146102525780634f6ccce71461027257600080fd5b806301ffc9a71461012f57806306fdde0314610164578063081812fc14610186578063095ea7b3146101be57806318160ddd146101e0575b600080fd5b34801561013b57600080fd5b5061014f61014a366004611ba5565b610463565b60405190151581526020015b60405180910390f35b34801561017057600080fd5b50610179610474565b60405161015b9190611c12565b34801561019257600080fd5b506101a66101a1366004611c25565b610506565b6040516001600160a01b03909116815260200161015b565b3480156101ca57600080fd5b506101de6101d9366004611c5a565b61052d565b005b3480156101ec57600080fd5b506008545b60405190815260200161015b565b34801561020b57600080fd5b506101de61021a366004611c84565b610647565b6101de61022d366004611c25565b610678565b34801561023e57600080fd5b506101f161024d366004611c5a565b610776565b34801561025e57600080fd5b506101de61026d366004611c84565b61080c565b34801561027e57600080fd5b506101f161028d366004611c25565b610827565b34801561029e57600080fd5b506101a66102ad366004611c25565b6108ba565b3480156102be57600080fd5b506101de6102cd366004611d6c565b61091a565b3480156102de57600080fd5b506102e7610a30565b60405161015b9190611da1565b34801561030057600080fd5b506101f161030f366004611e07565b610b25565b34801561032057600080fd5b50610179610bab565b34801561033557600080fd5b506101de610344366004611e22565b610bba565b34801561035557600080fd5b50610390610364366004611c25565b600d602052600090815260409020805460018201546002909201546001600160a01b0391821692911683565b604080516001600160a01b039485168152602081019390935292169181019190915260600161015b565b3480156103c657600080fd5b506101de6103d5366004611e5e565b610bc9565b3480156103e657600080fd5b506101796103f5366004611c25565b610c01565b34801561040657600080fd5b5061014f610415366004611eda565b6001600160a01b03918216600090815260056020908152604080832093909416825291909152205460ff1690565b34801561044f57600080fd5b506101de61045e366004611f0d565b610c0c565b600061046e82610d07565b92915050565b60606000805461048390611f54565b80601f01602080910402602001604051908101604052809291908181526020018280546104af90611f54565b80156104fc5780601f106104d1576101008083540402835291602001916104fc565b820191906000526020600020905b8154815290600101906020018083116104df57829003601f168201915b5050505050905090565b600061051182610d2c565b506000908152600460205260409020546001600160a01b031690565b6000610538826108ba565b9050806001600160a01b0316836001600160a01b0316036105aa5760405162461bcd60e51b815260206004820152602160248201527f4552433732313a20617070726f76616c20746f2063757272656e74206f776e656044820152603960f91b60648201526084015b60405180910390fd5b336001600160a01b03821614806105c657506105c68133610415565b6106385760405162461bcd60e51b815260206004820152603d60248201527f4552433732313a20617070726f76652063616c6c6572206973206e6f7420746f60448201527f6b656e206f776e6572206f7220617070726f76656420666f7220616c6c00000060648201526084016105a1565b6106428383610d8e565b505050565b6106513382610dfc565b61066d5760405162461bcd60e51b81526004016105a190611f88565b610642838383610e7b565b6000818152600d6020526040902033313411156106cc5760405162461bcd60e51b8152602060048201526012602482015271696e73756666696369656e742066756e647360701b60448201526064016105a1565b60028101546040516000916001600160a01b0316906108fc90349084818181858888f193505050503d8060008114610720576040519150601f19603f3d011682016040523d82523d6000602084013e610725565b606091505b50509050806106425760405162461bcd60e51b815260206004820152601a60248201527f5472616e7366657220746f2063726561746f72206661696c656400000000000060448201526064016105a1565b600061078183610b25565b82106107e35760405162461bcd60e51b815260206004820152602b60248201527f455243373231456e756d657261626c653a206f776e657220696e646578206f7560448201526a74206f6620626f756e647360a81b60648201526084016105a1565b506001600160a01b03919091166000908152600660209081526040808320938352929052205490565b61064283838360405180602001604052806000815250610bc9565b600061083260085490565b82106108955760405162461bcd60e51b815260206004820152602c60248201527f455243373231456e756d657261626c653a20676c6f62616c20696e646578206f60448201526b7574206f6620626f756e647360a01b60648201526084016105a1565b600882815481106108a8576108a8611fd5565b90600052602060002001549050919050565b6000818152600260205260408120546001600160a01b03168061046e5760405162461bcd60e51b8152602060048201526018602482015277115490cdcc8c4e881a5b9d985b1a59081d1bdad95b88125160421b60448201526064016105a1565b60008151116109615760405162461bcd60e51b8152602060048201526013602482015272506c6561736520696e7365727420612055524960681b60448201526064016105a1565b600061096c600b5490565b905061097c600b80546001019055565b6109863382610fec565b6109908183611006565b7302101dfb77fde026414827fdc604ddaf224f0921732d25602551487c3f3354dd80d76d54383a2433586005306000806109ce868686868b866110d1565b600c80546000908152600d602052604081208054336001600160a01b0319918216178255600182018c90556002820180549091166001600160a01b0386161790558254939450929190610a2083612001565b9190505550505050505050505050565b60606000600c5467ffffffffffffffff811115610a4f57610a4f611cc0565b604051908082528060200260200182016040528015610a9a57816020015b6040805160608101825260008082526020808301829052928201528252600019909201910181610a6d5790505b50905060005b600c54811015610b1f576000818152600d6020908152604091829020825160608101845281546001600160a01b0390811682526001830154938201939093526002820154909216928201929092528351849084908110610b0257610b02611fd5565b60200260200101819052505080610b1890612001565b9050610aa0565b50919050565b60006001600160a01b038216610b8f5760405162461bcd60e51b815260206004820152602960248201527f4552433732313a2061646472657373207a65726f206973206e6f7420612076616044820152683634b21037bbb732b960b91b60648201526084016105a1565b506001600160a01b031660009081526003602052604090205490565b60606001805461048390611f54565b610bc5338383611102565b5050565b610bd33383610dfc565b610bef5760405162461bcd60e51b81526004016105a190611f88565b610bfb848484846111d0565b50505050565b606061046e82611203565b6000815111610c535760405162461bcd60e51b8152602060048201526013602482015272506c6561736520696e7365727420612055524960681b60448201526064016105a1565b6000610c5e600b5490565b9050610c6e600b80546001019055565b610c783382610fec565b610c828183611006565b6000838152600d60205260409081902060028101549151632142170760e11b81523360048201526001600160a01b0390921660248301526044820183905290309081906342842e0e90606401600060405180830381600087803b158015610ce857600080fd5b505af1158015610cfc573d6000803e3d6000fd5b505050505050505050565b60006001600160e01b03198216632483248360e11b148061046e575061046e8261130b565b6000818152600260205260409020546001600160a01b0316610d8b5760405162461bcd60e51b8152602060048201526018602482015277115490cdcc8c4e881a5b9d985b1a59081d1bdad95b88125160421b60448201526064016105a1565b50565b600081815260046020526040902080546001600160a01b0319166001600160a01b0384169081179091558190610dc3826108ba565b6001600160a01b03167f8c5be1e5ebec7d5bd14f71427d1e84f3dd0314c0f7b2291e5b200ac8c7c3b92560405160405180910390a45050565b600080610e08836108ba565b9050806001600160a01b0316846001600160a01b03161480610e4f57506001600160a01b0380821660009081526005602090815260408083209388168352929052205460ff165b80610e735750836001600160a01b0316610e6884610506565b6001600160a01b0316145b949350505050565b826001600160a01b0316610e8e826108ba565b6001600160a01b031614610eb45760405162461bcd60e51b81526004016105a19061201a565b6001600160a01b038216610f165760405162461bcd60e51b8152602060048201526024808201527f4552433732313a207472616e7366657220746f20746865207a65726f206164646044820152637265737360e01b60648201526084016105a1565b610f238383836001611330565b826001600160a01b0316610f36826108ba565b6001600160a01b031614610f5c5760405162461bcd60e51b81526004016105a19061201a565b600081815260046020908152604080832080546001600160a01b03199081169091556001600160a01b0387811680865260038552838620805460001901905590871680865283862080546001019055868652600290945282852080549092168417909155905184937fddf252ad1be2c89b69c2b068fc378daa952ba7f163c4a11628f55a4df523b3ef91a4505050565b610bc582826040518060200160405280600081525061133c565b6000828152600260205260409020546001600160a01b03166110815760405162461bcd60e51b815260206004820152602e60248201527f45524337323155524953746f726167653a2055524920736574206f66206e6f6e60448201526d32bc34b9ba32b73a103a37b5b2b760911b60648201526084016105a1565b6000828152600a6020526040902061109982826120ad565b506040518281527ff8e1a15aba9398e019f0b49df1a4fde98ee17ae345cb5f6b5e2c27f5033e8ce79060200160405180910390a15050565b6000806110e1878787878761136f565b805160209091012090506110f683828a6113d8565b98975050505050505050565b816001600160a01b0316836001600160a01b0316036111635760405162461bcd60e51b815260206004820152601960248201527f4552433732313a20617070726f766520746f2063616c6c65720000000000000060448201526064016105a1565b6001600160a01b03838116600081815260056020908152604080832094871680845294825291829020805460ff191686151590811790915591519182527f17307eab39ab6107e8899845ad3d59bd9653f200f220920489ca2b5937696c31910160405180910390a3505050565b6111db848484610e7b565b6111e784848484611402565b610bfb5760405162461bcd60e51b81526004016105a19061216d565b606061120e82610d2c565b6000828152600a60205260408120805461122790611f54565b80601f016020809104026020016040519081016040528092919081815260200182805461125390611f54565b80156112a05780601f10611275576101008083540402835291602001916112a0565b820191906000526020600020905b81548152906001019060200180831161128357829003601f168201915b5050505050905060006112be60408051602081019091526000815290565b905080516000036112d0575092915050565b8151156113025780826040516020016112ea9291906121bf565b60405160208183030381529060405292505050919050565b610e7384611503565b60006001600160e01b0319821663780e9d6360e01b148061046e575061046e82611577565b610bfb848484846115c7565b61134683836116fb565b6113536000848484611402565b6106425760405162461bcd60e51b81526004016105a19061216d565b60408051602081018390529081018590526001600160a01b0384166060828101919091526080820184905290869060a00160408051601f19818403018152908290526113be92916020016121ee565b604051602081830303815290604052905095945050505050565b6000604051836040820152846020820152828152600b8101905060ff815360559020949350505050565b60006001600160a01b0384163b156114f857604051630a85bd0160e11b81526001600160a01b0385169063150b7a029061144690339089908890889060040161225d565b6020604051808303816000875af1925050508015611481575060408051601f3d908101601f1916820190925261147e9181019061229a565b60015b6114de573d8080156114af576040519150601f19603f3d011682016040523d82523d6000602084013e6114b4565b606091505b5080516000036114d65760405162461bcd60e51b81526004016105a19061216d565b805181602001fd5b6001600160e01b031916630a85bd0160e11b149050610e73565b506001949350505050565b606061150e82610d2c565b600061152560408051602081019091526000815290565b905060008151116115455760405180602001604052806000815250611570565b8061154f84611894565b6040516020016115609291906121bf565b6040516020818303038152906040525b9392505050565b60006001600160e01b031982166380ac58cd60e01b14806115a857506001600160e01b03198216635b5e139f60e01b145b8061046e57506301ffc9a760e01b6001600160e01b031983161461046e565b60018111156116365760405162461bcd60e51b815260206004820152603560248201527f455243373231456e756d657261626c653a20636f6e7365637574697665207472604482015274185b9cd9995c9cc81b9bdd081cdd5c1c1bdc9d1959605a1b60648201526084016105a1565b816001600160a01b0385166116925761168d81600880546000838152600960205260408120829055600182018355919091527ff3f7a9fe364faab93b216da50a3214154f22a0a2b415b23a84c8169e8b636ee30155565b6116b5565b836001600160a01b0316856001600160a01b0316146116b5576116b58582611927565b6001600160a01b0384166116d1576116cc816119c4565b6116f4565b846001600160a01b0316846001600160a01b0316146116f4576116f48482611a73565b5050505050565b6001600160a01b0382166117515760405162461bcd60e51b815260206004820181905260248201527f4552433732313a206d696e7420746f20746865207a65726f206164647265737360448201526064016105a1565b6000818152600260205260409020546001600160a01b0316156117b65760405162461bcd60e51b815260206004820152601c60248201527f4552433732313a20746f6b656e20616c7265616479206d696e7465640000000060448201526064016105a1565b6117c4600083836001611330565b6000818152600260205260409020546001600160a01b0316156118295760405162461bcd60e51b815260206004820152601c60248201527f4552433732313a20746f6b656e20616c7265616479206d696e7465640000000060448201526064016105a1565b6001600160a01b038216600081815260036020908152604080832080546001019055848352600290915280822080546001600160a01b0319168417905551839291907fddf252ad1be2c89b69c2b068fc378daa952ba7f163c4a11628f55a4df523b3ef908290a45050565b606060006118a183611ab7565b600101905060008167ffffffffffffffff8111156118c1576118c1611cc0565b6040519080825280601f01601f1916602001820160405280156118eb576020820181803683370190505b5090508181016020015b600019016f181899199a1a9b1b9c1cb0b131b232b360811b600a86061a8153600a85049450846118f557509392505050565b6000600161193484610b25565b61193e91906122b7565b600083815260076020526040902054909150808214611991576001600160a01b03841660009081526006602090815260408083208584528252808320548484528184208190558352600790915290208190555b5060009182526007602090815260408084208490556001600160a01b039094168352600681528383209183525290812055565b6008546000906119d6906001906122b7565b600083815260096020526040812054600880549394509092849081106119fe576119fe611fd5565b906000526020600020015490508060088381548110611a1f57611a1f611fd5565b6000918252602080832090910192909255828152600990915260408082208490558582528120556008805480611a5757611a576122ca565b6001900381819060005260206000200160009055905550505050565b6000611a7e83610b25565b6001600160a01b039093166000908152600660209081526040808320868452825280832085905593825260079052919091209190915550565b60008072184f03e93ff9f4daa797ed6e38ed64bf6a1f0160401b8310611af65772184f03e93ff9f4daa797ed6e38ed64bf6a1f0160401b830492506040015b6d04ee2d6d415b85acef81000000008310611b22576d04ee2d6d415b85acef8100000000830492506020015b662386f26fc100008310611b4057662386f26fc10000830492506010015b6305f5e1008310611b58576305f5e100830492506008015b6127108310611b6c57612710830492506004015b60648310611b7e576064830492506002015b600a831061046e5760010192915050565b6001600160e01b031981168114610d8b57600080fd5b600060208284031215611bb757600080fd5b813561157081611b8f565b60005b83811015611bdd578181015183820152602001611bc5565b50506000910152565b60008151808452611bfe816020860160208601611bc2565b601f01601f19169290920160200192915050565b6020815260006115706020830184611be6565b600060208284031215611c3757600080fd5b5035919050565b80356001600160a01b0381168114611c5557600080fd5b919050565b60008060408385031215611c6d57600080fd5b611c7683611c3e565b946020939093013593505050565b600080600060608486031215611c9957600080fd5b611ca284611c3e565b9250611cb060208501611c3e565b9150604084013590509250925092565b634e487b7160e01b600052604160045260246000fd5b600067ffffffffffffffff80841115611cf157611cf1611cc0565b604051601f8501601f19908116603f01168101908282118183101715611d1957611d19611cc0565b81604052809350858152868686011115611d3257600080fd5b858560208301376000602087830101525050509392505050565b600082601f830112611d5d57600080fd5b61157083833560208501611cd6565b600060208284031215611d7e57600080fd5b813567ffffffffffffffff811115611d9557600080fd5b610e7384828501611d4c565b602080825282518282018190526000919060409081850190868401855b82811015611dfa57815180516001600160a01b039081168652878201518887015290860151168585015260609093019290850190600101611dbe565b5091979650505050505050565b600060208284031215611e1957600080fd5b61157082611c3e565b60008060408385031215611e3557600080fd5b611e3e83611c3e565b915060208301358015158114611e5357600080fd5b809150509250929050565b60008060008060808587031215611e7457600080fd5b611e7d85611c3e565b9350611e8b60208601611c3e565b925060408501359150606085013567ffffffffffffffff811115611eae57600080fd5b8501601f81018713611ebf57600080fd5b611ece87823560208401611cd6565b91505092959194509250565b60008060408385031215611eed57600080fd5b611ef683611c3e565b9150611f0460208401611c3e565b90509250929050565b60008060408385031215611f2057600080fd5b82359150602083013567ffffffffffffffff811115611f3e57600080fd5b611f4a85828601611d4c565b9150509250929050565b600181811c90821680611f6857607f821691505b602082108103610b1f57634e487b7160e01b600052602260045260246000fd5b6020808252602d908201527f4552433732313a2063616c6c6572206973206e6f7420746f6b656e206f776e6560408201526c1c881bdc88185c1c1c9bdd9959609a1b606082015260800190565b634e487b7160e01b600052603260045260246000fd5b634e487b7160e01b600052601160045260246000fd5b60006001820161201357612013611feb565b5060010190565b60208082526025908201527f4552433732313a207472616e736665722066726f6d20696e636f72726563742060408201526437bbb732b960d91b606082015260800190565b601f82111561064257600081815260208120601f850160051c810160208610156120865750805b601f850160051c820191505b818110156120a557828155600101612092565b505050505050565b815167ffffffffffffffff8111156120c7576120c7611cc0565b6120db816120d58454611f54565b8461205f565b602080601f83116001811461211057600084156120f85750858301515b600019600386901b1c1916600185901b1785556120a5565b600085815260208120601f198616915b8281101561213f57888601518255948401946001909101908401612120565b508582101561215d5787850151600019600388901b60f8161c191681555b5050505050600190811b01905550565b60208082526032908201527f4552433732313a207472616e7366657220746f206e6f6e20455243373231526560408201527131b2b4bb32b91034b6b83632b6b2b73a32b960711b606082015260800190565b600083516121d1818460208801611bc2565b8351908301906121e5818360208801611bc2565b01949350505050565b733d60ad80600a3d3981f3363d3d373d3d3d363d7360601b8152606083901b6bffffffffffffffffffffffff191660148201526e5af43d82803e903d91602b57fd5bf360881b6028820152815160009061224f816037850160208701611bc2565b919091016037019392505050565b6001600160a01b038581168252841660208201526040810183905260806060820181905260009061229090830184611be6565b9695505050505050565b6000602082840312156122ac57600080fd5b815161157081611b8f565b8181038181111561046e5761046e611feb565b634e487b7160e01b600052603160045260246000fdfea2646970667358221220ae9d8932cde68b726aaca43fcb2943cb8d5e878d3c7dcbb2eae24ed42c24a42c64736f6c63430008130033",
    "linkReferences": {}
  },
  "methodIdentifiers": {
    "_memories(uint256)": "b85e3c0e",
    "addItemToMemory(uint256,string)": "ee024560",
    "approve(address,uint256)": "095ea7b3",
    "balanceOf(address)": "70a08231",
    "createMemory(string)": "63f6efec",
    "donateToMemory(uint256)": "2b4c97c8",
    "getApproved(uint256)": "081812fc",
    "getMemories()": "64b0a7b9",
    "isApprovedForAll(address,address)": "e985e9c5",
    "name()": "06fdde03",
    "ownerOf(uint256)": "6352211e",
    "safeTransferFrom(address,address,uint256)": "42842e0e",
    "safeTransferFrom(address,address,uint256,bytes)": "b88d4fde",
    "setApprovalForAll(address,bool)": "a22cb465",
    "supportsInterface(bytes4)": "01ffc9a7",
    "symbol()": "95d89b41",
    "tokenByIndex(uint256)": "4f6ccce7",
    "tokenOfOwnerByIndex(address,uint256)": "2f745c59",
    "tokenURI(uint256)": "c87b56dd",
    "totalSupply()": "18160ddd",
    "transferFrom(address,address,uint256)": "23b872dd"
  },
  "id": 21
}