{
  "abi": [
    {
      "inputs": [],
      "stateMutability": "nonpayable",
      "type": "constructor"
    },
    {
      "anonymous": false,
      "inputs": [
        {
          "indexed": true,
          "internalType": "address",
          "name": "owner",
          "type": "address"
        },
        {
          "indexed": true,
          "internalType": "address",
          "name": "approved",
          "type": "address"
        },
        {
          "indexed": true,
          "internalType": "uint256",
          "name": "tokenId",
          "type": "uint256"
        }
      ],
      "name": "Approval",
      "type": "event"
    },
    {
      "anonymous": false,
      "inputs": [
        {
          "indexed": true,
          "internalType": "address",
          "name": "owner",
          "type": "address"
        },
        {
          "indexed": true,
          "internalType": "address",
          "name": "operator",
          "type": "address"
        },
        {
          "indexed": false,
          "internalType": "bool",
          "name": "approved",
          "type": "bool"
        }
      ],
      "name": "ApprovalForAll",
      "type": "event"
    },
    {
      "anonymous": false,
      "inputs": [
        {
          "indexed": false,
          "internalType": "uint256",
          "name": "_fromTokenId",
          "type": "uint256"
        },
        {
          "indexed": false,
          "internalType": "uint256",
          "name": "_toTokenId",
          "type": "uint256"
        }
      ],
      "name": "BatchMetadataUpdate",
      "type": "event"
    },
    {
      "anonymous": false,
      "inputs": [
        {
          "indexed": true,
          "internalType": "uint256",
          "name": "tokenId",
          "type": "uint256"
        }
      ],
      "name": "ItemMinted",
      "type": "event"
    },
    {
      "anonymous": false,
      "inputs": [
        {
          "indexed": false,
          "internalType": "uint256",
          "name": "_tokenId",
          "type": "uint256"
        }
      ],
      "name": "MetadataUpdate",
      "type": "event"
    },
    {
      "anonymous": false,
      "inputs": [
        {
          "indexed": true,
          "internalType": "address",
          "name": "from",
          "type": "address"
        },
        {
          "indexed": true,
          "internalType": "address",
          "name": "to",
          "type": "address"
        },
        {
          "indexed": true,
          "internalType": "uint256",
          "name": "tokenId",
          "type": "uint256"
        }
      ],
      "name": "Transfer",
      "type": "event"
    },
    {
      "inputs": [
        {
          "internalType": "address",
          "name": "to",
          "type": "address"
        },
        {
          "internalType": "uint256",
          "name": "tokenId",
          "type": "uint256"
        }
      ],
      "name": "approve",
      "outputs": [],
      "stateMutability": "nonpayable",
      "type": "function"
    },
    {
      "inputs": [
        {
          "internalType": "address",
          "name": "owner",
          "type": "address"
        }
      ],
      "name": "balanceOf",
      "outputs": [
        {
          "internalType": "uint256",
          "name": "",
          "type": "uint256"
        }
      ],
      "stateMutability": "view",
      "type": "function"
    },
    {
      "inputs": [
        {
          "internalType": "uint256",
          "name": "tokenId",
          "type": "uint256"
        }
      ],
      "name": "getApproved",
      "outputs": [
        {
          "internalType": "address",
          "name": "",
          "type": "address"
        }
      ],
      "stateMutability": "view",
      "type": "function"
    },
    {
      "inputs": [
        {
          "internalType": "address",
          "name": "owner",
          "type": "address"
        },
        {
          "internalType": "address",
          "name": "operator",
          "type": "address"
        }
      ],
      "name": "isApprovedForAll",
      "outputs": [
        {
          "internalType": "bool",
          "name": "",
          "type": "bool"
        }
      ],
      "stateMutability": "view",
      "type": "function"
    },
    {
      "inputs": [
        {
          "internalType": "string",
          "name": "uri",
          "type": "string"
        }
      ],
      "name": "mintItem",
      "outputs": [],
      "stateMutability": "nonpayable",
      "type": "function"
    },
    {
      "inputs": [],
      "name": "name",
      "outputs": [
        {
          "internalType": "string",
          "name": "",
          "type": "string"
        }
      ],
      "stateMutability": "view",
      "type": "function"
    },
    {
      "inputs": [
        {
          "internalType": "uint256",
          "name": "tokenId",
          "type": "uint256"
        }
      ],
      "name": "ownerOf",
      "outputs": [
        {
          "internalType": "address",
          "name": "",
          "type": "address"
        }
      ],
      "stateMutability": "view",
      "type": "function"
    },
    {
      "inputs": [
        {
          "internalType": "address",
          "name": "from",
          "type": "address"
        },
        {
          "internalType": "address",
          "name": "to",
          "type": "address"
        },
        {
          "internalType": "uint256",
          "name": "tokenId",
          "type": "uint256"
        }
      ],
      "name": "safeTransferFrom",
      "outputs": [],
      "stateMutability": "nonpayable",
      "type": "function"
    },
    {
      "inputs": [
        {
          "internalType": "address",
          "name": "from",
          "type": "address"
        },
        {
          "internalType": "address",
          "name": "to",
          "type": "address"
        },
        {
          "internalType": "uint256",
          "name": "tokenId",
          "type": "uint256"
        },
        {
          "internalType": "bytes",
          "name": "data",
          "type": "bytes"
        }
      ],
      "name": "safeTransferFrom",
      "outputs": [],
      "stateMutability": "nonpayable",
      "type": "function"
    },
    {
      "inputs": [
        {
          "internalType": "address",
          "name": "operator",
          "type": "address"
        },
        {
          "internalType": "bool",
          "name": "approved",
          "type": "bool"
        }
      ],
      "name": "setApprovalForAll",
      "outputs": [],
      "stateMutability": "nonpayable",
      "type": "function"
    },
    {
      "inputs": [
        {
          "internalType": "bytes4",
          "name": "interfaceId",
          "type": "bytes4"
        }
      ],
      "name": "supportsInterface",
      "outputs": [
        {
          "internalType": "bool",
          "name": "",
          "type": "bool"
        }
      ],
      "stateMutability": "view",
      "type": "function"
    },
    {
      "inputs": [],
      "name": "symbol",
      "outputs": [
        {
          "internalType": "string",
          "name": "",
          "type": "string"
        }
      ],
      "stateMutability": "view",
      "type": "function"
    },
    {
      "inputs": [
        {
          "internalType": "uint256",
          "name": "index",
          "type": "uint256"
        }
      ],
      "name": "tokenByIndex",
      "outputs": [
        {
          "internalType": "uint256",
          "name": "",
          "type": "uint256"
        }
      ],
      "stateMutability": "view",
      "type": "function"
    },
    {
      "inputs": [
        {
          "internalType": "address",
          "name": "owner",
          "type": "address"
        },
        {
          "internalType": "uint256",
          "name": "index",
          "type": "uint256"
        }
      ],
      "name": "tokenOfOwnerByIndex",
      "outputs": [
        {
          "internalType": "uint256",
          "name": "",
          "type": "uint256"
        }
      ],
      "stateMutability": "view",
      "type": "function"
    },
    {
      "inputs": [
        {
          "internalType": "uint256",
          "name": "tokenId",
          "type": "uint256"
        }
      ],
      "name": "tokenURI",
      "outputs": [
        {
          "internalType": "string",
          "name": "",
          "type": "string"
        }
      ],
      "stateMutability": "view",
      "type": "function"
    },
    {
      "inputs": [],
      "name": "totalSupply",
      "outputs": [
        {
          "internalType": "uint256",
          "name": "",
          "type": "uint256"
        }
      ],
      "stateMutability": "view",
      "type": "function"
    },
    {
      "inputs": [
        {
          "internalType": "address",
          "name": "from",
          "type": "address"
        },
        {
          "internalType": "address",
          "name": "to",
          "type": "address"
        },
        {
          "internalType": "uint256",
          "name": "tokenId",
          "type": "uint256"
        }
      ],
      "name": "transferFrom",
      "outputs": [],
      "stateMutability": "nonpayable",
      "type": "function"
    }
  ],
  "bytecode": {
    "object": "0x60806040523480156200001157600080fd5b506040518060400160405280601681526020017f455243363535312d4d656d6f726965732d4974656d730000000000000000000081525060405180604001604052806003815260200162454d4960e81b815250816000908162000075919062000132565b50600162000084828262000132565b505050620001fe565b634e487b7160e01b600052604160045260246000fd5b600181811c90821680620000b857607f821691505b602082108103620000d957634e487b7160e01b600052602260045260246000fd5b50919050565b601f8211156200012d57600081815260208120601f850160051c81016020861015620001085750805b601f850160051c820191505b81811015620001295782815560010162000114565b5050505b505050565b81516001600160401b038111156200014e576200014e6200008d565b62000166816200015f8454620000a3565b84620000df565b602080601f8311600181146200019e5760008415620001855750858301515b600019600386901b1c1916600185901b17855562000129565b600085815260208120601f198616915b82811015620001cf57888601518255948401946001909101908401620001ae565b5085821015620001ee5787850151600019600388901b60f8161c191681555b5050505050600190811b01905550565b611ba7806200020e6000396000f3fe608060405234801561001057600080fd5b506004361061010b5760003560e01c80634f6ccce7116100a2578063a22cb46511610071578063a22cb46514610219578063b88d4fde1461022c578063c75458491461023f578063c87b56dd14610252578063e985e9c51461026557600080fd5b80634f6ccce7146101d85780636352211e146101eb57806370a08231146101fe57806395d89b411461021157600080fd5b806318160ddd116100de57806318160ddd1461018d57806323b872dd1461019f5780632f745c59146101b257806342842e0e146101c557600080fd5b806301ffc9a71461011057806306fdde0314610138578063081812fc1461014d578063095ea7b314610178575b600080fd5b61012361011e366004611579565b6102a1565b60405190151581526020015b60405180910390f35b6101406102b2565b60405161012f91906115e6565b61016061015b3660046115f9565b610344565b6040516001600160a01b03909116815260200161012f565b61018b61018636600461162e565b61036b565b005b6008545b60405190815260200161012f565b61018b6101ad366004611658565b610485565b6101916101c036600461162e565b6104b6565b61018b6101d3366004611658565b61054c565b6101916101e63660046115f9565b610567565b6101606101f93660046115f9565b6105fa565b61019161020c366004611694565b61065a565b6101406106e0565b61018b6102273660046116af565b6106ef565b61018b61023a366004611777565b6106fe565b61018b61024d3660046117f3565b610736565b6101406102603660046115f9565b610794565b61012361027336600461183c565b6001600160a01b03918216600090815260056020908152604080832093909416825291909152205460ff1690565b60006102ac8261079f565b92915050565b6060600080546102c19061186f565b80601f01602080910402602001604051908101604052809291908181526020018280546102ed9061186f565b801561033a5780601f1061030f5761010080835404028352916020019161033a565b820191906000526020600020905b81548152906001019060200180831161031d57829003601f168201915b5050505050905090565b600061034f826107c4565b506000908152600460205260409020546001600160a01b031690565b6000610376826105fa565b9050806001600160a01b0316836001600160a01b0316036103e85760405162461bcd60e51b815260206004820152602160248201527f4552433732313a20617070726f76616c20746f2063757272656e74206f776e656044820152603960f91b60648201526084015b60405180910390fd5b336001600160a01b038216148061040457506104048133610273565b6104765760405162461bcd60e51b815260206004820152603d60248201527f4552433732313a20617070726f76652063616c6c6572206973206e6f7420746f60448201527f6b656e206f776e6572206f7220617070726f76656420666f7220616c6c00000060648201526084016103df565b6104808383610826565b505050565b61048f3382610894565b6104ab5760405162461bcd60e51b81526004016103df906118a9565b610480838383610913565b60006104c18361065a565b82106105235760405162461bcd60e51b815260206004820152602b60248201527f455243373231456e756d657261626c653a206f776e657220696e646578206f7560448201526a74206f6620626f756e647360a81b60648201526084016103df565b506001600160a01b03919091166000908152600660209081526040808320938352929052205490565b610480838383604051806020016040528060008152506106fe565b600061057260085490565b82106105d55760405162461bcd60e51b815260206004820152602c60248201527f455243373231456e756d657261626c653a20676c6f62616c20696e646578206f60448201526b7574206f6620626f756e647360a01b60648201526084016103df565b600882815481106105e8576105e86118f6565b90600052602060002001549050919050565b6000818152600260205260408120546001600160a01b0316806102ac5760405162461bcd60e51b8152602060048201526018602482015277115490cdcc8c4e881a5b9d985b1a59081d1bdad95b88125160421b60448201526064016103df565b60006001600160a01b0382166106c45760405162461bcd60e51b815260206004820152602960248201527f4552433732313a2061646472657373207a65726f206973206e6f7420612076616044820152683634b21037bbb732b960b91b60648201526084016103df565b506001600160a01b031660009081526003602052604090205490565b6060600180546102c19061186f565b6106fa338383610a84565b5050565b6107083383610894565b6107245760405162461bcd60e51b81526004016103df906118a9565b61073084848484610b52565b50505050565b6000610741600b5490565b9050610751600b80546001019055565b61075b3382610b85565b6107658183610b9f565b60405181907fb024351dd495ddd57c50334b2a17ad2e929b28be0ea5a482e0e9b4277766c67b90600090a25050565b60606102ac82610c6a565b60006001600160e01b03198216632483248360e11b14806102ac57506102ac82610d72565b6000818152600260205260409020546001600160a01b03166108235760405162461bcd60e51b8152602060048201526018602482015277115490cdcc8c4e881a5b9d985b1a59081d1bdad95b88125160421b60448201526064016103df565b50565b600081815260046020526040902080546001600160a01b0319166001600160a01b038416908117909155819061085b826105fa565b6001600160a01b03167f8c5be1e5ebec7d5bd14f71427d1e84f3dd0314c0f7b2291e5b200ac8c7c3b92560405160405180910390a45050565b6000806108a0836105fa565b9050806001600160a01b0316846001600160a01b031614806108e757506001600160a01b0380821660009081526005602090815260408083209388168352929052205460ff165b8061090b5750836001600160a01b031661090084610344565b6001600160a01b0316145b949350505050565b826001600160a01b0316610926826105fa565b6001600160a01b03161461094c5760405162461bcd60e51b81526004016103df9061190c565b6001600160a01b0382166109ae5760405162461bcd60e51b8152602060048201526024808201527f4552433732313a207472616e7366657220746f20746865207a65726f206164646044820152637265737360e01b60648201526084016103df565b6109bb8383836001610d97565b826001600160a01b03166109ce826105fa565b6001600160a01b0316146109f45760405162461bcd60e51b81526004016103df9061190c565b600081815260046020908152604080832080546001600160a01b03199081169091556001600160a01b0387811680865260038552838620805460001901905590871680865283862080546001019055868652600290945282852080549092168417909155905184937fddf252ad1be2c89b69c2b068fc378daa952ba7f163c4a11628f55a4df523b3ef91a4505050565b816001600160a01b0316836001600160a01b031603610ae55760405162461bcd60e51b815260206004820152601960248201527f4552433732313a20617070726f766520746f2063616c6c65720000000000000060448201526064016103df565b6001600160a01b03838116600081815260056020908152604080832094871680845294825291829020805460ff191686151590811790915591519182527f17307eab39ab6107e8899845ad3d59bd9653f200f220920489ca2b5937696c31910160405180910390a3505050565b610b5d848484610913565b610b6984848484610da3565b6107305760405162461bcd60e51b81526004016103df90611951565b6106fa828260405180602001604052806000815250610ea4565b6000828152600260205260409020546001600160a01b0316610c1a5760405162461bcd60e51b815260206004820152602e60248201527f45524337323155524953746f726167653a2055524920736574206f66206e6f6e60448201526d32bc34b9ba32b73a103a37b5b2b760911b60648201526084016103df565b6000828152600a60205260409020610c3282826119f1565b506040518281527ff8e1a15aba9398e019f0b49df1a4fde98ee17ae345cb5f6b5e2c27f5033e8ce79060200160405180910390a15050565b6060610c75826107c4565b6000828152600a602052604081208054610c8e9061186f565b80601f0160208091040260200160405190810160405280929190818152602001828054610cba9061186f565b8015610d075780601f10610cdc57610100808354040283529160200191610d07565b820191906000526020600020905b815481529060010190602001808311610cea57829003601f168201915b505050505090506000610d2560408051602081019091526000815290565b90508051600003610d37575092915050565b815115610d69578082604051602001610d51929190611ab1565b60405160208183030381529060405292505050919050565b61090b84610ed7565b60006001600160e01b0319821663780e9d6360e01b14806102ac57506102ac82610f4b565b61073084848484610f9b565b60006001600160a01b0384163b15610e9957604051630a85bd0160e11b81526001600160a01b0385169063150b7a0290610de7903390899088908890600401611ae0565b6020604051808303816000875af1925050508015610e22575060408051601f3d908101601f19168201909252610e1f91810190611b1d565b60015b610e7f573d808015610e50576040519150601f19603f3d011682016040523d82523d6000602084013e610e55565b606091505b508051600003610e775760405162461bcd60e51b81526004016103df90611951565b805181602001fd5b6001600160e01b031916630a85bd0160e11b14905061090b565b506001949350505050565b610eae83836110cf565b610ebb6000848484610da3565b6104805760405162461bcd60e51b81526004016103df90611951565b6060610ee2826107c4565b6000610ef960408051602081019091526000815290565b90506000815111610f195760405180602001604052806000815250610f44565b80610f2384611268565b604051602001610f34929190611ab1565b6040516020818303038152906040525b9392505050565b60006001600160e01b031982166380ac58cd60e01b1480610f7c57506001600160e01b03198216635b5e139f60e01b145b806102ac57506301ffc9a760e01b6001600160e01b03198316146102ac565b600181111561100a5760405162461bcd60e51b815260206004820152603560248201527f455243373231456e756d657261626c653a20636f6e7365637574697665207472604482015274185b9cd9995c9cc81b9bdd081cdd5c1c1bdc9d1959605a1b60648201526084016103df565b816001600160a01b0385166110665761106181600880546000838152600960205260408120829055600182018355919091527ff3f7a9fe364faab93b216da50a3214154f22a0a2b415b23a84c8169e8b636ee30155565b611089565b836001600160a01b0316856001600160a01b0316146110895761108985826112fb565b6001600160a01b0384166110a5576110a081611398565b6110c8565b846001600160a01b0316846001600160a01b0316146110c8576110c88482611447565b5050505050565b6001600160a01b0382166111255760405162461bcd60e51b815260206004820181905260248201527f4552433732313a206d696e7420746f20746865207a65726f206164647265737360448201526064016103df565b6000818152600260205260409020546001600160a01b03161561118a5760405162461bcd60e51b815260206004820152601c60248201527f4552433732313a20746f6b656e20616c7265616479206d696e7465640000000060448201526064016103df565b611198600083836001610d97565b6000818152600260205260409020546001600160a01b0316156111fd5760405162461bcd60e51b815260206004820152601c60248201527f4552433732313a20746f6b656e20616c7265616479206d696e7465640000000060448201526064016103df565b6001600160a01b038216600081815260036020908152604080832080546001019055848352600290915280822080546001600160a01b0319168417905551839291907fddf252ad1be2c89b69c2b068fc378daa952ba7f163c4a11628f55a4df523b3ef908290a45050565b606060006112758361148b565b600101905060008167ffffffffffffffff811115611295576112956116eb565b6040519080825280601f01601f1916602001820160405280156112bf576020820181803683370190505b5090508181016020015b600019016f181899199a1a9b1b9c1cb0b131b232b360811b600a86061a8153600a85049450846112c957509392505050565b600060016113088461065a565b6113129190611b3a565b600083815260076020526040902054909150808214611365576001600160a01b03841660009081526006602090815260408083208584528252808320548484528184208190558352600790915290208190555b5060009182526007602090815260408084208490556001600160a01b039094168352600681528383209183525290812055565b6008546000906113aa90600190611b3a565b600083815260096020526040812054600880549394509092849081106113d2576113d26118f6565b9060005260206000200154905080600883815481106113f3576113f36118f6565b600091825260208083209091019290925582815260099091526040808220849055858252812055600880548061142b5761142b611b5b565b6001900381819060005260206000200160009055905550505050565b60006114528361065a565b6001600160a01b039093166000908152600660209081526040808320868452825280832085905593825260079052919091209190915550565b60008072184f03e93ff9f4daa797ed6e38ed64bf6a1f0160401b83106114ca5772184f03e93ff9f4daa797ed6e38ed64bf6a1f0160401b830492506040015b6d04ee2d6d415b85acef810000000083106114f6576d04ee2d6d415b85acef8100000000830492506020015b662386f26fc10000831061151457662386f26fc10000830492506010015b6305f5e100831061152c576305f5e100830492506008015b612710831061154057612710830492506004015b60648310611552576064830492506002015b600a83106102ac5760010192915050565b6001600160e01b03198116811461082357600080fd5b60006020828403121561158b57600080fd5b8135610f4481611563565b60005b838110156115b1578181015183820152602001611599565b50506000910152565b600081518084526115d2816020860160208601611596565b601f01601f19169290920160200192915050565b602081526000610f4460208301846115ba565b60006020828403121561160b57600080fd5b5035919050565b80356001600160a01b038116811461162957600080fd5b919050565b6000806040838503121561164157600080fd5b61164a83611612565b946020939093013593505050565b60008060006060848603121561166d57600080fd5b61167684611612565b925061168460208501611612565b9150604084013590509250925092565b6000602082840312156116a657600080fd5b610f4482611612565b600080604083850312156116c257600080fd5b6116cb83611612565b9150602083013580151581146116e057600080fd5b809150509250929050565b634e487b7160e01b600052604160045260246000fd5b600067ffffffffffffffff8084111561171c5761171c6116eb565b604051601f8501601f19908116603f01168101908282118183101715611744576117446116eb565b8160405280935085815286868601111561175d57600080fd5b858560208301376000602087830101525050509392505050565b6000806000806080858703121561178d57600080fd5b61179685611612565b93506117a460208601611612565b925060408501359150606085013567ffffffffffffffff8111156117c757600080fd5b8501601f810187136117d857600080fd5b6117e787823560208401611701565b91505092959194509250565b60006020828403121561180557600080fd5b813567ffffffffffffffff81111561181c57600080fd5b8201601f8101841361182d57600080fd5b61090b84823560208401611701565b6000806040838503121561184f57600080fd5b61185883611612565b915061186660208401611612565b90509250929050565b600181811c9082168061188357607f821691505b6020821081036118a357634e487b7160e01b600052602260045260246000fd5b50919050565b6020808252602d908201527f4552433732313a2063616c6c6572206973206e6f7420746f6b656e206f776e6560408201526c1c881bdc88185c1c1c9bdd9959609a1b606082015260800190565b634e487b7160e01b600052603260045260246000fd5b60208082526025908201527f4552433732313a207472616e736665722066726f6d20696e636f72726563742060408201526437bbb732b960d91b606082015260800190565b60208082526032908201527f4552433732313a207472616e7366657220746f206e6f6e20455243373231526560408201527131b2b4bb32b91034b6b83632b6b2b73a32b960711b606082015260800190565b601f82111561048057600081815260208120601f850160051c810160208610156119ca5750805b601f850160051c820191505b818110156119e9578281556001016119d6565b505050505050565b815167ffffffffffffffff811115611a0b57611a0b6116eb565b611a1f81611a19845461186f565b846119a3565b602080601f831160018114611a545760008415611a3c5750858301515b600019600386901b1c1916600185901b1785556119e9565b600085815260208120601f198616915b82811015611a8357888601518255948401946001909101908401611a64565b5085821015611aa15787850151600019600388901b60f8161c191681555b5050505050600190811b01905550565b60008351611ac3818460208801611596565b835190830190611ad7818360208801611596565b01949350505050565b6001600160a01b0385811682528416602082015260408101839052608060608201819052600090611b13908301846115ba565b9695505050505050565b600060208284031215611b2f57600080fd5b8151610f4481611563565b818103818111156102ac57634e487b7160e01b600052601160045260246000fd5b634e487b7160e01b600052603160045260246000fdfea2646970667358221220ef30dd740bcc24f5ac5d86f0c5afc9b7c90238c7812a06ec8c391b0123da438f64736f6c63430008130033",
    "linkReferences": {}
  },
  "methodIdentifiers": {
    "approve(address,uint256)": "095ea7b3",
    "balanceOf(address)": "70a08231",
    "getApproved(uint256)": "081812fc",
    "isApprovedForAll(address,address)": "e985e9c5",
    "mintItem(string)": "c7545849",
    "name()": "06fdde03",
    "ownerOf(uint256)": "6352211e",
    "safeTransferFrom(address,address,uint256)": "42842e0e",
    "safeTransferFrom(address,address,uint256,bytes)": "b88d4fde",
    "setApprovalForAll(address,bool)": "a22cb465",
    "supportsInterface(bytes4)": "01ffc9a7",
    "symbol()": "95d89b41",
    "tokenByIndex(uint256)": "4f6ccce7",
    "tokenOfOwnerByIndex(address,uint256)": "2f745c59",
    "tokenURI(uint256)": "c87b56dd",
    "totalSupply()": "18160ddd",
    "transferFrom(address,address,uint256)": "23b872dd"
  },
  "id": 19
}