{
  "abi": [
    {
      "inputs": [],
      "stateMutability": "nonpayable",
      "type": "constructor"
    },
    {
      "anonymous": false,
      "inputs": [
        {
          "indexed": true,
          "internalType": "address",
          "name": "owner",
          "type": "address"
        },
        {
          "indexed": true,
          "internalType": "address",
          "name": "approved",
          "type": "address"
        },
        {
          "indexed": true,
          "internalType": "uint256",
          "name": "tokenId",
          "type": "uint256"
        }
      ],
      "name": "Approval",
      "type": "event"
    },
    {
      "anonymous": false,
      "inputs": [
        {
          "indexed": true,
          "internalType": "address",
          "name": "owner",
          "type": "address"
        },
        {
          "indexed": true,
          "internalType": "address",
          "name": "operator",
          "type": "address"
        },
        {
          "indexed": false,
          "internalType": "bool",
          "name": "approved",
          "type": "bool"
        }
      ],
      "name": "ApprovalForAll",
      "type": "event"
    },
    {
      "anonymous": false,
      "inputs": [
        {
          "indexed": false,
          "internalType": "uint256",
          "name": "_fromTokenId",
          "type": "uint256"
        },
        {
          "indexed": false,
          "internalType": "uint256",
          "name": "_toTokenId",
          "type": "uint256"
        }
      ],
      "name": "BatchMetadataUpdate",
      "type": "event"
    },
    {
      "anonymous": false,
      "inputs": [
        {
          "indexed": false,
          "internalType": "uint256",
          "name": "_tokenId",
          "type": "uint256"
        }
      ],
      "name": "MetadataUpdate",
      "type": "event"
    },
    {
      "anonymous": false,
      "inputs": [
        {
          "indexed": true,
          "internalType": "address",
          "name": "from",
          "type": "address"
        },
        {
          "indexed": true,
          "internalType": "address",
          "name": "to",
          "type": "address"
        },
        {
          "indexed": true,
          "internalType": "uint256",
          "name": "tokenId",
          "type": "uint256"
        }
      ],
      "name": "Transfer",
      "type": "event"
    },
    {
      "inputs": [
        {
          "internalType": "address",
          "name": "",
          "type": "address"
        }
      ],
      "name": "addressToTokenId",
      "outputs": [
        {
          "internalType": "uint256",
          "name": "",
          "type": "uint256"
        }
      ],
      "stateMutability": "view",
      "type": "function"
    },
    {
      "inputs": [
        {
          "internalType": "address",
          "name": "to",
          "type": "address"
        },
        {
          "internalType": "uint256",
          "name": "tokenId",
          "type": "uint256"
        }
      ],
      "name": "approve",
      "outputs": [],
      "stateMutability": "nonpayable",
      "type": "function"
    },
    {
      "inputs": [
        {
          "internalType": "address",
          "name": "owner",
          "type": "address"
        }
      ],
      "name": "balanceOf",
      "outputs": [
        {
          "internalType": "uint256",
          "name": "",
          "type": "uint256"
        }
      ],
      "stateMutability": "view",
      "type": "function"
    },
    {
      "inputs": [
        {
          "internalType": "uint256",
          "name": "tokenId",
          "type": "uint256"
        }
      ],
      "name": "getApproved",
      "outputs": [
        {
          "internalType": "address",
          "name": "",
          "type": "address"
        }
      ],
      "stateMutability": "view",
      "type": "function"
    },
    {
      "inputs": [
        {
          "internalType": "uint256",
          "name": "_tokenId",
          "type": "uint256"
        }
      ],
      "name": "getIndividualMemory",
      "outputs": [
        {
          "internalType": "uint256",
          "name": "",
          "type": "uint256"
        },
        {
          "internalType": "address",
          "name": "",
          "type": "address"
        },
        {
          "internalType": "address",
          "name": "",
          "type": "address"
        }
      ],
      "stateMutability": "view",
      "type": "function"
    },
    {
      "inputs": [
        {
          "internalType": "address",
          "name": "_address",
          "type": "address"
        }
      ],
      "name": "getTokenIdByAddress",
      "outputs": [
        {
          "internalType": "uint256",
          "name": "",
          "type": "uint256"
        }
      ],
      "stateMutability": "view",
      "type": "function"
    },
    {
      "inputs": [
        {
          "internalType": "address",
          "name": "owner",
          "type": "address"
        },
        {
          "internalType": "address",
          "name": "operator",
          "type": "address"
        }
      ],
      "name": "isApprovedForAll",
      "outputs": [
        {
          "internalType": "bool",
          "name": "",
          "type": "bool"
        }
      ],
      "stateMutability": "view",
      "type": "function"
    },
    {
      "inputs": [],
      "name": "mainMemoriesContract",
      "outputs": [
        {
          "internalType": "contract ERC6551Memories",
          "name": "",
          "type": "address"
        }
      ],
      "stateMutability": "view",
      "type": "function"
    },
    {
      "inputs": [
        {
          "internalType": "string",
          "name": "_uri",
          "type": "string"
        }
      ],
      "name": "mintItem",
      "outputs": [],
      "stateMutability": "nonpayable",
      "type": "function"
    },
    {
      "inputs": [],
      "name": "name",
      "outputs": [
        {
          "internalType": "string",
          "name": "",
          "type": "string"
        }
      ],
      "stateMutability": "view",
      "type": "function"
    },
    {
      "inputs": [
        {
          "internalType": "uint256",
          "name": "tokenId",
          "type": "uint256"
        }
      ],
      "name": "ownerOf",
      "outputs": [
        {
          "internalType": "address",
          "name": "",
          "type": "address"
        }
      ],
      "stateMutability": "view",
      "type": "function"
    },
    {
      "inputs": [
        {
          "internalType": "address",
          "name": "from",
          "type": "address"
        },
        {
          "internalType": "address",
          "name": "to",
          "type": "address"
        },
        {
          "internalType": "uint256",
          "name": "tokenId",
          "type": "uint256"
        }
      ],
      "name": "safeTransferFrom",
      "outputs": [],
      "stateMutability": "nonpayable",
      "type": "function"
    },
    {
      "inputs": [
        {
          "internalType": "address",
          "name": "from",
          "type": "address"
        },
        {
          "internalType": "address",
          "name": "to",
          "type": "address"
        },
        {
          "internalType": "uint256",
          "name": "tokenId",
          "type": "uint256"
        },
        {
          "internalType": "bytes",
          "name": "data",
          "type": "bytes"
        }
      ],
      "name": "safeTransferFrom",
      "outputs": [],
      "stateMutability": "nonpayable",
      "type": "function"
    },
    {
      "inputs": [
        {
          "internalType": "address",
          "name": "operator",
          "type": "address"
        },
        {
          "internalType": "bool",
          "name": "approved",
          "type": "bool"
        }
      ],
      "name": "setApprovalForAll",
      "outputs": [],
      "stateMutability": "nonpayable",
      "type": "function"
    },
    {
      "inputs": [
        {
          "internalType": "bytes4",
          "name": "interfaceId",
          "type": "bytes4"
        }
      ],
      "name": "supportsInterface",
      "outputs": [
        {
          "internalType": "bool",
          "name": "",
          "type": "bool"
        }
      ],
      "stateMutability": "view",
      "type": "function"
    },
    {
      "inputs": [],
      "name": "symbol",
      "outputs": [
        {
          "internalType": "string",
          "name": "",
          "type": "string"
        }
      ],
      "stateMutability": "view",
      "type": "function"
    },
    {
      "inputs": [
        {
          "internalType": "uint256",
          "name": "index",
          "type": "uint256"
        }
      ],
      "name": "tokenByIndex",
      "outputs": [
        {
          "internalType": "uint256",
          "name": "",
          "type": "uint256"
        }
      ],
      "stateMutability": "view",
      "type": "function"
    },
    {
      "inputs": [
        {
          "internalType": "address",
          "name": "owner",
          "type": "address"
        },
        {
          "internalType": "uint256",
          "name": "index",
          "type": "uint256"
        }
      ],
      "name": "tokenOfOwnerByIndex",
      "outputs": [
        {
          "internalType": "uint256",
          "name": "",
          "type": "uint256"
        }
      ],
      "stateMutability": "view",
      "type": "function"
    },
    {
      "inputs": [
        {
          "internalType": "uint256",
          "name": "tokenId",
          "type": "uint256"
        }
      ],
      "name": "tokenURI",
      "outputs": [
        {
          "internalType": "string",
          "name": "",
          "type": "string"
        }
      ],
      "stateMutability": "view",
      "type": "function"
    },
    {
      "inputs": [],
      "name": "totalSupply",
      "outputs": [
        {
          "internalType": "uint256",
          "name": "",
          "type": "uint256"
        }
      ],
      "stateMutability": "view",
      "type": "function"
    },
    {
      "inputs": [
        {
          "internalType": "address",
          "name": "from",
          "type": "address"
        },
        {
          "internalType": "address",
          "name": "to",
          "type": "address"
        },
        {
          "internalType": "uint256",
          "name": "tokenId",
          "type": "uint256"
        }
      ],
      "name": "transferFrom",
      "outputs": [],
      "stateMutability": "nonpayable",
      "type": "function"
    }
  ],
  "bytecode": {
    "object": "0x60806040523480156200001157600080fd5b506040518060400160405280601681526020017f455243363535312d4d656d6f726965732d4974656d730000000000000000000081525060405180604001604052806003815260200162454d4960e81b815250816000908162000075919062000158565b50600162000084828262000158565b5050600b80546001600160a01b03191673fdf30d1b5fa83d5cbff66f4e3fc64bba7d1f84991790555062000224565b634e487b7160e01b600052604160045260246000fd5b600181811c90821680620000de57607f821691505b602082108103620000ff57634e487b7160e01b600052602260045260246000fd5b50919050565b601f8211156200015357600081815260208120601f850160051c810160208610156200012e5750805b601f850160051c820191505b818110156200014f578281556001016200013a565b5050505b505050565b81516001600160401b03811115620001745762000174620000b3565b6200018c81620001858454620000c9565b8462000105565b602080601f831160018114620001c45760008415620001ab5750858301515b600019600386901b1c1916600185901b1785556200014f565b600085815260208120601f198616915b82811015620001f557888601518255948401946001909101908401620001d4565b5085821015620002145787850151600019600388901b60f8161c191681555b5050505050600190811b01905550565b611d1080620002346000396000f3fe608060405234801561001057600080fd5b50600436106101375760003560e01c80636352211e116100b8578063a22cb4651161007c578063a22cb465146102a1578063b88d4fde146102b4578063b99b4a81146102c7578063c7545849146102ff578063c87b56dd14610312578063e985e9c51461032557600080fd5b80636352211e1461022a5780636511bf2e1461023d57806370a082311461025d5780638cbab7e41461027057806395d89b411461029957600080fd5b806323b872dd116100ff57806323b872dd146101cb5780632f745c59146101de57806342842e0e146101f15780634e543b4e146102045780634f6ccce71461021757600080fd5b806301ffc9a71461013c57806306fdde0314610164578063081812fc14610179578063095ea7b3146101a457806318160ddd146101b9575b600080fd5b61014f61014a36600461169c565b610361565b60405190151581526020015b60405180910390f35b61016c610372565b60405161015b9190611709565b61018c61018736600461171c565b610404565b6040516001600160a01b03909116815260200161015b565b6101b76101b236600461174a565b61042b565b005b6008545b60405190815260200161015b565b6101b76101d9366004611776565b610545565b6101bd6101ec36600461174a565b610576565b6101b76101ff366004611776565b61060c565b600b5461018c906001600160a01b031681565b6101bd61022536600461171c565b610627565b61018c61023836600461171c565b6106ba565b6101bd61024b3660046117b7565b600d6020526000908152604090205481565b6101bd61026b3660046117b7565b61071a565b6101bd61027e3660046117b7565b6001600160a01b03166000908152600d602052604090205490565b61016c6107a0565b6101b76102af3660046117d4565b6107af565b6101b76102c236600461189e565b6107be565b6102da6102d536600461171c565b6107f6565b604080519384526001600160a01b03928316602085015291169082015260600161015b565b6101b761030d36600461191e565b610875565b61016c61032036600461171c565b6108b7565b61014f610333366004611967565b6001600160a01b03918216600090815260056020908152604080832093909416825291909152205460ff1690565b600061036c826108c2565b92915050565b60606000805461038190611995565b80601f01602080910402602001604051908101604052809291908181526020018280546103ad90611995565b80156103fa5780601f106103cf576101008083540402835291602001916103fa565b820191906000526020600020905b8154815290600101906020018083116103dd57829003601f168201915b5050505050905090565b600061040f826108e7565b506000908152600460205260409020546001600160a01b031690565b6000610436826106ba565b9050806001600160a01b0316836001600160a01b0316036104a85760405162461bcd60e51b815260206004820152602160248201527f4552433732313a20617070726f76616c20746f2063757272656e74206f776e656044820152603960f91b60648201526084015b60405180910390fd5b336001600160a01b03821614806104c457506104c48133610333565b6105365760405162461bcd60e51b815260206004820152603d60248201527f4552433732313a20617070726f76652063616c6c6572206973206e6f7420746f60448201527f6b656e206f776e6572206f7220617070726f76656420666f7220616c6c000000606482015260840161049f565b6105408383610949565b505050565b61054f33826109b7565b61056b5760405162461bcd60e51b815260040161049f906119cf565b610540838383610a36565b60006105818361071a565b82106105e35760405162461bcd60e51b815260206004820152602b60248201527f455243373231456e756d657261626c653a206f776e657220696e646578206f7560448201526a74206f6620626f756e647360a81b606482015260840161049f565b506001600160a01b03919091166000908152600660209081526040808320938352929052205490565b610540838383604051806020016040528060008152506107be565b600061063260085490565b82106106955760405162461bcd60e51b815260206004820152602c60248201527f455243373231456e756d657261626c653a20676c6f62616c20696e646578206f60448201526b7574206f6620626f756e647360a01b606482015260840161049f565b600882815481106106a8576106a8611a1c565b90600052602060002001549050919050565b6000818152600260205260408120546001600160a01b03168061036c5760405162461bcd60e51b8152602060048201526018602482015277115490cdcc8c4e881a5b9d985b1a59081d1bdad95b88125160421b604482015260640161049f565b60006001600160a01b0382166107845760405162461bcd60e51b815260206004820152602960248201527f4552433732313a2061646472657373207a65726f206973206e6f7420612076616044820152683634b21037bbb732b960b91b606482015260840161049f565b506001600160a01b031660009081526003602052604090205490565b60606001805461038190611995565b6107ba338383610ba7565b5050565b6107c833836109b7565b6107e45760405162461bcd60e51b815260040161049f906119cf565b6107f084848484610c75565b50505050565b600b5460405163b99b4a8160e01b815260048101839052600091829182916001600160a01b03169063b99b4a8190602401606060405180830381865afa158015610844573d6000803e3d6000fd5b505050506040513d601f19601f820116820180604052508101906108689190611a32565b9250925092509193909250565b6000610880600c5490565b9050610890600c80546001019055565b61089a3382610ca8565b6108a48183610cc2565b336000908152600d602052604090205550565b606061036c82610d8d565b60006001600160e01b03198216632483248360e11b148061036c575061036c82610e95565b6000818152600260205260409020546001600160a01b03166109465760405162461bcd60e51b8152602060048201526018602482015277115490cdcc8c4e881a5b9d985b1a59081d1bdad95b88125160421b604482015260640161049f565b50565b600081815260046020526040902080546001600160a01b0319166001600160a01b038416908117909155819061097e826106ba565b6001600160a01b03167f8c5be1e5ebec7d5bd14f71427d1e84f3dd0314c0f7b2291e5b200ac8c7c3b92560405160405180910390a45050565b6000806109c3836106ba565b9050806001600160a01b0316846001600160a01b03161480610a0a57506001600160a01b0380821660009081526005602090815260408083209388168352929052205460ff165b80610a2e5750836001600160a01b0316610a2384610404565b6001600160a01b0316145b949350505050565b826001600160a01b0316610a49826106ba565b6001600160a01b031614610a6f5760405162461bcd60e51b815260040161049f90611a75565b6001600160a01b038216610ad15760405162461bcd60e51b8152602060048201526024808201527f4552433732313a207472616e7366657220746f20746865207a65726f206164646044820152637265737360e01b606482015260840161049f565b610ade8383836001610eba565b826001600160a01b0316610af1826106ba565b6001600160a01b031614610b175760405162461bcd60e51b815260040161049f90611a75565b600081815260046020908152604080832080546001600160a01b03199081169091556001600160a01b0387811680865260038552838620805460001901905590871680865283862080546001019055868652600290945282852080549092168417909155905184937fddf252ad1be2c89b69c2b068fc378daa952ba7f163c4a11628f55a4df523b3ef91a4505050565b816001600160a01b0316836001600160a01b031603610c085760405162461bcd60e51b815260206004820152601960248201527f4552433732313a20617070726f766520746f2063616c6c657200000000000000604482015260640161049f565b6001600160a01b03838116600081815260056020908152604080832094871680845294825291829020805460ff191686151590811790915591519182527f17307eab39ab6107e8899845ad3d59bd9653f200f220920489ca2b5937696c31910160405180910390a3505050565b610c80848484610a36565b610c8c84848484610ec6565b6107f05760405162461bcd60e51b815260040161049f90611aba565b6107ba828260405180602001604052806000815250610fc7565b6000828152600260205260409020546001600160a01b0316610d3d5760405162461bcd60e51b815260206004820152602e60248201527f45524337323155524953746f726167653a2055524920736574206f66206e6f6e60448201526d32bc34b9ba32b73a103a37b5b2b760911b606482015260840161049f565b6000828152600a60205260409020610d558282611b5a565b506040518281527ff8e1a15aba9398e019f0b49df1a4fde98ee17ae345cb5f6b5e2c27f5033e8ce79060200160405180910390a15050565b6060610d98826108e7565b6000828152600a602052604081208054610db190611995565b80601f0160208091040260200160405190810160405280929190818152602001828054610ddd90611995565b8015610e2a5780601f10610dff57610100808354040283529160200191610e2a565b820191906000526020600020905b815481529060010190602001808311610e0d57829003601f168201915b505050505090506000610e4860408051602081019091526000815290565b90508051600003610e5a575092915050565b815115610e8c578082604051602001610e74929190611c1a565b60405160208183030381529060405292505050919050565b610a2e84610ffa565b60006001600160e01b0319821663780e9d6360e01b148061036c575061036c8261106e565b6107f0848484846110be565b60006001600160a01b0384163b15610fbc57604051630a85bd0160e11b81526001600160a01b0385169063150b7a0290610f0a903390899088908890600401611c49565b6020604051808303816000875af1925050508015610f45575060408051601f3d908101601f19168201909252610f4291810190611c86565b60015b610fa2573d808015610f73576040519150601f19603f3d011682016040523d82523d6000602084013e610f78565b606091505b508051600003610f9a5760405162461bcd60e51b815260040161049f90611aba565b805181602001fd5b6001600160e01b031916630a85bd0160e11b149050610a2e565b506001949350505050565b610fd183836111f2565b610fde6000848484610ec6565b6105405760405162461bcd60e51b815260040161049f90611aba565b6060611005826108e7565b600061101c60408051602081019091526000815290565b9050600081511161103c5760405180602001604052806000815250611067565b806110468461138b565b604051602001611057929190611c1a565b6040516020818303038152906040525b9392505050565b60006001600160e01b031982166380ac58cd60e01b148061109f57506001600160e01b03198216635b5e139f60e01b145b8061036c57506301ffc9a760e01b6001600160e01b031983161461036c565b600181111561112d5760405162461bcd60e51b815260206004820152603560248201527f455243373231456e756d657261626c653a20636f6e7365637574697665207472604482015274185b9cd9995c9cc81b9bdd081cdd5c1c1bdc9d1959605a1b606482015260840161049f565b816001600160a01b0385166111895761118481600880546000838152600960205260408120829055600182018355919091527ff3f7a9fe364faab93b216da50a3214154f22a0a2b415b23a84c8169e8b636ee30155565b6111ac565b836001600160a01b0316856001600160a01b0316146111ac576111ac858261141e565b6001600160a01b0384166111c8576111c3816114bb565b6111eb565b846001600160a01b0316846001600160a01b0316146111eb576111eb848261156a565b5050505050565b6001600160a01b0382166112485760405162461bcd60e51b815260206004820181905260248201527f4552433732313a206d696e7420746f20746865207a65726f2061646472657373604482015260640161049f565b6000818152600260205260409020546001600160a01b0316156112ad5760405162461bcd60e51b815260206004820152601c60248201527f4552433732313a20746f6b656e20616c7265616479206d696e74656400000000604482015260640161049f565b6112bb600083836001610eba565b6000818152600260205260409020546001600160a01b0316156113205760405162461bcd60e51b815260206004820152601c60248201527f4552433732313a20746f6b656e20616c7265616479206d696e74656400000000604482015260640161049f565b6001600160a01b038216600081815260036020908152604080832080546001019055848352600290915280822080546001600160a01b0319168417905551839291907fddf252ad1be2c89b69c2b068fc378daa952ba7f163c4a11628f55a4df523b3ef908290a45050565b60606000611398836115ae565b600101905060008167ffffffffffffffff8111156113b8576113b8611812565b6040519080825280601f01601f1916602001820160405280156113e2576020820181803683370190505b5090508181016020015b600019016f181899199a1a9b1b9c1cb0b131b232b360811b600a86061a8153600a85049450846113ec57509392505050565b6000600161142b8461071a565b6114359190611ca3565b600083815260076020526040902054909150808214611488576001600160a01b03841660009081526006602090815260408083208584528252808320548484528184208190558352600790915290208190555b5060009182526007602090815260408084208490556001600160a01b039094168352600681528383209183525290812055565b6008546000906114cd90600190611ca3565b600083815260096020526040812054600880549394509092849081106114f5576114f5611a1c565b90600052602060002001549050806008838154811061151657611516611a1c565b600091825260208083209091019290925582815260099091526040808220849055858252812055600880548061154e5761154e611cc4565b6001900381819060005260206000200160009055905550505050565b60006115758361071a565b6001600160a01b039093166000908152600660209081526040808320868452825280832085905593825260079052919091209190915550565b60008072184f03e93ff9f4daa797ed6e38ed64bf6a1f0160401b83106115ed5772184f03e93ff9f4daa797ed6e38ed64bf6a1f0160401b830492506040015b6d04ee2d6d415b85acef81000000008310611619576d04ee2d6d415b85acef8100000000830492506020015b662386f26fc10000831061163757662386f26fc10000830492506010015b6305f5e100831061164f576305f5e100830492506008015b612710831061166357612710830492506004015b60648310611675576064830492506002015b600a831061036c5760010192915050565b6001600160e01b03198116811461094657600080fd5b6000602082840312156116ae57600080fd5b813561106781611686565b60005b838110156116d45781810151838201526020016116bc565b50506000910152565b600081518084526116f58160208601602086016116b9565b601f01601f19169290920160200192915050565b60208152600061106760208301846116dd565b60006020828403121561172e57600080fd5b5035919050565b6001600160a01b038116811461094657600080fd5b6000806040838503121561175d57600080fd5b823561176881611735565b946020939093013593505050565b60008060006060848603121561178b57600080fd5b833561179681611735565b925060208401356117a681611735565b929592945050506040919091013590565b6000602082840312156117c957600080fd5b813561106781611735565b600080604083850312156117e757600080fd5b82356117f281611735565b91506020830135801515811461180757600080fd5b809150509250929050565b634e487b7160e01b600052604160045260246000fd5b600067ffffffffffffffff8084111561184357611843611812565b604051601f8501601f19908116603f0116810190828211818310171561186b5761186b611812565b8160405280935085815286868601111561188457600080fd5b858560208301376000602087830101525050509392505050565b600080600080608085870312156118b457600080fd5b84356118bf81611735565b935060208501356118cf81611735565b925060408501359150606085013567ffffffffffffffff8111156118f257600080fd5b8501601f8101871361190357600080fd5b61191287823560208401611828565b91505092959194509250565b60006020828403121561193057600080fd5b813567ffffffffffffffff81111561194757600080fd5b8201601f8101841361195857600080fd5b610a2e84823560208401611828565b6000806040838503121561197a57600080fd5b823561198581611735565b9150602083013561180781611735565b600181811c908216806119a957607f821691505b6020821081036119c957634e487b7160e01b600052602260045260246000fd5b50919050565b6020808252602d908201527f4552433732313a2063616c6c6572206973206e6f7420746f6b656e206f776e6560408201526c1c881bdc88185c1c1c9bdd9959609a1b606082015260800190565b634e487b7160e01b600052603260045260246000fd5b600080600060608486031215611a4757600080fd5b835192506020840151611a5981611735565b6040850151909250611a6a81611735565b809150509250925092565b60208082526025908201527f4552433732313a207472616e736665722066726f6d20696e636f72726563742060408201526437bbb732b960d91b606082015260800190565b60208082526032908201527f4552433732313a207472616e7366657220746f206e6f6e20455243373231526560408201527131b2b4bb32b91034b6b83632b6b2b73a32b960711b606082015260800190565b601f82111561054057600081815260208120601f850160051c81016020861015611b335750805b601f850160051c820191505b81811015611b5257828155600101611b3f565b505050505050565b815167ffffffffffffffff811115611b7457611b74611812565b611b8881611b828454611995565b84611b0c565b602080601f831160018114611bbd5760008415611ba55750858301515b600019600386901b1c1916600185901b178555611b52565b600085815260208120601f198616915b82811015611bec57888601518255948401946001909101908401611bcd565b5085821015611c0a5787850151600019600388901b60f8161c191681555b5050505050600190811b01905550565b60008351611c2c8184602088016116b9565b835190830190611c408183602088016116b9565b01949350505050565b6001600160a01b0385811682528416602082015260408101839052608060608201819052600090611c7c908301846116dd565b9695505050505050565b600060208284031215611c9857600080fd5b815161106781611686565b8181038181111561036c57634e487b7160e01b600052601160045260246000fd5b634e487b7160e01b600052603160045260246000fdfea2646970667358221220523f103bb67c0bc335948e2725504d9f73fa9be16b4c2b9ced326ac0abbf86ec64736f6c63430008130033",
    "linkReferences": {}
  },
  "methodIdentifiers": {
    "addressToTokenId(address)": "6511bf2e",
    "approve(address,uint256)": "095ea7b3",
    "balanceOf(address)": "70a08231",
    "getApproved(uint256)": "081812fc",
    "getIndividualMemory(uint256)": "b99b4a81",
    "getTokenIdByAddress(address)": "8cbab7e4",
    "isApprovedForAll(address,address)": "e985e9c5",
    "mainMemoriesContract()": "4e543b4e",
    "mintItem(string)": "c7545849",
    "name()": "06fdde03",
    "ownerOf(uint256)": "6352211e",
    "safeTransferFrom(address,address,uint256)": "42842e0e",
    "safeTransferFrom(address,address,uint256,bytes)": "b88d4fde",
    "setApprovalForAll(address,bool)": "a22cb465",
    "supportsInterface(bytes4)": "01ffc9a7",
    "symbol()": "95d89b41",
    "tokenByIndex(uint256)": "4f6ccce7",
    "tokenOfOwnerByIndex(address,uint256)": "2f745c59",
    "tokenURI(uint256)": "c87b56dd",
    "totalSupply()": "18160ddd",
    "transferFrom(address,address,uint256)": "23b872dd"
  },
  "id": 23
}