{
  "abi": [
    {
      "inputs": [],
      "stateMutability": "nonpayable",
      "type": "constructor"
    },
    {
      "anonymous": false,
      "inputs": [
        {
          "indexed": true,
          "internalType": "address",
          "name": "owner",
          "type": "address"
        },
        {
          "indexed": true,
          "internalType": "address",
          "name": "approved",
          "type": "address"
        },
        {
          "indexed": true,
          "internalType": "uint256",
          "name": "tokenId",
          "type": "uint256"
        }
      ],
      "name": "Approval",
      "type": "event"
    },
    {
      "anonymous": false,
      "inputs": [
        {
          "indexed": true,
          "internalType": "address",
          "name": "owner",
          "type": "address"
        },
        {
          "indexed": true,
          "internalType": "address",
          "name": "operator",
          "type": "address"
        },
        {
          "indexed": false,
          "internalType": "bool",
          "name": "approved",
          "type": "bool"
        }
      ],
      "name": "ApprovalForAll",
      "type": "event"
    },
    {
      "anonymous": false,
      "inputs": [
        {
          "indexed": false,
          "internalType": "uint256",
          "name": "_fromTokenId",
          "type": "uint256"
        },
        {
          "indexed": false,
          "internalType": "uint256",
          "name": "_toTokenId",
          "type": "uint256"
        }
      ],
      "name": "BatchMetadataUpdate",
      "type": "event"
    },
    {
      "anonymous": false,
      "inputs": [
        {
          "indexed": true,
          "internalType": "uint256",
          "name": "tokenId",
          "type": "uint256"
        },
        {
          "indexed": true,
          "internalType": "address",
          "name": "donor",
          "type": "address"
        },
        {
          "indexed": false,
          "internalType": "uint256",
          "name": "amount",
          "type": "uint256"
        }
      ],
      "name": "DonationReceived",
      "type": "event"
    },
    {
      "anonymous": false,
      "inputs": [
        {
          "indexed": true,
          "internalType": "uint256",
          "name": "tokenId",
          "type": "uint256"
        },
        {
          "indexed": true,
          "internalType": "address",
          "name": "itemOwner",
          "type": "address"
        },
        {
          "indexed": false,
          "internalType": "address",
          "name": "contractAddress",
          "type": "address"
        },
        {
          "indexed": false,
          "internalType": "uint256",
          "name": "itemTokenId",
          "type": "uint256"
        }
      ],
      "name": "ItemAddedToMemory",
      "type": "event"
    },
    {
      "anonymous": false,
      "inputs": [
        {
          "indexed": true,
          "internalType": "uint256",
          "name": "tokenId",
          "type": "uint256"
        },
        {
          "indexed": true,
          "internalType": "address",
          "name": "creator",
          "type": "address"
        },
        {
          "indexed": false,
          "internalType": "address",
          "name": "tbaAddress",
          "type": "address"
        }
      ],
      "name": "MemoryCreated",
      "type": "event"
    },
    {
      "anonymous": false,
      "inputs": [
        {
          "indexed": false,
          "internalType": "uint256",
          "name": "_tokenId",
          "type": "uint256"
        }
      ],
      "name": "MetadataUpdate",
      "type": "event"
    },
    {
      "anonymous": false,
      "inputs": [
        {
          "indexed": true,
          "internalType": "address",
          "name": "from",
          "type": "address"
        },
        {
          "indexed": true,
          "internalType": "address",
          "name": "to",
          "type": "address"
        },
        {
          "indexed": true,
          "internalType": "uint256",
          "name": "tokenId",
          "type": "uint256"
        }
      ],
      "name": "Transfer",
      "type": "event"
    },
    {
      "inputs": [
        {
          "internalType": "uint256",
          "name": "_tokenId",
          "type": "uint256"
        },
        {
          "internalType": "uint256",
          "name": "_itemTokenId",
          "type": "uint256"
        }
      ],
      "name": "addItemToMemory",
      "outputs": [],
      "stateMutability": "nonpayable",
      "type": "function"
    },
    {
      "inputs": [
        {
          "internalType": "address",
          "name": "to",
          "type": "address"
        },
        {
          "internalType": "uint256",
          "name": "tokenId",
          "type": "uint256"
        }
      ],
      "name": "approve",
      "outputs": [],
      "stateMutability": "nonpayable",
      "type": "function"
    },
    {
      "inputs": [
        {
          "internalType": "address",
          "name": "owner",
          "type": "address"
        }
      ],
      "name": "balanceOf",
      "outputs": [
        {
          "internalType": "uint256",
          "name": "",
          "type": "uint256"
        }
      ],
      "stateMutability": "view",
      "type": "function"
    },
    {
      "inputs": [
        {
          "internalType": "string",
          "name": "_uri",
          "type": "string"
        }
      ],
      "name": "createMemory",
      "outputs": [],
      "stateMutability": "nonpayable",
      "type": "function"
    },
    {
      "inputs": [
        {
          "internalType": "uint256",
          "name": "_tokenId",
          "type": "uint256"
        }
      ],
      "name": "donateToMemory",
      "outputs": [],
      "stateMutability": "payable",
      "type": "function"
    },
    {
      "inputs": [
        {
          "internalType": "uint256",
          "name": "tokenId",
          "type": "uint256"
        }
      ],
      "name": "getApproved",
      "outputs": [
        {
          "internalType": "address",
          "name": "",
          "type": "address"
        }
      ],
      "stateMutability": "view",
      "type": "function"
    },
    {
      "inputs": [
        {
          "internalType": "uint256",
          "name": "_tokenId",
          "type": "uint256"
        }
      ],
      "name": "getIndividualMemory",
      "outputs": [
        {
          "internalType": "uint256",
          "name": "",
          "type": "uint256"
        },
        {
          "internalType": "address",
          "name": "",
          "type": "address"
        },
        {
          "internalType": "address",
          "name": "",
          "type": "address"
        }
      ],
      "stateMutability": "view",
      "type": "function"
    },
    {
      "inputs": [],
      "name": "getMemories",
      "outputs": [
        {
          "components": [
            {
              "internalType": "uint256",
              "name": "tokenId",
              "type": "uint256"
            },
            {
              "internalType": "address",
              "name": "creator",
              "type": "address"
            },
            {
              "internalType": "address",
              "name": "tbaAddress",
              "type": "address"
            }
          ],
          "internalType": "struct ERC6551Memories.Memory[]",
          "name": "",
          "type": "tuple[]"
        }
      ],
      "stateMutability": "view",
      "type": "function"
    },
    {
      "inputs": [
        {
          "internalType": "address",
          "name": "owner",
          "type": "address"
        },
        {
          "internalType": "address",
          "name": "operator",
          "type": "address"
        }
      ],
      "name": "isApprovedForAll",
      "outputs": [
        {
          "internalType": "bool",
          "name": "",
          "type": "bool"
        }
      ],
      "stateMutability": "view",
      "type": "function"
    },
    {
      "inputs": [
        {
          "internalType": "uint256",
          "name": "",
          "type": "uint256"
        }
      ],
      "name": "memories",
      "outputs": [
        {
          "internalType": "uint256",
          "name": "tokenId",
          "type": "uint256"
        },
        {
          "internalType": "address",
          "name": "creator",
          "type": "address"
        },
        {
          "internalType": "address",
          "name": "tbaAddress",
          "type": "address"
        }
      ],
      "stateMutability": "view",
      "type": "function"
    },
    {
      "inputs": [],
      "name": "name",
      "outputs": [
        {
          "internalType": "string",
          "name": "",
          "type": "string"
        }
      ],
      "stateMutability": "view",
      "type": "function"
    },
    {
      "inputs": [
        {
          "internalType": "uint256",
          "name": "tokenId",
          "type": "uint256"
        }
      ],
      "name": "ownerOf",
      "outputs": [
        {
          "internalType": "address",
          "name": "",
          "type": "address"
        }
      ],
      "stateMutability": "view",
      "type": "function"
    },
    {
      "inputs": [
        {
          "internalType": "address",
          "name": "from",
          "type": "address"
        },
        {
          "internalType": "address",
          "name": "to",
          "type": "address"
        },
        {
          "internalType": "uint256",
          "name": "tokenId",
          "type": "uint256"
        }
      ],
      "name": "safeTransferFrom",
      "outputs": [],
      "stateMutability": "nonpayable",
      "type": "function"
    },
    {
      "inputs": [
        {
          "internalType": "address",
          "name": "from",
          "type": "address"
        },
        {
          "internalType": "address",
          "name": "to",
          "type": "address"
        },
        {
          "internalType": "uint256",
          "name": "tokenId",
          "type": "uint256"
        },
        {
          "internalType": "bytes",
          "name": "data",
          "type": "bytes"
        }
      ],
      "name": "safeTransferFrom",
      "outputs": [],
      "stateMutability": "nonpayable",
      "type": "function"
    },
    {
      "inputs": [
        {
          "internalType": "address",
          "name": "operator",
          "type": "address"
        },
        {
          "internalType": "bool",
          "name": "approved",
          "type": "bool"
        }
      ],
      "name": "setApprovalForAll",
      "outputs": [],
      "stateMutability": "nonpayable",
      "type": "function"
    },
    {
      "inputs": [
        {
          "internalType": "bytes4",
          "name": "interfaceId",
          "type": "bytes4"
        }
      ],
      "name": "supportsInterface",
      "outputs": [
        {
          "internalType": "bool",
          "name": "",
          "type": "bool"
        }
      ],
      "stateMutability": "view",
      "type": "function"
    },
    {
      "inputs": [],
      "name": "symbol",
      "outputs": [
        {
          "internalType": "string",
          "name": "",
          "type": "string"
        }
      ],
      "stateMutability": "view",
      "type": "function"
    },
    {
      "inputs": [
        {
          "internalType": "uint256",
          "name": "index",
          "type": "uint256"
        }
      ],
      "name": "tokenByIndex",
      "outputs": [
        {
          "internalType": "uint256",
          "name": "",
          "type": "uint256"
        }
      ],
      "stateMutability": "view",
      "type": "function"
    },
    {
      "inputs": [
        {
          "internalType": "address",
          "name": "owner",
          "type": "address"
        },
        {
          "internalType": "uint256",
          "name": "index",
          "type": "uint256"
        }
      ],
      "name": "tokenOfOwnerByIndex",
      "outputs": [
        {
          "internalType": "uint256",
          "name": "",
          "type": "uint256"
        }
      ],
      "stateMutability": "view",
      "type": "function"
    },
    {
      "inputs": [
        {
          "internalType": "uint256",
          "name": "tokenId",
          "type": "uint256"
        }
      ],
      "name": "tokenURI",
      "outputs": [
        {
          "internalType": "string",
          "name": "",
          "type": "string"
        }
      ],
      "stateMutability": "view",
      "type": "function"
    },
    {
      "inputs": [],
      "name": "totalSupply",
      "outputs": [
        {
          "internalType": "uint256",
          "name": "",
          "type": "uint256"
        }
      ],
      "stateMutability": "view",
      "type": "function"
    },
    {
      "inputs": [
        {
          "internalType": "address",
          "name": "from",
          "type": "address"
        },
        {
          "internalType": "address",
          "name": "to",
          "type": "address"
        },
        {
          "internalType": "uint256",
          "name": "tokenId",
          "type": "uint256"
        }
      ],
      "name": "transferFrom",
      "outputs": [],
      "stateMutability": "nonpayable",
      "type": "function"
    }
  ],
  "bytecode": {
    "object": "0x60806040523480156200001157600080fd5b506040518060400160405280601081526020016f657263363535312d6d656d6f7269657360801b8152506040518060400160405280600381526020016245364d60e81b815250816000908162000068919062000125565b50600162000077828262000125565b505050620001f1565b634e487b7160e01b600052604160045260246000fd5b600181811c90821680620000ab57607f821691505b602082108103620000cc57634e487b7160e01b600052602260045260246000fd5b50919050565b601f8211156200012057600081815260208120601f850160051c81016020861015620000fb5750805b601f850160051c820191505b818110156200011c5782815560010162000107565b5050505b505050565b81516001600160401b0381111562000141576200014162000080565b620001598162000152845462000096565b84620000d2565b602080601f831160018114620001915760008415620001785750858301515b600019600386901b1c1916600185901b1785556200011c565b600085815260208120601f198616915b82811015620001c257888601518255948401946001909101908401620001a1565b5085821015620001e15787850151600019600388901b60f8161c191681555b5050505050600190811b01905550565b6124e580620002016000396000f3fe6080604052600436106101355760003560e01c80636352211e116100ab578063a22cb4651161006f578063a22cb465146103a1578063b88d4fde146103c1578063b99b4a81146103e1578063c87b56dd1461042b578063c8e8c3731461044b578063e985e9c51461046b57600080fd5b80636352211e1461030a57806363f6efec1461032a57806364b0a7b91461034a57806370a082311461036c57806395d89b411461038c57600080fd5b806323b872dd116100fd57806323b872dd1461020a5780632b4c97c81461022a5780632f745c591461023d57806342842e0e1461025d5780634971ff001461027d5780634f6ccce7146102ea57600080fd5b806301ffc9a71461013a57806306fdde031461016f578063081812fc14610191578063095ea7b3146101c957806318160ddd146101eb575b600080fd5b34801561014657600080fd5b5061015a610155366004611d85565b6104b4565b60405190151581526020015b60405180910390f35b34801561017b57600080fd5b506101846104c5565b6040516101669190611df2565b34801561019d57600080fd5b506101b16101ac366004611e05565b610557565b6040516001600160a01b039091168152602001610166565b3480156101d557600080fd5b506101e96101e4366004611e33565b61057e565b005b3480156101f757600080fd5b506008545b604051908152602001610166565b34801561021657600080fd5b506101e9610225366004611e5f565b610698565b6101e9610238366004611e05565b6106c9565b34801561024957600080fd5b506101fc610258366004611e33565b610804565b34801561026957600080fd5b506101e9610278366004611e5f565b61089a565b34801561028957600080fd5b506102c5610298366004611e05565b600c6020526000908152604090208054600182015460029092015490916001600160a01b03908116911683565b604080519384526001600160a01b039283166020850152911690820152606001610166565b3480156102f657600080fd5b506101fc610305366004611e05565b6108b5565b34801561031657600080fd5b506101b1610325366004611e05565b610948565b34801561033657600080fd5b506101e9610345366004611f2c565b6109a8565b34801561035657600080fd5b5061035f610aab565b6040516101669190611f75565b34801561037857600080fd5b506101fc610387366004611fdb565b610ba6565b34801561039857600080fd5b50610184610c2c565b3480156103ad57600080fd5b506101e96103bc366004611ff8565b610c3b565b3480156103cd57600080fd5b506101e96103dc366004612036565b610c4a565b3480156103ed57600080fd5b506102c56103fc366004611e05565b6000908152600c602052604090208054600182015460029092015490926001600160a01b039283169290911690565b34801561043757600080fd5b50610184610446366004611e05565b610c82565b34801561045757600080fd5b506101e96104663660046120b6565b610c8d565b34801561047757600080fd5b5061015a6104863660046120d8565b6001600160a01b03918216600090815260056020908152604080832093909416825291909152205460ff1690565b60006104bf82610eae565b92915050565b6060600080546104d490612106565b80601f016020809104026020016040519081016040528092919081815260200182805461050090612106565b801561054d5780601f106105225761010080835404028352916020019161054d565b820191906000526020600020905b81548152906001019060200180831161053057829003601f168201915b5050505050905090565b600061056282610ed3565b506000908152600460205260409020546001600160a01b031690565b600061058982610948565b9050806001600160a01b0316836001600160a01b0316036105fb5760405162461bcd60e51b815260206004820152602160248201527f4552433732313a20617070726f76616c20746f2063757272656e74206f776e656044820152603960f91b60648201526084015b60405180910390fd5b336001600160a01b038216148061061757506106178133610486565b6106895760405162461bcd60e51b815260206004820152603d60248201527f4552433732313a20617070726f76652063616c6c6572206973206e6f7420746f60448201527f6b656e206f776e6572206f7220617070726f76656420666f7220616c6c00000060648201526084016105f2565b6106938383610f35565b505050565b6106a23382610fa3565b6106be5760405162461bcd60e51b81526004016105f29061213a565b610693838383611022565b6000818152600c60205260409020333134111561071d5760405162461bcd60e51b8152602060048201526012602482015271696e73756666696369656e742066756e647360701b60448201526064016105f2565b60028101546040516000916001600160a01b0316906108fc90349084818181858888f193505050503d8060008114610771576040519150601f19603f3d011682016040523d82523d6000602084013e610776565b606091505b50509050806107c75760405162461bcd60e51b815260206004820152601a60248201527f5472616e7366657220746f2063726561746f72206661696c656400000000000060448201526064016105f2565b604051348152339084907f0b5b4c52969ff7329ecf7ee536409fda87812b15a8622bc6e8cdeab3aee14a26906020015b60405180910390a3505050565b600061080f83610ba6565b82106108715760405162461bcd60e51b815260206004820152602b60248201527f455243373231456e756d657261626c653a206f776e657220696e646578206f7560448201526a74206f6620626f756e647360a81b60648201526084016105f2565b506001600160a01b03919091166000908152600660209081526040808320938352929052205490565b61069383838360405180602001604052806000815250610c4a565b60006108c060085490565b82106109235760405162461bcd60e51b815260206004820152602c60248201527f455243373231456e756d657261626c653a20676c6f62616c20696e646578206f60448201526b7574206f6620626f756e647360a01b60648201526084016105f2565b6008828154811061093657610936612187565b90600052602060002001549050919050565b6000818152600260205260408120546001600160a01b0316806104bf5760405162461bcd60e51b8152602060048201526018602482015277115490cdcc8c4e881a5b9d985b1a59081d1bdad95b88125160421b60448201526064016105f2565b60008151116109ef5760405162461bcd60e51b8152602060048201526013602482015272506c6561736520696e7365727420612055524960681b60448201526064016105f2565b60006109fa600b5490565b9050610a0a600b80546001019055565b610a143382611193565b610a1e81836111ad565b6000610a2982611278565b6000838152600c60209081526040918290206001810180546001600160a01b0319908116339081179092558783556002830180546001600160a01b0388169216821790559351938452939450929185917fa410a9180b846e3adfce078226b1fb63d95f762f25cb8a9878bfbb72fe9a17e491015b60405180910390a350505050565b60606000610ab8600b5490565b67ffffffffffffffff811115610ad057610ad0611ea0565b604051908082528060200260200182016040528015610b1b57816020015b6040805160608101825260008082526020808301829052928201528252600019909201910181610aee5790505b50905060005b600b54811015610ba0576000818152600c602090815260409182902082516060810184528154815260018201546001600160a01b03908116938201939093526002820154909216928201929092528351849084908110610b8357610b83612187565b60200260200101819052505080610b99906121b3565b9050610b21565b50919050565b60006001600160a01b038216610c105760405162461bcd60e51b815260206004820152602960248201527f4552433732313a2061646472657373207a65726f206973206e6f7420612076616044820152683634b21037bbb732b960b91b60648201526084016105f2565b506001600160a01b031660009081526003602052604090205490565b6060600180546104d490612106565b610c463383836112c5565b5050565b610c543383610fa3565b610c705760405162461bcd60e51b81526004016105f29061213a565b610c7c8484848461138b565b50505050565b60606104bf826113be565b6000828152600c6020526040902060010154735f591d8ac37d7b888dfa285bf0ce7904a2bea6c89081906001600160a01b03163314610d1f5760405162461bcd60e51b815260206004820152602860248201527f43616c6c6572206d757374206265207468652063726561746f72206f6620746860448201526765206d656d6f727960c01b60648201526084016105f2565b6040516331a9108f60e11b81526004810184905233906001600160a01b03831690636352211e90602401602060405180830381865afa158015610d66573d6000803e3d6000fd5b505050506040513d601f19601f82011682018060405250810190610d8a91906121cc565b6001600160a01b031614610def5760405162461bcd60e51b815260206004820152602660248201527f43616c6c6572206d757374206265207468652063726561746f72206f6620746860448201526565206974656d60d01b60648201526084016105f2565b6000848152600c602052604090819020600201549051632142170760e11b81523360048201526001600160a01b03918216602482015260448101859052908216906342842e0e90606401600060405180830381600087803b158015610e5357600080fd5b505af1158015610e67573d6000803e3d6000fd5b5050604080516001600160a01b0386168152602081018790523393508792507f1b9b4f50d93af1fea37519ac8a1cb4eaae9ef6b0f0b7e47a2a59308ecf18b88b9101610a9d565b60006001600160e01b03198216632483248360e11b14806104bf57506104bf826114c6565b6000818152600260205260409020546001600160a01b0316610f325760405162461bcd60e51b8152602060048201526018602482015277115490cdcc8c4e881a5b9d985b1a59081d1bdad95b88125160421b60448201526064016105f2565b50565b600081815260046020526040902080546001600160a01b0319166001600160a01b0384169081179091558190610f6a82610948565b6001600160a01b03167f8c5be1e5ebec7d5bd14f71427d1e84f3dd0314c0f7b2291e5b200ac8c7c3b92560405160405180910390a45050565b600080610faf83610948565b9050806001600160a01b0316846001600160a01b03161480610ff657506001600160a01b0380821660009081526005602090815260408083209388168352929052205460ff165b8061101a5750836001600160a01b031661100f84610557565b6001600160a01b0316145b949350505050565b826001600160a01b031661103582610948565b6001600160a01b03161461105b5760405162461bcd60e51b81526004016105f2906121e9565b6001600160a01b0382166110bd5760405162461bcd60e51b8152602060048201526024808201527f4552433732313a207472616e7366657220746f20746865207a65726f206164646044820152637265737360e01b60648201526084016105f2565b6110ca83838360016114eb565b826001600160a01b03166110dd82610948565b6001600160a01b0316146111035760405162461bcd60e51b81526004016105f2906121e9565b600081815260046020908152604080832080546001600160a01b03199081169091556001600160a01b0387811680865260038552838620805460001901905590871680865283862080546001019055868652600290945282852080549092168417909155905184937fddf252ad1be2c89b69c2b068fc378daa952ba7f163c4a11628f55a4df523b3ef91a4505050565b610c468282604051806020016040528060008152506114f7565b6000828152600260205260409020546001600160a01b03166112285760405162461bcd60e51b815260206004820152602e60248201527f45524337323155524953746f726167653a2055524920736574206f66206e6f6e60448201526d32bc34b9ba32b73a103a37b5b2b760911b60648201526084016105f2565b6000828152600a60205260409020611240828261227c565b506040518281527ff8e1a15aba9398e019f0b49df1a4fde98ee17ae345cb5f6b5e2c27f5033e8ce79060200160405180910390a15050565b60007302101dfb77fde026414827fdc604ddaf224f0921732d25602551487c3f3354dd80d76d54383a24335862aa36a73084806112b9868686868c8661152a565b98975050505050505050565b816001600160a01b0316836001600160a01b0316036113265760405162461bcd60e51b815260206004820152601960248201527f4552433732313a20617070726f766520746f2063616c6c65720000000000000060448201526064016105f2565b6001600160a01b03838116600081815260056020908152604080832094871680845294825291829020805460ff191686151590811790915591519182527f17307eab39ab6107e8899845ad3d59bd9653f200f220920489ca2b5937696c3191016107f7565b611396848484611022565b6113a28484848461154f565b610c7c5760405162461bcd60e51b81526004016105f29061233c565b60606113c982610ed3565b6000828152600a6020526040812080546113e290612106565b80601f016020809104026020016040519081016040528092919081815260200182805461140e90612106565b801561145b5780601f106114305761010080835404028352916020019161145b565b820191906000526020600020905b81548152906001019060200180831161143e57829003601f168201915b50505050509050600061147960408051602081019091526000815290565b9050805160000361148b575092915050565b8151156114bd5780826040516020016114a592919061238e565b60405160208183030381529060405292505050919050565b61101a84611650565b60006001600160e01b0319821663780e9d6360e01b14806104bf57506104bf826116c4565b610c7c84848484611714565b6115018383611848565b61150e600084848461154f565b6106935760405162461bcd60e51b81526004016105f29061233c565b60008061153a87878787876119e1565b805160209091012090506112b983828a611a4a565b60006001600160a01b0384163b1561164557604051630a85bd0160e11b81526001600160a01b0385169063150b7a02906115939033908990889088906004016123bd565b6020604051808303816000875af19250505080156115ce575060408051601f3d908101601f191682019092526115cb918101906123fa565b60015b61162b573d8080156115fc576040519150601f19603f3d011682016040523d82523d6000602084013e611601565b606091505b5080516000036116235760405162461bcd60e51b81526004016105f29061233c565b805181602001fd5b6001600160e01b031916630a85bd0160e11b14905061101a565b506001949350505050565b606061165b82610ed3565b600061167260408051602081019091526000815290565b9050600081511161169257604051806020016040528060008152506116bd565b8061169c84611a74565b6040516020016116ad92919061238e565b6040516020818303038152906040525b9392505050565b60006001600160e01b031982166380ac58cd60e01b14806116f557506001600160e01b03198216635b5e139f60e01b145b806104bf57506301ffc9a760e01b6001600160e01b03198316146104bf565b60018111156117835760405162461bcd60e51b815260206004820152603560248201527f455243373231456e756d657261626c653a20636f6e7365637574697665207472604482015274185b9cd9995c9cc81b9bdd081cdd5c1c1bdc9d1959605a1b60648201526084016105f2565b816001600160a01b0385166117df576117da81600880546000838152600960205260408120829055600182018355919091527ff3f7a9fe364faab93b216da50a3214154f22a0a2b415b23a84c8169e8b636ee30155565b611802565b836001600160a01b0316856001600160a01b031614611802576118028582611b07565b6001600160a01b03841661181e5761181981611ba4565b611841565b846001600160a01b0316846001600160a01b031614611841576118418482611c53565b5050505050565b6001600160a01b03821661189e5760405162461bcd60e51b815260206004820181905260248201527f4552433732313a206d696e7420746f20746865207a65726f206164647265737360448201526064016105f2565b6000818152600260205260409020546001600160a01b0316156119035760405162461bcd60e51b815260206004820152601c60248201527f4552433732313a20746f6b656e20616c7265616479206d696e7465640000000060448201526064016105f2565b6119116000838360016114eb565b6000818152600260205260409020546001600160a01b0316156119765760405162461bcd60e51b815260206004820152601c60248201527f4552433732313a20746f6b656e20616c7265616479206d696e7465640000000060448201526064016105f2565b6001600160a01b038216600081815260036020908152604080832080546001019055848352600290915280822080546001600160a01b0319168417905551839291907fddf252ad1be2c89b69c2b068fc378daa952ba7f163c4a11628f55a4df523b3ef908290a45050565b60408051602081018390529081018590526001600160a01b0384166060828101919091526080820184905290869060a00160408051601f1981840301815290829052611a309291602001612417565b604051602081830303815290604052905095945050505050565b6000604051836040820152846020820152828152600b8101905060ff815360559020949350505050565b60606000611a8183611c97565b600101905060008167ffffffffffffffff811115611aa157611aa1611ea0565b6040519080825280601f01601f191660200182016040528015611acb576020820181803683370190505b5090508181016020015b600019016f181899199a1a9b1b9c1cb0b131b232b360811b600a86061a8153600a8504945084611ad557509392505050565b60006001611b1484610ba6565b611b1e9190612486565b600083815260076020526040902054909150808214611b71576001600160a01b03841660009081526006602090815260408083208584528252808320548484528184208190558352600790915290208190555b5060009182526007602090815260408084208490556001600160a01b039094168352600681528383209183525290812055565b600854600090611bb690600190612486565b60008381526009602052604081205460088054939450909284908110611bde57611bde612187565b906000526020600020015490508060088381548110611bff57611bff612187565b6000918252602080832090910192909255828152600990915260408082208490558582528120556008805480611c3757611c37612499565b6001900381819060005260206000200160009055905550505050565b6000611c5e83610ba6565b6001600160a01b039093166000908152600660209081526040808320868452825280832085905593825260079052919091209190915550565b60008072184f03e93ff9f4daa797ed6e38ed64bf6a1f0160401b8310611cd65772184f03e93ff9f4daa797ed6e38ed64bf6a1f0160401b830492506040015b6d04ee2d6d415b85acef81000000008310611d02576d04ee2d6d415b85acef8100000000830492506020015b662386f26fc100008310611d2057662386f26fc10000830492506010015b6305f5e1008310611d38576305f5e100830492506008015b6127108310611d4c57612710830492506004015b60648310611d5e576064830492506002015b600a83106104bf5760010192915050565b6001600160e01b031981168114610f3257600080fd5b600060208284031215611d9757600080fd5b81356116bd81611d6f565b60005b83811015611dbd578181015183820152602001611da5565b50506000910152565b60008151808452611dde816020860160208601611da2565b601f01601f19169290920160200192915050565b6020815260006116bd6020830184611dc6565b600060208284031215611e1757600080fd5b5035919050565b6001600160a01b0381168114610f3257600080fd5b60008060408385031215611e4657600080fd5b8235611e5181611e1e565b946020939093013593505050565b600080600060608486031215611e7457600080fd5b8335611e7f81611e1e565b92506020840135611e8f81611e1e565b929592945050506040919091013590565b634e487b7160e01b600052604160045260246000fd5b600067ffffffffffffffff80841115611ed157611ed1611ea0565b604051601f8501601f19908116603f01168101908282118183101715611ef957611ef9611ea0565b81604052809350858152868686011115611f1257600080fd5b858560208301376000602087830101525050509392505050565b600060208284031215611f3e57600080fd5b813567ffffffffffffffff811115611f5557600080fd5b8201601f81018413611f6657600080fd5b61101a84823560208401611eb6565b602080825282518282018190526000919060409081850190868401855b82811015611fce57815180518552868101516001600160a01b039081168887015290860151168585015260609093019290850190600101611f92565b5091979650505050505050565b600060208284031215611fed57600080fd5b81356116bd81611e1e565b6000806040838503121561200b57600080fd5b823561201681611e1e565b91506020830135801515811461202b57600080fd5b809150509250929050565b6000806000806080858703121561204c57600080fd5b843561205781611e1e565b9350602085013561206781611e1e565b925060408501359150606085013567ffffffffffffffff81111561208a57600080fd5b8501601f8101871361209b57600080fd5b6120aa87823560208401611eb6565b91505092959194509250565b600080604083850312156120c957600080fd5b50508035926020909101359150565b600080604083850312156120eb57600080fd5b82356120f681611e1e565b9150602083013561202b81611e1e565b600181811c9082168061211a57607f821691505b602082108103610ba057634e487b7160e01b600052602260045260246000fd5b6020808252602d908201527f4552433732313a2063616c6c6572206973206e6f7420746f6b656e206f776e6560408201526c1c881bdc88185c1c1c9bdd9959609a1b606082015260800190565b634e487b7160e01b600052603260045260246000fd5b634e487b7160e01b600052601160045260246000fd5b6000600182016121c5576121c561219d565b5060010190565b6000602082840312156121de57600080fd5b81516116bd81611e1e565b60208082526025908201527f4552433732313a207472616e736665722066726f6d20696e636f72726563742060408201526437bbb732b960d91b606082015260800190565b601f82111561069357600081815260208120601f850160051c810160208610156122555750805b601f850160051c820191505b8181101561227457828155600101612261565b505050505050565b815167ffffffffffffffff81111561229657612296611ea0565b6122aa816122a48454612106565b8461222e565b602080601f8311600181146122df57600084156122c75750858301515b600019600386901b1c1916600185901b178555612274565b600085815260208120601f198616915b8281101561230e578886015182559484019460019091019084016122ef565b508582101561232c5787850151600019600388901b60f8161c191681555b5050505050600190811b01905550565b60208082526032908201527f4552433732313a207472616e7366657220746f206e6f6e20455243373231526560408201527131b2b4bb32b91034b6b83632b6b2b73a32b960711b606082015260800190565b600083516123a0818460208801611da2565b8351908301906123b4818360208801611da2565b01949350505050565b6001600160a01b03858116825284166020820152604081018390526080606082018190526000906123f090830184611dc6565b9695505050505050565b60006020828403121561240c57600080fd5b81516116bd81611d6f565b733d60ad80600a3d3981f3363d3d373d3d3d363d7360601b8152606083901b6bffffffffffffffffffffffff191660148201526e5af43d82803e903d91602b57fd5bf360881b60288201528151600090612478816037850160208701611da2565b919091016037019392505050565b818103818111156104bf576104bf61219d565b634e487b7160e01b600052603160045260246000fdfea2646970667358221220c5b4d3ba9f7bf394d009dd6f68bd4647883005c1777a457825aaba325c1dd4b964736f6c63430008130033",
    "linkReferences": {}
  },
  "methodIdentifiers": {
    "addItemToMemory(uint256,uint256)": "c8e8c373",
    "approve(address,uint256)": "095ea7b3",
    "balanceOf(address)": "70a08231",
    "createMemory(string)": "63f6efec",
    "donateToMemory(uint256)": "2b4c97c8",
    "getApproved(uint256)": "081812fc",
    "getIndividualMemory(uint256)": "b99b4a81",
    "getMemories()": "64b0a7b9",
    "isApprovedForAll(address,address)": "e985e9c5",
    "memories(uint256)": "4971ff00",
    "name()": "06fdde03",
    "ownerOf(uint256)": "6352211e",
    "safeTransferFrom(address,address,uint256)": "42842e0e",
    "safeTransferFrom(address,address,uint256,bytes)": "b88d4fde",
    "setApprovalForAll(address,bool)": "a22cb465",
    "supportsInterface(bytes4)": "01ffc9a7",
    "symbol()": "95d89b41",
    "tokenByIndex(uint256)": "4f6ccce7",
    "tokenOfOwnerByIndex(address,uint256)": "2f745c59",
    "tokenURI(uint256)": "c87b56dd",
    "totalSupply()": "18160ddd",
    "transferFrom(address,address,uint256)": "23b872dd"
  },
  "id": 22
}