{
  "abi": [
    {
      "inputs": [],
      "stateMutability": "nonpayable",
      "type": "constructor"
    },
    {
      "anonymous": false,
      "inputs": [
        {
          "indexed": true,
          "internalType": "address",
          "name": "owner",
          "type": "address"
        },
        {
          "indexed": true,
          "internalType": "address",
          "name": "approved",
          "type": "address"
        },
        {
          "indexed": true,
          "internalType": "uint256",
          "name": "tokenId",
          "type": "uint256"
        }
      ],
      "name": "Approval",
      "type": "event"
    },
    {
      "anonymous": false,
      "inputs": [
        {
          "indexed": true,
          "internalType": "address",
          "name": "owner",
          "type": "address"
        },
        {
          "indexed": true,
          "internalType": "address",
          "name": "operator",
          "type": "address"
        },
        {
          "indexed": false,
          "internalType": "bool",
          "name": "approved",
          "type": "bool"
        }
      ],
      "name": "ApprovalForAll",
      "type": "event"
    },
    {
      "anonymous": false,
      "inputs": [
        {
          "indexed": false,
          "internalType": "uint256",
          "name": "_fromTokenId",
          "type": "uint256"
        },
        {
          "indexed": false,
          "internalType": "uint256",
          "name": "_toTokenId",
          "type": "uint256"
        }
      ],
      "name": "BatchMetadataUpdate",
      "type": "event"
    },
    {
      "anonymous": false,
      "inputs": [
        {
          "indexed": false,
          "internalType": "uint256",
          "name": "_tokenId",
          "type": "uint256"
        }
      ],
      "name": "MetadataUpdate",
      "type": "event"
    },
    {
      "anonymous": false,
      "inputs": [
        {
          "indexed": true,
          "internalType": "address",
          "name": "from",
          "type": "address"
        },
        {
          "indexed": true,
          "internalType": "address",
          "name": "to",
          "type": "address"
        },
        {
          "indexed": true,
          "internalType": "uint256",
          "name": "tokenId",
          "type": "uint256"
        }
      ],
      "name": "Transfer",
      "type": "event"
    },
    {
      "inputs": [
        {
          "internalType": "uint256",
          "name": "",
          "type": "uint256"
        }
      ],
      "name": "_memories",
      "outputs": [
        {
          "internalType": "address",
          "name": "creator",
          "type": "address"
        },
        {
          "internalType": "uint256",
          "name": "tokenId",
          "type": "uint256"
        },
        {
          "internalType": "address",
          "name": "tbaAddress",
          "type": "address"
        }
      ],
      "stateMutability": "view",
      "type": "function"
    },
    {
      "inputs": [
        {
          "internalType": "uint256",
          "name": "_tokenId",
          "type": "uint256"
        },
        {
          "internalType": "address",
          "name": "_contractAddress",
          "type": "address"
        },
        {
          "internalType": "uint256",
          "name": "_itemTokenId",
          "type": "uint256"
        }
      ],
      "name": "addItemToMemory",
      "outputs": [],
      "stateMutability": "nonpayable",
      "type": "function"
    },
    {
      "inputs": [
        {
          "internalType": "address",
          "name": "to",
          "type": "address"
        },
        {
          "internalType": "uint256",
          "name": "tokenId",
          "type": "uint256"
        }
      ],
      "name": "approve",
      "outputs": [],
      "stateMutability": "nonpayable",
      "type": "function"
    },
    {
      "inputs": [
        {
          "internalType": "address",
          "name": "owner",
          "type": "address"
        }
      ],
      "name": "balanceOf",
      "outputs": [
        {
          "internalType": "uint256",
          "name": "",
          "type": "uint256"
        }
      ],
      "stateMutability": "view",
      "type": "function"
    },
    {
      "inputs": [
        {
          "internalType": "string",
          "name": "_uri",
          "type": "string"
        }
      ],
      "name": "createMemory",
      "outputs": [],
      "stateMutability": "nonpayable",
      "type": "function"
    },
    {
      "inputs": [
        {
          "internalType": "uint256",
          "name": "_tokenId",
          "type": "uint256"
        }
      ],
      "name": "donateToMemory",
      "outputs": [],
      "stateMutability": "payable",
      "type": "function"
    },
    {
      "inputs": [
        {
          "internalType": "uint256",
          "name": "tokenId",
          "type": "uint256"
        }
      ],
      "name": "getApproved",
      "outputs": [
        {
          "internalType": "address",
          "name": "",
          "type": "address"
        }
      ],
      "stateMutability": "view",
      "type": "function"
    },
    {
      "inputs": [
        {
          "internalType": "uint256",
          "name": "_tokenId",
          "type": "uint256"
        }
      ],
      "name": "getIndividualMemory",
      "outputs": [
        {
          "internalType": "address",
          "name": "",
          "type": "address"
        },
        {
          "internalType": "uint256",
          "name": "",
          "type": "uint256"
        },
        {
          "internalType": "address",
          "name": "",
          "type": "address"
        }
      ],
      "stateMutability": "view",
      "type": "function"
    },
    {
      "inputs": [],
      "name": "getMemories",
      "outputs": [
        {
          "components": [
            {
              "internalType": "address",
              "name": "creator",
              "type": "address"
            },
            {
              "internalType": "uint256",
              "name": "tokenId",
              "type": "uint256"
            },
            {
              "internalType": "address",
              "name": "tbaAddress",
              "type": "address"
            }
          ],
          "internalType": "struct ERC6551Memories.Memory[]",
          "name": "",
          "type": "tuple[]"
        }
      ],
      "stateMutability": "view",
      "type": "function"
    },
    {
      "inputs": [
        {
          "internalType": "address",
          "name": "owner",
          "type": "address"
        },
        {
          "internalType": "address",
          "name": "operator",
          "type": "address"
        }
      ],
      "name": "isApprovedForAll",
      "outputs": [
        {
          "internalType": "bool",
          "name": "",
          "type": "bool"
        }
      ],
      "stateMutability": "view",
      "type": "function"
    },
    {
      "inputs": [],
      "name": "name",
      "outputs": [
        {
          "internalType": "string",
          "name": "",
          "type": "string"
        }
      ],
      "stateMutability": "view",
      "type": "function"
    },
    {
      "inputs": [
        {
          "internalType": "uint256",
          "name": "tokenId",
          "type": "uint256"
        }
      ],
      "name": "ownerOf",
      "outputs": [
        {
          "internalType": "address",
          "name": "",
          "type": "address"
        }
      ],
      "stateMutability": "view",
      "type": "function"
    },
    {
      "inputs": [
        {
          "internalType": "address",
          "name": "from",
          "type": "address"
        },
        {
          "internalType": "address",
          "name": "to",
          "type": "address"
        },
        {
          "internalType": "uint256",
          "name": "tokenId",
          "type": "uint256"
        }
      ],
      "name": "safeTransferFrom",
      "outputs": [],
      "stateMutability": "nonpayable",
      "type": "function"
    },
    {
      "inputs": [
        {
          "internalType": "address",
          "name": "from",
          "type": "address"
        },
        {
          "internalType": "address",
          "name": "to",
          "type": "address"
        },
        {
          "internalType": "uint256",
          "name": "tokenId",
          "type": "uint256"
        },
        {
          "internalType": "bytes",
          "name": "data",
          "type": "bytes"
        }
      ],
      "name": "safeTransferFrom",
      "outputs": [],
      "stateMutability": "nonpayable",
      "type": "function"
    },
    {
      "inputs": [
        {
          "internalType": "address",
          "name": "operator",
          "type": "address"
        },
        {
          "internalType": "bool",
          "name": "approved",
          "type": "bool"
        }
      ],
      "name": "setApprovalForAll",
      "outputs": [],
      "stateMutability": "nonpayable",
      "type": "function"
    },
    {
      "inputs": [
        {
          "internalType": "bytes4",
          "name": "interfaceId",
          "type": "bytes4"
        }
      ],
      "name": "supportsInterface",
      "outputs": [
        {
          "internalType": "bool",
          "name": "",
          "type": "bool"
        }
      ],
      "stateMutability": "view",
      "type": "function"
    },
    {
      "inputs": [],
      "name": "symbol",
      "outputs": [
        {
          "internalType": "string",
          "name": "",
          "type": "string"
        }
      ],
      "stateMutability": "view",
      "type": "function"
    },
    {
      "inputs": [
        {
          "internalType": "uint256",
          "name": "index",
          "type": "uint256"
        }
      ],
      "name": "tokenByIndex",
      "outputs": [
        {
          "internalType": "uint256",
          "name": "",
          "type": "uint256"
        }
      ],
      "stateMutability": "view",
      "type": "function"
    },
    {
      "inputs": [
        {
          "internalType": "address",
          "name": "owner",
          "type": "address"
        },
        {
          "internalType": "uint256",
          "name": "index",
          "type": "uint256"
        }
      ],
      "name": "tokenOfOwnerByIndex",
      "outputs": [
        {
          "internalType": "uint256",
          "name": "",
          "type": "uint256"
        }
      ],
      "stateMutability": "view",
      "type": "function"
    },
    {
      "inputs": [
        {
          "internalType": "uint256",
          "name": "tokenId",
          "type": "uint256"
        }
      ],
      "name": "tokenURI",
      "outputs": [
        {
          "internalType": "string",
          "name": "",
          "type": "string"
        }
      ],
      "stateMutability": "view",
      "type": "function"
    },
    {
      "inputs": [],
      "name": "totalSupply",
      "outputs": [
        {
          "internalType": "uint256",
          "name": "",
          "type": "uint256"
        }
      ],
      "stateMutability": "view",
      "type": "function"
    },
    {
      "inputs": [
        {
          "internalType": "address",
          "name": "from",
          "type": "address"
        },
        {
          "internalType": "address",
          "name": "to",
          "type": "address"
        },
        {
          "internalType": "uint256",
          "name": "tokenId",
          "type": "uint256"
        }
      ],
      "name": "transferFrom",
      "outputs": [],
      "stateMutability": "nonpayable",
      "type": "function"
    }
  ],
  "bytecode": {
    "object": "0x60806040523480156200001157600080fd5b506040518060400160405280601081526020016f657263363535312d6d656d6f7269657360801b8152506040518060400160405280600381526020016245364d60e81b815250816000908162000068919062000125565b50600162000077828262000125565b505050620001f1565b634e487b7160e01b600052604160045260246000fd5b600181811c90821680620000ab57607f821691505b602082108103620000cc57634e487b7160e01b600052602260045260246000fd5b50919050565b601f8211156200012057600081815260208120601f850160051c81016020861015620000fb5750805b601f850160051c820191505b818110156200011c5782815560010162000107565b5050505b505050565b81516001600160401b0381111562000141576200014162000080565b620001598162000152845462000096565b84620000d2565b602080601f831160018114620001915760008415620001785750858301515b600019600386901b1c1916600185901b1785556200011c565b600085815260208120601f198616915b82811015620001c257888601518255948401946001909101908401620001a1565b5085821015620001e15787850151600019600388901b60f8161c191681555b5050505050600190811b01905550565b6124e380620002016000396000f3fe6080604052600436106101355760003560e01c806363f6efec116100ab578063a22cb4651161006f578063a22cb46514610354578063b85e3c0e14610374578063b88d4fde146103e5578063b99b4a8114610405578063c87b56dd1461044c578063e985e9c51461046c57600080fd5b806363f6efec146102bd57806364b0a7b9146102dd57806370a08231146102ff5780637486fee41461031f57806395d89b411461033f57600080fd5b806323b872dd116100fd57806323b872dd1461020a5780632b4c97c81461022a5780632f745c591461023d57806342842e0e1461025d5780634f6ccce71461027d5780636352211e1461029d57600080fd5b806301ffc9a71461013a57806306fdde031461016f578063081812fc14610191578063095ea7b3146101c957806318160ddd146101eb575b600080fd5b34801561014657600080fd5b5061015a610155366004611d36565b6104b5565b60405190151581526020015b60405180910390f35b34801561017b57600080fd5b506101846104c6565b6040516101669190611da3565b34801561019d57600080fd5b506101b16101ac366004611db6565b610558565b6040516001600160a01b039091168152602001610166565b3480156101d557600080fd5b506101e96101e4366004611de4565b61057f565b005b3480156101f757600080fd5b506008545b604051908152602001610166565b34801561021657600080fd5b506101e9610225366004611e10565b610699565b6101e9610238366004611db6565b6106ca565b34801561024957600080fd5b506101fc610258366004611de4565b6107fe565b34801561026957600080fd5b506101e9610278366004611e10565b610894565b34801561028957600080fd5b506101fc610298366004611db6565b6108af565b3480156102a957600080fd5b506101b16102b8366004611db6565b610942565b3480156102c957600080fd5b506101e96102d8366004611edd565b6109a2565b3480156102e957600080fd5b506102f2610ab8565b6040516101669190611f26565b34801561030b57600080fd5b506101fc61031a366004611f8c565b610bad565b34801561032b57600080fd5b506101e961033a366004611fa9565b610c33565b34801561034b57600080fd5b50610184610e37565b34801561036057600080fd5b506101e961036f366004611fd0565b610e46565b34801561038057600080fd5b506103bb61038f366004611db6565b600d602052600090815260409020805460018201546002909201546001600160a01b0391821692911683565b604080516001600160a01b0394851681526020810193909352921691810191909152606001610166565b3480156103f157600080fd5b506101e961040036600461200e565b610e55565b34801561041157600080fd5b506103bb610420366004611db6565b6000908152600d60205260409020805460018201546002909201546001600160a01b0391821693911690565b34801561045857600080fd5b50610184610467366004611db6565b610e8d565b34801561047857600080fd5b5061015a61048736600461208e565b6001600160a01b03918216600090815260056020908152604080832093909416825291909152205460ff1690565b60006104c082610e98565b92915050565b6060600080546104d5906120bc565b80601f0160208091040260200160405190810160405280929190818152602001828054610501906120bc565b801561054e5780601f106105235761010080835404028352916020019161054e565b820191906000526020600020905b81548152906001019060200180831161053157829003601f168201915b5050505050905090565b600061056382610ebd565b506000908152600460205260409020546001600160a01b031690565b600061058a82610942565b9050806001600160a01b0316836001600160a01b0316036105fc5760405162461bcd60e51b815260206004820152602160248201527f4552433732313a20617070726f76616c20746f2063757272656e74206f776e656044820152603960f91b60648201526084015b60405180910390fd5b336001600160a01b038216148061061857506106188133610487565b61068a5760405162461bcd60e51b815260206004820152603d60248201527f4552433732313a20617070726f76652063616c6c6572206973206e6f7420746f60448201527f6b656e206f776e6572206f7220617070726f76656420666f7220616c6c00000060648201526084016105f3565b6106948383610f1f565b505050565b6106a33382610f8d565b6106bf5760405162461bcd60e51b81526004016105f3906120f0565b61069483838361100c565b6000818152600d60205260409020333134111561071e5760405162461bcd60e51b8152602060048201526012602482015271696e73756666696369656e742066756e647360701b60448201526064016105f3565b6000828152600d60205260409020546001600160a01b031633146107545760405162461bcd60e51b81526004016105f39061213d565b60028101546040516000916001600160a01b0316906108fc90349084818181858888f193505050503d80600081146107a8576040519150601f19603f3d011682016040523d82523d6000602084013e6107ad565b606091505b50509050806106945760405162461bcd60e51b815260206004820152601a60248201527f5472616e7366657220746f2063726561746f72206661696c656400000000000060448201526064016105f3565b600061080983610bad565b821061086b5760405162461bcd60e51b815260206004820152602b60248201527f455243373231456e756d657261626c653a206f776e657220696e646578206f7560448201526a74206f6620626f756e647360a81b60648201526084016105f3565b506001600160a01b03919091166000908152600660209081526040808320938352929052205490565b61069483838360405180602001604052806000815250610e55565b60006108ba60085490565b821061091d5760405162461bcd60e51b815260206004820152602c60248201527f455243373231456e756d657261626c653a20676c6f62616c20696e646578206f60448201526b7574206f6620626f756e647360a01b60648201526084016105f3565b6008828154811061093057610930612185565b90600052602060002001549050919050565b6000818152600260205260408120546001600160a01b0316806104c05760405162461bcd60e51b8152602060048201526018602482015277115490cdcc8c4e881a5b9d985b1a59081d1bdad95b88125160421b60448201526064016105f3565b60008151116109e95760405162461bcd60e51b8152602060048201526013602482015272506c6561736520696e7365727420612055524960681b60448201526064016105f3565b60006109f4600b5490565b9050610a04600b80546001019055565b610a0e338261117d565b610a188183611197565b7302101dfb77fde026414827fdc604ddaf224f0921732d25602551487c3f3354dd80d76d54383a243358600530600080610a56868686868b86611262565b600c80546000908152600d602052604081208054336001600160a01b0319918216178255600182018c90556002820180549091166001600160a01b0386161790558254939450929190610aa8836121b1565b9190505550505050505050505050565b60606000600c5467ffffffffffffffff811115610ad757610ad7611e51565b604051908082528060200260200182016040528015610b2257816020015b6040805160608101825260008082526020808301829052928201528252600019909201910181610af55790505b50905060005b600c54811015610ba7576000818152600d6020908152604091829020825160608101845281546001600160a01b0390811682526001830154938201939093526002820154909216928201929092528351849084908110610b8a57610b8a612185565b60200260200101819052505080610ba0906121b1565b9050610b28565b50919050565b60006001600160a01b038216610c175760405162461bcd60e51b815260206004820152602960248201527f4552433732313a2061646472657373207a65726f206973206e6f7420612076616044820152683634b21037bbb732b960b91b60648201526084016105f3565b506001600160a01b031660009081526003602052604090205490565b6000838152600d602052604090205482906001600160a01b03163314610c6b5760405162461bcd60e51b81526004016105f39061213d565b6040516331a9108f60e11b81526004810183905233906001600160a01b03831690636352211e90602401602060405180830381865afa158015610cb2573d6000803e3d6000fd5b505050506040513d601f19601f82011682018060405250810190610cd691906121ca565b6001600160a01b031614610d3b5760405162461bcd60e51b815260206004820152602660248201527f43616c6c6572206d757374206265207468652063726561746f72206f6620746860448201526565206974656d60d01b60648201526084016105f3565b6001600160a01b03831673c1141d65b3ea5303bfc58453b1dc3a58fb87af0f14610db55760405162461bcd60e51b815260206004820152602560248201527f4d75737420626520636f6e74726163742061646472657373206f6620746865206044820152646974656d7360d81b60648201526084016105f3565b6000848152600d602052604090819020600201549051632142170760e11b81523360048201526001600160a01b03918216602482015260448101849052908216906342842e0e90606401600060405180830381600087803b158015610e1957600080fd5b505af1158015610e2d573d6000803e3d6000fd5b5050505050505050565b6060600180546104d5906120bc565b610e51338383611293565b5050565b610e5f3383610f8d565b610e7b5760405162461bcd60e51b81526004016105f3906120f0565b610e8784848484611361565b50505050565b60606104c082611394565b60006001600160e01b03198216632483248360e11b14806104c057506104c08261149c565b6000818152600260205260409020546001600160a01b0316610f1c5760405162461bcd60e51b8152602060048201526018602482015277115490cdcc8c4e881a5b9d985b1a59081d1bdad95b88125160421b60448201526064016105f3565b50565b600081815260046020526040902080546001600160a01b0319166001600160a01b0384169081179091558190610f5482610942565b6001600160a01b03167f8c5be1e5ebec7d5bd14f71427d1e84f3dd0314c0f7b2291e5b200ac8c7c3b92560405160405180910390a45050565b600080610f9983610942565b9050806001600160a01b0316846001600160a01b03161480610fe057506001600160a01b0380821660009081526005602090815260408083209388168352929052205460ff165b806110045750836001600160a01b0316610ff984610558565b6001600160a01b0316145b949350505050565b826001600160a01b031661101f82610942565b6001600160a01b0316146110455760405162461bcd60e51b81526004016105f3906121e7565b6001600160a01b0382166110a75760405162461bcd60e51b8152602060048201526024808201527f4552433732313a207472616e7366657220746f20746865207a65726f206164646044820152637265737360e01b60648201526084016105f3565b6110b483838360016114c1565b826001600160a01b03166110c782610942565b6001600160a01b0316146110ed5760405162461bcd60e51b81526004016105f3906121e7565b600081815260046020908152604080832080546001600160a01b03199081169091556001600160a01b0387811680865260038552838620805460001901905590871680865283862080546001019055868652600290945282852080549092168417909155905184937fddf252ad1be2c89b69c2b068fc378daa952ba7f163c4a11628f55a4df523b3ef91a4505050565b610e518282604051806020016040528060008152506114cd565b6000828152600260205260409020546001600160a01b03166112125760405162461bcd60e51b815260206004820152602e60248201527f45524337323155524953746f726167653a2055524920736574206f66206e6f6e60448201526d32bc34b9ba32b73a103a37b5b2b760911b60648201526084016105f3565b6000828152600a6020526040902061122a828261227a565b506040518281527ff8e1a15aba9398e019f0b49df1a4fde98ee17ae345cb5f6b5e2c27f5033e8ce79060200160405180910390a15050565b6000806112728787878787611500565b8051602090910120905061128783828a611569565b98975050505050505050565b816001600160a01b0316836001600160a01b0316036112f45760405162461bcd60e51b815260206004820152601960248201527f4552433732313a20617070726f766520746f2063616c6c65720000000000000060448201526064016105f3565b6001600160a01b03838116600081815260056020908152604080832094871680845294825291829020805460ff191686151590811790915591519182527f17307eab39ab6107e8899845ad3d59bd9653f200f220920489ca2b5937696c31910160405180910390a3505050565b61136c84848461100c565b61137884848484611593565b610e875760405162461bcd60e51b81526004016105f39061233a565b606061139f82610ebd565b6000828152600a6020526040812080546113b8906120bc565b80601f01602080910402602001604051908101604052809291908181526020018280546113e4906120bc565b80156114315780601f1061140657610100808354040283529160200191611431565b820191906000526020600020905b81548152906001019060200180831161141457829003601f168201915b50505050509050600061144f60408051602081019091526000815290565b90508051600003611461575092915050565b81511561149357808260405160200161147b92919061238c565b60405160208183030381529060405292505050919050565b61100484611694565b60006001600160e01b0319821663780e9d6360e01b14806104c057506104c082611708565b610e8784848484611758565b6114d7838361188c565b6114e46000848484611593565b6106945760405162461bcd60e51b81526004016105f39061233a565b60408051602081018390529081018590526001600160a01b0384166060828101919091526080820184905290869060a00160408051601f198184030181529082905261154f92916020016123bb565b604051602081830303815290604052905095945050505050565b6000604051836040820152846020820152828152600b8101905060ff815360559020949350505050565b60006001600160a01b0384163b1561168957604051630a85bd0160e11b81526001600160a01b0385169063150b7a02906115d790339089908890889060040161242a565b6020604051808303816000875af1925050508015611612575060408051601f3d908101601f1916820190925261160f91810190612467565b60015b61166f573d808015611640576040519150601f19603f3d011682016040523d82523d6000602084013e611645565b606091505b5080516000036116675760405162461bcd60e51b81526004016105f39061233a565b805181602001fd5b6001600160e01b031916630a85bd0160e11b149050611004565b506001949350505050565b606061169f82610ebd565b60006116b660408051602081019091526000815290565b905060008151116116d65760405180602001604052806000815250611701565b806116e084611a25565b6040516020016116f192919061238c565b6040516020818303038152906040525b9392505050565b60006001600160e01b031982166380ac58cd60e01b148061173957506001600160e01b03198216635b5e139f60e01b145b806104c057506301ffc9a760e01b6001600160e01b03198316146104c0565b60018111156117c75760405162461bcd60e51b815260206004820152603560248201527f455243373231456e756d657261626c653a20636f6e7365637574697665207472604482015274185b9cd9995c9cc81b9bdd081cdd5c1c1bdc9d1959605a1b60648201526084016105f3565b816001600160a01b0385166118235761181e81600880546000838152600960205260408120829055600182018355919091527ff3f7a9fe364faab93b216da50a3214154f22a0a2b415b23a84c8169e8b636ee30155565b611846565b836001600160a01b0316856001600160a01b031614611846576118468582611ab8565b6001600160a01b0384166118625761185d81611b55565b611885565b846001600160a01b0316846001600160a01b031614611885576118858482611c04565b5050505050565b6001600160a01b0382166118e25760405162461bcd60e51b815260206004820181905260248201527f4552433732313a206d696e7420746f20746865207a65726f206164647265737360448201526064016105f3565b6000818152600260205260409020546001600160a01b0316156119475760405162461bcd60e51b815260206004820152601c60248201527f4552433732313a20746f6b656e20616c7265616479206d696e7465640000000060448201526064016105f3565b6119556000838360016114c1565b6000818152600260205260409020546001600160a01b0316156119ba5760405162461bcd60e51b815260206004820152601c60248201527f4552433732313a20746f6b656e20616c7265616479206d696e7465640000000060448201526064016105f3565b6001600160a01b038216600081815260036020908152604080832080546001019055848352600290915280822080546001600160a01b0319168417905551839291907fddf252ad1be2c89b69c2b068fc378daa952ba7f163c4a11628f55a4df523b3ef908290a45050565b60606000611a3283611c48565b600101905060008167ffffffffffffffff811115611a5257611a52611e51565b6040519080825280601f01601f191660200182016040528015611a7c576020820181803683370190505b5090508181016020015b600019016f181899199a1a9b1b9c1cb0b131b232b360811b600a86061a8153600a8504945084611a8657509392505050565b60006001611ac584610bad565b611acf9190612484565b600083815260076020526040902054909150808214611b22576001600160a01b03841660009081526006602090815260408083208584528252808320548484528184208190558352600790915290208190555b5060009182526007602090815260408084208490556001600160a01b039094168352600681528383209183525290812055565b600854600090611b6790600190612484565b60008381526009602052604081205460088054939450909284908110611b8f57611b8f612185565b906000526020600020015490508060088381548110611bb057611bb0612185565b6000918252602080832090910192909255828152600990915260408082208490558582528120556008805480611be857611be8612497565b6001900381819060005260206000200160009055905550505050565b6000611c0f83610bad565b6001600160a01b039093166000908152600660209081526040808320868452825280832085905593825260079052919091209190915550565b60008072184f03e93ff9f4daa797ed6e38ed64bf6a1f0160401b8310611c875772184f03e93ff9f4daa797ed6e38ed64bf6a1f0160401b830492506040015b6d04ee2d6d415b85acef81000000008310611cb3576d04ee2d6d415b85acef8100000000830492506020015b662386f26fc100008310611cd157662386f26fc10000830492506010015b6305f5e1008310611ce9576305f5e100830492506008015b6127108310611cfd57612710830492506004015b60648310611d0f576064830492506002015b600a83106104c05760010192915050565b6001600160e01b031981168114610f1c57600080fd5b600060208284031215611d4857600080fd5b813561170181611d20565b60005b83811015611d6e578181015183820152602001611d56565b50506000910152565b60008151808452611d8f816020860160208601611d53565b601f01601f19169290920160200192915050565b6020815260006117016020830184611d77565b600060208284031215611dc857600080fd5b5035919050565b6001600160a01b0381168114610f1c57600080fd5b60008060408385031215611df757600080fd5b8235611e0281611dcf565b946020939093013593505050565b600080600060608486031215611e2557600080fd5b8335611e3081611dcf565b92506020840135611e4081611dcf565b929592945050506040919091013590565b634e487b7160e01b600052604160045260246000fd5b600067ffffffffffffffff80841115611e8257611e82611e51565b604051601f8501601f19908116603f01168101908282118183101715611eaa57611eaa611e51565b81604052809350858152868686011115611ec357600080fd5b858560208301376000602087830101525050509392505050565b600060208284031215611eef57600080fd5b813567ffffffffffffffff811115611f0657600080fd5b8201601f81018413611f1757600080fd5b61100484823560208401611e67565b602080825282518282018190526000919060409081850190868401855b82811015611f7f57815180516001600160a01b039081168652878201518887015290860151168585015260609093019290850190600101611f43565b5091979650505050505050565b600060208284031215611f9e57600080fd5b813561170181611dcf565b600080600060608486031215611fbe57600080fd5b833592506020840135611e4081611dcf565b60008060408385031215611fe357600080fd5b8235611fee81611dcf565b91506020830135801515811461200357600080fd5b809150509250929050565b6000806000806080858703121561202457600080fd5b843561202f81611dcf565b9350602085013561203f81611dcf565b925060408501359150606085013567ffffffffffffffff81111561206257600080fd5b8501601f8101871361207357600080fd5b61208287823560208401611e67565b91505092959194509250565b600080604083850312156120a157600080fd5b82356120ac81611dcf565b9150602083013561200381611dcf565b600181811c908216806120d057607f821691505b602082108103610ba757634e487b7160e01b600052602260045260246000fd5b6020808252602d908201527f4552433732313a2063616c6c6572206973206e6f7420746f6b656e206f776e6560408201526c1c881bdc88185c1c1c9bdd9959609a1b606082015260800190565b60208082526028908201527f43616c6c6572206d757374206265207468652063726561746f72206f6620746860408201526765206d656d6f727960c01b606082015260800190565b634e487b7160e01b600052603260045260246000fd5b634e487b7160e01b600052601160045260246000fd5b6000600182016121c3576121c361219b565b5060010190565b6000602082840312156121dc57600080fd5b815161170181611dcf565b60208082526025908201527f4552433732313a207472616e736665722066726f6d20696e636f72726563742060408201526437bbb732b960d91b606082015260800190565b601f82111561069457600081815260208120601f850160051c810160208610156122535750805b601f850160051c820191505b818110156122725782815560010161225f565b505050505050565b815167ffffffffffffffff81111561229457612294611e51565b6122a8816122a284546120bc565b8461222c565b602080601f8311600181146122dd57600084156122c55750858301515b600019600386901b1c1916600185901b178555612272565b600085815260208120601f198616915b8281101561230c578886015182559484019460019091019084016122ed565b508582101561232a5787850151600019600388901b60f8161c191681555b5050505050600190811b01905550565b60208082526032908201527f4552433732313a207472616e7366657220746f206e6f6e20455243373231526560408201527131b2b4bb32b91034b6b83632b6b2b73a32b960711b606082015260800190565b6000835161239e818460208801611d53565b8351908301906123b2818360208801611d53565b01949350505050565b733d60ad80600a3d3981f3363d3d373d3d3d363d7360601b8152606083901b6bffffffffffffffffffffffff191660148201526e5af43d82803e903d91602b57fd5bf360881b6028820152815160009061241c816037850160208701611d53565b919091016037019392505050565b6001600160a01b038581168252841660208201526040810183905260806060820181905260009061245d90830184611d77565b9695505050505050565b60006020828403121561247957600080fd5b815161170181611d20565b818103818111156104c0576104c061219b565b634e487b7160e01b600052603160045260246000fdfea26469706673582212209d9399a5b94b1eb9cd79695ff5a52c992c79c1f44f3b6aac1bb9d4f1916ca0c264736f6c63430008130033",
    "linkReferences": {}
  },
  "methodIdentifiers": {
    "_memories(uint256)": "b85e3c0e",
    "addItemToMemory(uint256,address,uint256)": "7486fee4",
    "approve(address,uint256)": "095ea7b3",
    "balanceOf(address)": "70a08231",
    "createMemory(string)": "63f6efec",
    "donateToMemory(uint256)": "2b4c97c8",
    "getApproved(uint256)": "081812fc",
    "getIndividualMemory(uint256)": "b99b4a81",
    "getMemories()": "64b0a7b9",
    "isApprovedForAll(address,address)": "e985e9c5",
    "name()": "06fdde03",
    "ownerOf(uint256)": "6352211e",
    "safeTransferFrom(address,address,uint256)": "42842e0e",
    "safeTransferFrom(address,address,uint256,bytes)": "b88d4fde",
    "setApprovalForAll(address,bool)": "a22cb465",
    "supportsInterface(bytes4)": "01ffc9a7",
    "symbol()": "95d89b41",
    "tokenByIndex(uint256)": "4f6ccce7",
    "tokenOfOwnerByIndex(address,uint256)": "2f745c59",
    "tokenURI(uint256)": "c87b56dd",
    "totalSupply()": "18160ddd",
    "transferFrom(address,address,uint256)": "23b872dd"
  },
  "id": 22
}