{
  "abi": [
    {
      "inputs": [],
      "stateMutability": "nonpayable",
      "type": "constructor"
    },
    {
      "anonymous": false,
      "inputs": [
        {
          "indexed": true,
          "internalType": "address",
          "name": "owner",
          "type": "address"
        },
        {
          "indexed": true,
          "internalType": "address",
          "name": "approved",
          "type": "address"
        },
        {
          "indexed": true,
          "internalType": "uint256",
          "name": "tokenId",
          "type": "uint256"
        }
      ],
      "name": "Approval",
      "type": "event"
    },
    {
      "anonymous": false,
      "inputs": [
        {
          "indexed": true,
          "internalType": "address",
          "name": "owner",
          "type": "address"
        },
        {
          "indexed": true,
          "internalType": "address",
          "name": "operator",
          "type": "address"
        },
        {
          "indexed": false,
          "internalType": "bool",
          "name": "approved",
          "type": "bool"
        }
      ],
      "name": "ApprovalForAll",
      "type": "event"
    },
    {
      "anonymous": false,
      "inputs": [
        {
          "indexed": false,
          "internalType": "uint256",
          "name": "_fromTokenId",
          "type": "uint256"
        },
        {
          "indexed": false,
          "internalType": "uint256",
          "name": "_toTokenId",
          "type": "uint256"
        }
      ],
      "name": "BatchMetadataUpdate",
      "type": "event"
    },
    {
      "anonymous": false,
      "inputs": [
        {
          "indexed": false,
          "internalType": "uint256",
          "name": "_tokenId",
          "type": "uint256"
        }
      ],
      "name": "MetadataUpdate",
      "type": "event"
    },
    {
      "anonymous": false,
      "inputs": [
        {
          "indexed": true,
          "internalType": "address",
          "name": "from",
          "type": "address"
        },
        {
          "indexed": true,
          "internalType": "address",
          "name": "to",
          "type": "address"
        },
        {
          "indexed": true,
          "internalType": "uint256",
          "name": "tokenId",
          "type": "uint256"
        }
      ],
      "name": "Transfer",
      "type": "event"
    },
    {
      "inputs": [
        {
          "internalType": "uint256",
          "name": "",
          "type": "uint256"
        }
      ],
      "name": "_memories",
      "outputs": [
        {
          "internalType": "address",
          "name": "creator",
          "type": "address"
        },
        {
          "internalType": "uint256",
          "name": "tokenId",
          "type": "uint256"
        },
        {
          "internalType": "address",
          "name": "tbaAddress",
          "type": "address"
        }
      ],
      "stateMutability": "view",
      "type": "function"
    },
    {
      "inputs": [
        {
          "internalType": "uint256",
          "name": "_tokenId",
          "type": "uint256"
        },
        {
          "internalType": "string",
          "name": "_uri",
          "type": "string"
        }
      ],
      "name": "addItemToMemory",
      "outputs": [],
      "stateMutability": "nonpayable",
      "type": "function"
    },
    {
      "inputs": [
        {
          "internalType": "address",
          "name": "to",
          "type": "address"
        },
        {
          "internalType": "uint256",
          "name": "tokenId",
          "type": "uint256"
        }
      ],
      "name": "approve",
      "outputs": [],
      "stateMutability": "nonpayable",
      "type": "function"
    },
    {
      "inputs": [
        {
          "internalType": "address",
          "name": "owner",
          "type": "address"
        }
      ],
      "name": "balanceOf",
      "outputs": [
        {
          "internalType": "uint256",
          "name": "",
          "type": "uint256"
        }
      ],
      "stateMutability": "view",
      "type": "function"
    },
    {
      "inputs": [
        {
          "internalType": "string",
          "name": "_uri",
          "type": "string"
        }
      ],
      "name": "createMemory",
      "outputs": [],
      "stateMutability": "nonpayable",
      "type": "function"
    },
    {
      "inputs": [
        {
          "internalType": "uint256",
          "name": "_tokenId",
          "type": "uint256"
        }
      ],
      "name": "donateToMemory",
      "outputs": [],
      "stateMutability": "payable",
      "type": "function"
    },
    {
      "inputs": [
        {
          "internalType": "uint256",
          "name": "tokenId",
          "type": "uint256"
        }
      ],
      "name": "getApproved",
      "outputs": [
        {
          "internalType": "address",
          "name": "",
          "type": "address"
        }
      ],
      "stateMutability": "view",
      "type": "function"
    },
    {
      "inputs": [
        {
          "internalType": "uint256",
          "name": "_tokenId",
          "type": "uint256"
        }
      ],
      "name": "getIndividualMemory",
      "outputs": [
        {
          "internalType": "address",
          "name": "",
          "type": "address"
        },
        {
          "internalType": "uint256",
          "name": "",
          "type": "uint256"
        },
        {
          "internalType": "address",
          "name": "",
          "type": "address"
        }
      ],
      "stateMutability": "view",
      "type": "function"
    },
    {
      "inputs": [],
      "name": "getMemories",
      "outputs": [
        {
          "components": [
            {
              "internalType": "address",
              "name": "creator",
              "type": "address"
            },
            {
              "internalType": "uint256",
              "name": "tokenId",
              "type": "uint256"
            },
            {
              "internalType": "address",
              "name": "tbaAddress",
              "type": "address"
            }
          ],
          "internalType": "struct ERC6551Memories.Memory[]",
          "name": "",
          "type": "tuple[]"
        }
      ],
      "stateMutability": "view",
      "type": "function"
    },
    {
      "inputs": [
        {
          "internalType": "address",
          "name": "owner",
          "type": "address"
        },
        {
          "internalType": "address",
          "name": "operator",
          "type": "address"
        }
      ],
      "name": "isApprovedForAll",
      "outputs": [
        {
          "internalType": "bool",
          "name": "",
          "type": "bool"
        }
      ],
      "stateMutability": "view",
      "type": "function"
    },
    {
      "inputs": [],
      "name": "name",
      "outputs": [
        {
          "internalType": "string",
          "name": "",
          "type": "string"
        }
      ],
      "stateMutability": "view",
      "type": "function"
    },
    {
      "inputs": [
        {
          "internalType": "uint256",
          "name": "tokenId",
          "type": "uint256"
        }
      ],
      "name": "ownerOf",
      "outputs": [
        {
          "internalType": "address",
          "name": "",
          "type": "address"
        }
      ],
      "stateMutability": "view",
      "type": "function"
    },
    {
      "inputs": [
        {
          "internalType": "address",
          "name": "from",
          "type": "address"
        },
        {
          "internalType": "address",
          "name": "to",
          "type": "address"
        },
        {
          "internalType": "uint256",
          "name": "tokenId",
          "type": "uint256"
        }
      ],
      "name": "safeTransferFrom",
      "outputs": [],
      "stateMutability": "nonpayable",
      "type": "function"
    },
    {
      "inputs": [
        {
          "internalType": "address",
          "name": "from",
          "type": "address"
        },
        {
          "internalType": "address",
          "name": "to",
          "type": "address"
        },
        {
          "internalType": "uint256",
          "name": "tokenId",
          "type": "uint256"
        },
        {
          "internalType": "bytes",
          "name": "data",
          "type": "bytes"
        }
      ],
      "name": "safeTransferFrom",
      "outputs": [],
      "stateMutability": "nonpayable",
      "type": "function"
    },
    {
      "inputs": [
        {
          "internalType": "address",
          "name": "operator",
          "type": "address"
        },
        {
          "internalType": "bool",
          "name": "approved",
          "type": "bool"
        }
      ],
      "name": "setApprovalForAll",
      "outputs": [],
      "stateMutability": "nonpayable",
      "type": "function"
    },
    {
      "inputs": [
        {
          "internalType": "bytes4",
          "name": "interfaceId",
          "type": "bytes4"
        }
      ],
      "name": "supportsInterface",
      "outputs": [
        {
          "internalType": "bool",
          "name": "",
          "type": "bool"
        }
      ],
      "stateMutability": "view",
      "type": "function"
    },
    {
      "inputs": [],
      "name": "symbol",
      "outputs": [
        {
          "internalType": "string",
          "name": "",
          "type": "string"
        }
      ],
      "stateMutability": "view",
      "type": "function"
    },
    {
      "inputs": [
        {
          "internalType": "uint256",
          "name": "index",
          "type": "uint256"
        }
      ],
      "name": "tokenByIndex",
      "outputs": [
        {
          "internalType": "uint256",
          "name": "",
          "type": "uint256"
        }
      ],
      "stateMutability": "view",
      "type": "function"
    },
    {
      "inputs": [
        {
          "internalType": "address",
          "name": "owner",
          "type": "address"
        },
        {
          "internalType": "uint256",
          "name": "index",
          "type": "uint256"
        }
      ],
      "name": "tokenOfOwnerByIndex",
      "outputs": [
        {
          "internalType": "uint256",
          "name": "",
          "type": "uint256"
        }
      ],
      "stateMutability": "view",
      "type": "function"
    },
    {
      "inputs": [
        {
          "internalType": "uint256",
          "name": "tokenId",
          "type": "uint256"
        }
      ],
      "name": "tokenURI",
      "outputs": [
        {
          "internalType": "string",
          "name": "",
          "type": "string"
        }
      ],
      "stateMutability": "view",
      "type": "function"
    },
    {
      "inputs": [],
      "name": "totalSupply",
      "outputs": [
        {
          "internalType": "uint256",
          "name": "",
          "type": "uint256"
        }
      ],
      "stateMutability": "view",
      "type": "function"
    },
    {
      "inputs": [
        {
          "internalType": "address",
          "name": "from",
          "type": "address"
        },
        {
          "internalType": "address",
          "name": "to",
          "type": "address"
        },
        {
          "internalType": "uint256",
          "name": "tokenId",
          "type": "uint256"
        }
      ],
      "name": "transferFrom",
      "outputs": [],
      "stateMutability": "nonpayable",
      "type": "function"
    }
  ],
  "bytecode": {
    "object": "0x60806040523480156200001157600080fd5b506040518060400160405280601081526020016f657263363535312d6d656d6f7269657360801b8152506040518060400160405280600381526020016245364d60e81b815250816000908162000068919062000125565b50600162000077828262000125565b505050620001f1565b634e487b7160e01b600052604160045260246000fd5b600181811c90821680620000ab57607f821691505b602082108103620000cc57634e487b7160e01b600052602260045260246000fd5b50919050565b601f8211156200012057600081815260208120601f850160051c81016020861015620000fb5750805b601f850160051c820191505b818110156200011c5782815560010162000107565b5050505b505050565b81516001600160401b0381111562000141576200014162000080565b620001598162000152845462000096565b84620000d2565b602080601f831160018114620001915760008415620001785750858301515b600019600386901b1c1916600185901b1785556200011c565b600085815260208120601f198616915b82811015620001c257888601518255948401946001909101908401620001a1565b5085821015620001e15787850151600019600388901b60f8161c191681555b5050505050600190811b01905550565b61236880620002016000396000f3fe6080604052600436106101355760003560e01c806363f6efec116100ab578063b85e3c0e1161006f578063b85e3c0e14610354578063b88d4fde146103c5578063b99b4a81146103e5578063c87b56dd1461042c578063e985e9c51461044c578063ee0245601461049557600080fd5b806363f6efec146102bd57806364b0a7b9146102dd57806370a08231146102ff57806395d89b411461031f578063a22cb4651461033457600080fd5b806323b872dd116100fd57806323b872dd1461020a5780632b4c97c81461022a5780632f745c591461023d57806342842e0e1461025d5780634f6ccce71461027d5780636352211e1461029d57600080fd5b806301ffc9a71461013a57806306fdde031461016f578063081812fc14610191578063095ea7b3146101c957806318160ddd146101eb575b600080fd5b34801561014657600080fd5b5061015a610155366004611bf7565b6104b5565b60405190151581526020015b60405180910390f35b34801561017b57600080fd5b506101846104c6565b6040516101669190611c64565b34801561019d57600080fd5b506101b16101ac366004611c77565b610558565b6040516001600160a01b039091168152602001610166565b3480156101d557600080fd5b506101e96101e4366004611cac565b61057f565b005b3480156101f757600080fd5b506008545b604051908152602001610166565b34801561021657600080fd5b506101e9610225366004611cd6565b610699565b6101e9610238366004611c77565b6106ca565b34801561024957600080fd5b506101fc610258366004611cac565b6107c8565b34801561026957600080fd5b506101e9610278366004611cd6565b61085e565b34801561028957600080fd5b506101fc610298366004611c77565b610879565b3480156102a957600080fd5b506101b16102b8366004611c77565b61090c565b3480156102c957600080fd5b506101e96102d8366004611dbe565b61096c565b3480156102e957600080fd5b506102f2610a82565b6040516101669190611df3565b34801561030b57600080fd5b506101fc61031a366004611e59565b610b77565b34801561032b57600080fd5b50610184610bfd565b34801561034057600080fd5b506101e961034f366004611e74565b610c0c565b34801561036057600080fd5b5061039b61036f366004611c77565b600d602052600090815260409020805460018201546002909201546001600160a01b0391821692911683565b604080516001600160a01b0394851681526020810193909352921691810191909152606001610166565b3480156103d157600080fd5b506101e96103e0366004611eb0565b610c1b565b3480156103f157600080fd5b5061039b610400366004611c77565b6000908152600d60205260409020805460018201546002909201546001600160a01b0391821693911690565b34801561043857600080fd5b50610184610447366004611c77565b610c53565b34801561045857600080fd5b5061015a610467366004611f2c565b6001600160a01b03918216600090815260056020908152604080832093909416825291909152205460ff1690565b3480156104a157600080fd5b506101e96104b0366004611f5f565b610c5e565b60006104c082610d59565b92915050565b6060600080546104d590611fa6565b80601f016020809104026020016040519081016040528092919081815260200182805461050190611fa6565b801561054e5780601f106105235761010080835404028352916020019161054e565b820191906000526020600020905b81548152906001019060200180831161053157829003601f168201915b5050505050905090565b600061056382610d7e565b506000908152600460205260409020546001600160a01b031690565b600061058a8261090c565b9050806001600160a01b0316836001600160a01b0316036105fc5760405162461bcd60e51b815260206004820152602160248201527f4552433732313a20617070726f76616c20746f2063757272656e74206f776e656044820152603960f91b60648201526084015b60405180910390fd5b336001600160a01b038216148061061857506106188133610467565b61068a5760405162461bcd60e51b815260206004820152603d60248201527f4552433732313a20617070726f76652063616c6c6572206973206e6f7420746f60448201527f6b656e206f776e6572206f7220617070726f76656420666f7220616c6c00000060648201526084016105f3565b6106948383610de0565b505050565b6106a33382610e4e565b6106bf5760405162461bcd60e51b81526004016105f390611fda565b610694838383610ecd565b6000818152600d60205260409020333134111561071e5760405162461bcd60e51b8152602060048201526012602482015271696e73756666696369656e742066756e647360701b60448201526064016105f3565b60028101546040516000916001600160a01b0316906108fc90349084818181858888f193505050503d8060008114610772576040519150601f19603f3d011682016040523d82523d6000602084013e610777565b606091505b50509050806106945760405162461bcd60e51b815260206004820152601a60248201527f5472616e7366657220746f2063726561746f72206661696c656400000000000060448201526064016105f3565b60006107d383610b77565b82106108355760405162461bcd60e51b815260206004820152602b60248201527f455243373231456e756d657261626c653a206f776e657220696e646578206f7560448201526a74206f6620626f756e647360a81b60648201526084016105f3565b506001600160a01b03919091166000908152600660209081526040808320938352929052205490565b61069483838360405180602001604052806000815250610c1b565b600061088460085490565b82106108e75760405162461bcd60e51b815260206004820152602c60248201527f455243373231456e756d657261626c653a20676c6f62616c20696e646578206f60448201526b7574206f6620626f756e647360a01b60648201526084016105f3565b600882815481106108fa576108fa612027565b90600052602060002001549050919050565b6000818152600260205260408120546001600160a01b0316806104c05760405162461bcd60e51b8152602060048201526018602482015277115490cdcc8c4e881a5b9d985b1a59081d1bdad95b88125160421b60448201526064016105f3565b60008151116109b35760405162461bcd60e51b8152602060048201526013602482015272506c6561736520696e7365727420612055524960681b60448201526064016105f3565b60006109be600b5490565b90506109ce600b80546001019055565b6109d8338261103e565b6109e28183611058565b7302101dfb77fde026414827fdc604ddaf224f0921732d25602551487c3f3354dd80d76d54383a243358600530600080610a20868686868b86611123565b600c80546000908152600d602052604081208054336001600160a01b0319918216178255600182018c90556002820180549091166001600160a01b0386161790558254939450929190610a7283612053565b9190505550505050505050505050565b60606000600c5467ffffffffffffffff811115610aa157610aa1611d12565b604051908082528060200260200182016040528015610aec57816020015b6040805160608101825260008082526020808301829052928201528252600019909201910181610abf5790505b50905060005b600c54811015610b71576000818152600d6020908152604091829020825160608101845281546001600160a01b0390811682526001830154938201939093526002820154909216928201929092528351849084908110610b5457610b54612027565b60200260200101819052505080610b6a90612053565b9050610af2565b50919050565b60006001600160a01b038216610be15760405162461bcd60e51b815260206004820152602960248201527f4552433732313a2061646472657373207a65726f206973206e6f7420612076616044820152683634b21037bbb732b960b91b60648201526084016105f3565b506001600160a01b031660009081526003602052604090205490565b6060600180546104d590611fa6565b610c17338383611154565b5050565b610c253383610e4e565b610c415760405162461bcd60e51b81526004016105f390611fda565b610c4d84848484611222565b50505050565b60606104c082611255565b6000815111610ca55760405162461bcd60e51b8152602060048201526013602482015272506c6561736520696e7365727420612055524960681b60448201526064016105f3565b6000610cb0600b5490565b9050610cc0600b80546001019055565b610cca338261103e565b610cd48183611058565b6000838152600d60205260409081902060028101549151632142170760e11b81523360048201526001600160a01b0390921660248301526044820183905290309081906342842e0e90606401600060405180830381600087803b158015610d3a57600080fd5b505af1158015610d4e573d6000803e3d6000fd5b505050505050505050565b60006001600160e01b03198216632483248360e11b14806104c057506104c08261135d565b6000818152600260205260409020546001600160a01b0316610ddd5760405162461bcd60e51b8152602060048201526018602482015277115490cdcc8c4e881a5b9d985b1a59081d1bdad95b88125160421b60448201526064016105f3565b50565b600081815260046020526040902080546001600160a01b0319166001600160a01b0384169081179091558190610e158261090c565b6001600160a01b03167f8c5be1e5ebec7d5bd14f71427d1e84f3dd0314c0f7b2291e5b200ac8c7c3b92560405160405180910390a45050565b600080610e5a8361090c565b9050806001600160a01b0316846001600160a01b03161480610ea157506001600160a01b0380821660009081526005602090815260408083209388168352929052205460ff165b80610ec55750836001600160a01b0316610eba84610558565b6001600160a01b0316145b949350505050565b826001600160a01b0316610ee08261090c565b6001600160a01b031614610f065760405162461bcd60e51b81526004016105f39061206c565b6001600160a01b038216610f685760405162461bcd60e51b8152602060048201526024808201527f4552433732313a207472616e7366657220746f20746865207a65726f206164646044820152637265737360e01b60648201526084016105f3565b610f758383836001611382565b826001600160a01b0316610f888261090c565b6001600160a01b031614610fae5760405162461bcd60e51b81526004016105f39061206c565b600081815260046020908152604080832080546001600160a01b03199081169091556001600160a01b0387811680865260038552838620805460001901905590871680865283862080546001019055868652600290945282852080549092168417909155905184937fddf252ad1be2c89b69c2b068fc378daa952ba7f163c4a11628f55a4df523b3ef91a4505050565b610c1782826040518060200160405280600081525061138e565b6000828152600260205260409020546001600160a01b03166110d35760405162461bcd60e51b815260206004820152602e60248201527f45524337323155524953746f726167653a2055524920736574206f66206e6f6e60448201526d32bc34b9ba32b73a103a37b5b2b760911b60648201526084016105f3565b6000828152600a602052604090206110eb82826120ff565b506040518281527ff8e1a15aba9398e019f0b49df1a4fde98ee17ae345cb5f6b5e2c27f5033e8ce79060200160405180910390a15050565b60008061113387878787876113c1565b8051602090910120905061114883828a61142a565b98975050505050505050565b816001600160a01b0316836001600160a01b0316036111b55760405162461bcd60e51b815260206004820152601960248201527f4552433732313a20617070726f766520746f2063616c6c65720000000000000060448201526064016105f3565b6001600160a01b03838116600081815260056020908152604080832094871680845294825291829020805460ff191686151590811790915591519182527f17307eab39ab6107e8899845ad3d59bd9653f200f220920489ca2b5937696c31910160405180910390a3505050565b61122d848484610ecd565b61123984848484611454565b610c4d5760405162461bcd60e51b81526004016105f3906121bf565b606061126082610d7e565b6000828152600a60205260408120805461127990611fa6565b80601f01602080910402602001604051908101604052809291908181526020018280546112a590611fa6565b80156112f25780601f106112c7576101008083540402835291602001916112f2565b820191906000526020600020905b8154815290600101906020018083116112d557829003601f168201915b50505050509050600061131060408051602081019091526000815290565b90508051600003611322575092915050565b81511561135457808260405160200161133c929190612211565b60405160208183030381529060405292505050919050565b610ec584611555565b60006001600160e01b0319821663780e9d6360e01b14806104c057506104c0826115c9565b610c4d84848484611619565b611398838361174d565b6113a56000848484611454565b6106945760405162461bcd60e51b81526004016105f3906121bf565b60408051602081018390529081018590526001600160a01b0384166060828101919091526080820184905290869060a00160408051601f19818403018152908290526114109291602001612240565b604051602081830303815290604052905095945050505050565b6000604051836040820152846020820152828152600b8101905060ff815360559020949350505050565b60006001600160a01b0384163b1561154a57604051630a85bd0160e11b81526001600160a01b0385169063150b7a02906114989033908990889088906004016122af565b6020604051808303816000875af19250505080156114d3575060408051601f3d908101601f191682019092526114d0918101906122ec565b60015b611530573d808015611501576040519150601f19603f3d011682016040523d82523d6000602084013e611506565b606091505b5080516000036115285760405162461bcd60e51b81526004016105f3906121bf565b805181602001fd5b6001600160e01b031916630a85bd0160e11b149050610ec5565b506001949350505050565b606061156082610d7e565b600061157760408051602081019091526000815290565b9050600081511161159757604051806020016040528060008152506115c2565b806115a1846118e6565b6040516020016115b2929190612211565b6040516020818303038152906040525b9392505050565b60006001600160e01b031982166380ac58cd60e01b14806115fa57506001600160e01b03198216635b5e139f60e01b145b806104c057506301ffc9a760e01b6001600160e01b03198316146104c0565b60018111156116885760405162461bcd60e51b815260206004820152603560248201527f455243373231456e756d657261626c653a20636f6e7365637574697665207472604482015274185b9cd9995c9cc81b9bdd081cdd5c1c1bdc9d1959605a1b60648201526084016105f3565b816001600160a01b0385166116e4576116df81600880546000838152600960205260408120829055600182018355919091527ff3f7a9fe364faab93b216da50a3214154f22a0a2b415b23a84c8169e8b636ee30155565b611707565b836001600160a01b0316856001600160a01b031614611707576117078582611979565b6001600160a01b0384166117235761171e81611a16565b611746565b846001600160a01b0316846001600160a01b031614611746576117468482611ac5565b5050505050565b6001600160a01b0382166117a35760405162461bcd60e51b815260206004820181905260248201527f4552433732313a206d696e7420746f20746865207a65726f206164647265737360448201526064016105f3565b6000818152600260205260409020546001600160a01b0316156118085760405162461bcd60e51b815260206004820152601c60248201527f4552433732313a20746f6b656e20616c7265616479206d696e7465640000000060448201526064016105f3565b611816600083836001611382565b6000818152600260205260409020546001600160a01b03161561187b5760405162461bcd60e51b815260206004820152601c60248201527f4552433732313a20746f6b656e20616c7265616479206d696e7465640000000060448201526064016105f3565b6001600160a01b038216600081815260036020908152604080832080546001019055848352600290915280822080546001600160a01b0319168417905551839291907fddf252ad1be2c89b69c2b068fc378daa952ba7f163c4a11628f55a4df523b3ef908290a45050565b606060006118f383611b09565b600101905060008167ffffffffffffffff81111561191357611913611d12565b6040519080825280601f01601f19166020018201604052801561193d576020820181803683370190505b5090508181016020015b600019016f181899199a1a9b1b9c1cb0b131b232b360811b600a86061a8153600a850494508461194757509392505050565b6000600161198684610b77565b6119909190612309565b6000838152600760205260409020549091508082146119e3576001600160a01b03841660009081526006602090815260408083208584528252808320548484528184208190558352600790915290208190555b5060009182526007602090815260408084208490556001600160a01b039094168352600681528383209183525290812055565b600854600090611a2890600190612309565b60008381526009602052604081205460088054939450909284908110611a5057611a50612027565b906000526020600020015490508060088381548110611a7157611a71612027565b6000918252602080832090910192909255828152600990915260408082208490558582528120556008805480611aa957611aa961231c565b6001900381819060005260206000200160009055905550505050565b6000611ad083610b77565b6001600160a01b039093166000908152600660209081526040808320868452825280832085905593825260079052919091209190915550565b60008072184f03e93ff9f4daa797ed6e38ed64bf6a1f0160401b8310611b485772184f03e93ff9f4daa797ed6e38ed64bf6a1f0160401b830492506040015b6d04ee2d6d415b85acef81000000008310611b74576d04ee2d6d415b85acef8100000000830492506020015b662386f26fc100008310611b9257662386f26fc10000830492506010015b6305f5e1008310611baa576305f5e100830492506008015b6127108310611bbe57612710830492506004015b60648310611bd0576064830492506002015b600a83106104c05760010192915050565b6001600160e01b031981168114610ddd57600080fd5b600060208284031215611c0957600080fd5b81356115c281611be1565b60005b83811015611c2f578181015183820152602001611c17565b50506000910152565b60008151808452611c50816020860160208601611c14565b601f01601f19169290920160200192915050565b6020815260006115c26020830184611c38565b600060208284031215611c8957600080fd5b5035919050565b80356001600160a01b0381168114611ca757600080fd5b919050565b60008060408385031215611cbf57600080fd5b611cc883611c90565b946020939093013593505050565b600080600060608486031215611ceb57600080fd5b611cf484611c90565b9250611d0260208501611c90565b9150604084013590509250925092565b634e487b7160e01b600052604160045260246000fd5b600067ffffffffffffffff80841115611d4357611d43611d12565b604051601f8501601f19908116603f01168101908282118183101715611d6b57611d6b611d12565b81604052809350858152868686011115611d8457600080fd5b858560208301376000602087830101525050509392505050565b600082601f830112611daf57600080fd5b6115c283833560208501611d28565b600060208284031215611dd057600080fd5b813567ffffffffffffffff811115611de757600080fd5b610ec584828501611d9e565b602080825282518282018190526000919060409081850190868401855b82811015611e4c57815180516001600160a01b039081168652878201518887015290860151168585015260609093019290850190600101611e10565b5091979650505050505050565b600060208284031215611e6b57600080fd5b6115c282611c90565b60008060408385031215611e8757600080fd5b611e9083611c90565b915060208301358015158114611ea557600080fd5b809150509250929050565b60008060008060808587031215611ec657600080fd5b611ecf85611c90565b9350611edd60208601611c90565b925060408501359150606085013567ffffffffffffffff811115611f0057600080fd5b8501601f81018713611f1157600080fd5b611f2087823560208401611d28565b91505092959194509250565b60008060408385031215611f3f57600080fd5b611f4883611c90565b9150611f5660208401611c90565b90509250929050565b60008060408385031215611f7257600080fd5b82359150602083013567ffffffffffffffff811115611f9057600080fd5b611f9c85828601611d9e565b9150509250929050565b600181811c90821680611fba57607f821691505b602082108103610b7157634e487b7160e01b600052602260045260246000fd5b6020808252602d908201527f4552433732313a2063616c6c6572206973206e6f7420746f6b656e206f776e6560408201526c1c881bdc88185c1c1c9bdd9959609a1b606082015260800190565b634e487b7160e01b600052603260045260246000fd5b634e487b7160e01b600052601160045260246000fd5b6000600182016120655761206561203d565b5060010190565b60208082526025908201527f4552433732313a207472616e736665722066726f6d20696e636f72726563742060408201526437bbb732b960d91b606082015260800190565b601f82111561069457600081815260208120601f850160051c810160208610156120d85750805b601f850160051c820191505b818110156120f7578281556001016120e4565b505050505050565b815167ffffffffffffffff81111561211957612119611d12565b61212d816121278454611fa6565b846120b1565b602080601f831160018114612162576000841561214a5750858301515b600019600386901b1c1916600185901b1785556120f7565b600085815260208120601f198616915b8281101561219157888601518255948401946001909101908401612172565b50858210156121af5787850151600019600388901b60f8161c191681555b5050505050600190811b01905550565b60208082526032908201527f4552433732313a207472616e7366657220746f206e6f6e20455243373231526560408201527131b2b4bb32b91034b6b83632b6b2b73a32b960711b606082015260800190565b60008351612223818460208801611c14565b835190830190612237818360208801611c14565b01949350505050565b733d60ad80600a3d3981f3363d3d373d3d3d363d7360601b8152606083901b6bffffffffffffffffffffffff191660148201526e5af43d82803e903d91602b57fd5bf360881b602882015281516000906122a1816037850160208701611c14565b919091016037019392505050565b6001600160a01b03858116825284166020820152604081018390526080606082018190526000906122e290830184611c38565b9695505050505050565b6000602082840312156122fe57600080fd5b81516115c281611be1565b818103818111156104c0576104c061203d565b634e487b7160e01b600052603160045260246000fdfea26469706673582212207a096d7239823dad2c34a1f1fb9e64db6fde5655e9e5721bff8311f267728bb064736f6c63430008130033",
    "linkReferences": {}
  },
  "methodIdentifiers": {
    "_memories(uint256)": "b85e3c0e",
    "addItemToMemory(uint256,string)": "ee024560",
    "approve(address,uint256)": "095ea7b3",
    "balanceOf(address)": "70a08231",
    "createMemory(string)": "63f6efec",
    "donateToMemory(uint256)": "2b4c97c8",
    "getApproved(uint256)": "081812fc",
    "getIndividualMemory(uint256)": "b99b4a81",
    "getMemories()": "64b0a7b9",
    "isApprovedForAll(address,address)": "e985e9c5",
    "name()": "06fdde03",
    "ownerOf(uint256)": "6352211e",
    "safeTransferFrom(address,address,uint256)": "42842e0e",
    "safeTransferFrom(address,address,uint256,bytes)": "b88d4fde",
    "setApprovalForAll(address,bool)": "a22cb465",
    "supportsInterface(bytes4)": "01ffc9a7",
    "symbol()": "95d89b41",
    "tokenByIndex(uint256)": "4f6ccce7",
    "tokenOfOwnerByIndex(address,uint256)": "2f745c59",
    "tokenURI(uint256)": "c87b56dd",
    "totalSupply()": "18160ddd",
    "transferFrom(address,address,uint256)": "23b872dd"
  },
  "id": 22
}