{
  "abi": [
    {
      "inputs": [],
      "stateMutability": "nonpayable",
      "type": "constructor"
    },
    {
      "anonymous": false,
      "inputs": [
        {
          "indexed": true,
          "internalType": "address",
          "name": "owner",
          "type": "address"
        },
        {
          "indexed": true,
          "internalType": "address",
          "name": "approved",
          "type": "address"
        },
        {
          "indexed": true,
          "internalType": "uint256",
          "name": "tokenId",
          "type": "uint256"
        }
      ],
      "name": "Approval",
      "type": "event"
    },
    {
      "anonymous": false,
      "inputs": [
        {
          "indexed": true,
          "internalType": "address",
          "name": "owner",
          "type": "address"
        },
        {
          "indexed": true,
          "internalType": "address",
          "name": "operator",
          "type": "address"
        },
        {
          "indexed": false,
          "internalType": "bool",
          "name": "approved",
          "type": "bool"
        }
      ],
      "name": "ApprovalForAll",
      "type": "event"
    },
    {
      "anonymous": false,
      "inputs": [
        {
          "indexed": false,
          "internalType": "uint256",
          "name": "_fromTokenId",
          "type": "uint256"
        },
        {
          "indexed": false,
          "internalType": "uint256",
          "name": "_toTokenId",
          "type": "uint256"
        }
      ],
      "name": "BatchMetadataUpdate",
      "type": "event"
    },
    {
      "anonymous": false,
      "inputs": [
        {
          "indexed": false,
          "internalType": "uint256",
          "name": "_tokenId",
          "type": "uint256"
        }
      ],
      "name": "MetadataUpdate",
      "type": "event"
    },
    {
      "anonymous": false,
      "inputs": [
        {
          "indexed": true,
          "internalType": "address",
          "name": "previousOwner",
          "type": "address"
        },
        {
          "indexed": true,
          "internalType": "address",
          "name": "newOwner",
          "type": "address"
        }
      ],
      "name": "OwnershipTransferred",
      "type": "event"
    },
    {
      "anonymous": false,
      "inputs": [
        {
          "indexed": true,
          "internalType": "address",
          "name": "from",
          "type": "address"
        },
        {
          "indexed": true,
          "internalType": "address",
          "name": "to",
          "type": "address"
        },
        {
          "indexed": true,
          "internalType": "uint256",
          "name": "tokenId",
          "type": "uint256"
        }
      ],
      "name": "Transfer",
      "type": "event"
    },
    {
      "inputs": [
        {
          "internalType": "uint256",
          "name": "",
          "type": "uint256"
        }
      ],
      "name": "_memories",
      "outputs": [
        {
          "internalType": "uint256",
          "name": "id",
          "type": "uint256"
        },
        {
          "internalType": "address",
          "name": "creator",
          "type": "address"
        },
        {
          "internalType": "uint256",
          "name": "tokenId",
          "type": "uint256"
        },
        {
          "internalType": "address",
          "name": "tbaAddress",
          "type": "address"
        }
      ],
      "stateMutability": "view",
      "type": "function"
    },
    {
      "inputs": [
        {
          "internalType": "uint256",
          "name": "_id",
          "type": "uint256"
        },
        {
          "internalType": "string",
          "name": "_uri",
          "type": "string"
        },
        {
          "internalType": "string",
          "name": "_itemIpfsHash",
          "type": "string"
        }
      ],
      "name": "addItemToMemory",
      "outputs": [],
      "stateMutability": "nonpayable",
      "type": "function"
    },
    {
      "inputs": [
        {
          "internalType": "address",
          "name": "to",
          "type": "address"
        },
        {
          "internalType": "uint256",
          "name": "tokenId",
          "type": "uint256"
        }
      ],
      "name": "approve",
      "outputs": [],
      "stateMutability": "nonpayable",
      "type": "function"
    },
    {
      "inputs": [
        {
          "internalType": "address",
          "name": "owner",
          "type": "address"
        }
      ],
      "name": "balanceOf",
      "outputs": [
        {
          "internalType": "uint256",
          "name": "",
          "type": "uint256"
        }
      ],
      "stateMutability": "view",
      "type": "function"
    },
    {
      "inputs": [
        {
          "internalType": "string",
          "name": "_uri",
          "type": "string"
        }
      ],
      "name": "createMemory",
      "outputs": [],
      "stateMutability": "nonpayable",
      "type": "function"
    },
    {
      "inputs": [
        {
          "internalType": "uint256",
          "name": "_id",
          "type": "uint256"
        }
      ],
      "name": "donateToMemory",
      "outputs": [],
      "stateMutability": "payable",
      "type": "function"
    },
    {
      "inputs": [
        {
          "internalType": "uint256",
          "name": "tokenId",
          "type": "uint256"
        }
      ],
      "name": "getApproved",
      "outputs": [
        {
          "internalType": "address",
          "name": "",
          "type": "address"
        }
      ],
      "stateMutability": "view",
      "type": "function"
    },
    {
      "inputs": [],
      "name": "getMemories",
      "outputs": [
        {
          "components": [
            {
              "internalType": "uint256",
              "name": "id",
              "type": "uint256"
            },
            {
              "internalType": "address",
              "name": "creator",
              "type": "address"
            },
            {
              "internalType": "uint256",
              "name": "tokenId",
              "type": "uint256"
            },
            {
              "internalType": "address",
              "name": "tbaAddress",
              "type": "address"
            }
          ],
          "internalType": "struct ERC6551Memories.Memory[]",
          "name": "",
          "type": "tuple[]"
        }
      ],
      "stateMutability": "view",
      "type": "function"
    },
    {
      "inputs": [
        {
          "internalType": "address",
          "name": "owner",
          "type": "address"
        },
        {
          "internalType": "address",
          "name": "operator",
          "type": "address"
        }
      ],
      "name": "isApprovedForAll",
      "outputs": [
        {
          "internalType": "bool",
          "name": "",
          "type": "bool"
        }
      ],
      "stateMutability": "view",
      "type": "function"
    },
    {
      "inputs": [],
      "name": "name",
      "outputs": [
        {
          "internalType": "string",
          "name": "",
          "type": "string"
        }
      ],
      "stateMutability": "view",
      "type": "function"
    },
    {
      "inputs": [],
      "name": "owner",
      "outputs": [
        {
          "internalType": "address",
          "name": "",
          "type": "address"
        }
      ],
      "stateMutability": "view",
      "type": "function"
    },
    {
      "inputs": [
        {
          "internalType": "uint256",
          "name": "tokenId",
          "type": "uint256"
        }
      ],
      "name": "ownerOf",
      "outputs": [
        {
          "internalType": "address",
          "name": "",
          "type": "address"
        }
      ],
      "stateMutability": "view",
      "type": "function"
    },
    {
      "inputs": [],
      "name": "renounceOwnership",
      "outputs": [],
      "stateMutability": "nonpayable",
      "type": "function"
    },
    {
      "inputs": [
        {
          "internalType": "address",
          "name": "from",
          "type": "address"
        },
        {
          "internalType": "address",
          "name": "to",
          "type": "address"
        },
        {
          "internalType": "uint256",
          "name": "tokenId",
          "type": "uint256"
        }
      ],
      "name": "safeTransferFrom",
      "outputs": [],
      "stateMutability": "nonpayable",
      "type": "function"
    },
    {
      "inputs": [
        {
          "internalType": "address",
          "name": "from",
          "type": "address"
        },
        {
          "internalType": "address",
          "name": "to",
          "type": "address"
        },
        {
          "internalType": "uint256",
          "name": "tokenId",
          "type": "uint256"
        },
        {
          "internalType": "bytes",
          "name": "data",
          "type": "bytes"
        }
      ],
      "name": "safeTransferFrom",
      "outputs": [],
      "stateMutability": "nonpayable",
      "type": "function"
    },
    {
      "inputs": [
        {
          "internalType": "address",
          "name": "operator",
          "type": "address"
        },
        {
          "internalType": "bool",
          "name": "approved",
          "type": "bool"
        }
      ],
      "name": "setApprovalForAll",
      "outputs": [],
      "stateMutability": "nonpayable",
      "type": "function"
    },
    {
      "inputs": [
        {
          "internalType": "bytes4",
          "name": "interfaceId",
          "type": "bytes4"
        }
      ],
      "name": "supportsInterface",
      "outputs": [
        {
          "internalType": "bool",
          "name": "",
          "type": "bool"
        }
      ],
      "stateMutability": "view",
      "type": "function"
    },
    {
      "inputs": [],
      "name": "symbol",
      "outputs": [
        {
          "internalType": "string",
          "name": "",
          "type": "string"
        }
      ],
      "stateMutability": "view",
      "type": "function"
    },
    {
      "inputs": [
        {
          "internalType": "uint256",
          "name": "index",
          "type": "uint256"
        }
      ],
      "name": "tokenByIndex",
      "outputs": [
        {
          "internalType": "uint256",
          "name": "",
          "type": "uint256"
        }
      ],
      "stateMutability": "view",
      "type": "function"
    },
    {
      "inputs": [
        {
          "internalType": "address",
          "name": "owner",
          "type": "address"
        },
        {
          "internalType": "uint256",
          "name": "index",
          "type": "uint256"
        }
      ],
      "name": "tokenOfOwnerByIndex",
      "outputs": [
        {
          "internalType": "uint256",
          "name": "",
          "type": "uint256"
        }
      ],
      "stateMutability": "view",
      "type": "function"
    },
    {
      "inputs": [
        {
          "internalType": "uint256",
          "name": "tokenId",
          "type": "uint256"
        }
      ],
      "name": "tokenURI",
      "outputs": [
        {
          "internalType": "string",
          "name": "",
          "type": "string"
        }
      ],
      "stateMutability": "view",
      "type": "function"
    },
    {
      "inputs": [],
      "name": "totalSupply",
      "outputs": [
        {
          "internalType": "uint256",
          "name": "",
          "type": "uint256"
        }
      ],
      "stateMutability": "view",
      "type": "function"
    },
    {
      "inputs": [
        {
          "internalType": "address",
          "name": "from",
          "type": "address"
        },
        {
          "internalType": "address",
          "name": "to",
          "type": "address"
        },
        {
          "internalType": "uint256",
          "name": "tokenId",
          "type": "uint256"
        }
      ],
      "name": "transferFrom",
      "outputs": [],
      "stateMutability": "nonpayable",
      "type": "function"
    },
    {
      "inputs": [
        {
          "internalType": "address",
          "name": "newOwner",
          "type": "address"
        }
      ],
      "name": "transferOwnership",
      "outputs": [],
      "stateMutability": "nonpayable",
      "type": "function"
    }
  ],
  "bytecode": {
    "object": "0x60806040523480156200001157600080fd5b506040518060400160405280601081526020016f657263363535312d6d656d6f7269657360801b8152506040518060400160405280600381526020016245364d60e81b815250816000908162000068919062000195565b50600162000077828262000195565b505050620000946200008e6200009a60201b60201c565b6200009e565b62000261565b3390565b600b80546001600160a01b038381166001600160a01b0319831681179093556040519116919082907f8be0079c531659141344cd1fd0a4f28419497f9722a3daafe3b4186f6b6457e090600090a35050565b634e487b7160e01b600052604160045260246000fd5b600181811c908216806200011b57607f821691505b6020821081036200013c57634e487b7160e01b600052602260045260246000fd5b50919050565b601f8211156200019057600081815260208120601f850160051c810160208610156200016b5750805b601f850160051c820191505b818110156200018c5782815560010162000177565b5050505b505050565b81516001600160401b03811115620001b157620001b1620000f0565b620001c981620001c2845462000106565b8462000142565b602080601f831160018114620002015760008415620001e85750858301515b600019600386901b1c1916600185901b1785556200018c565b600085815260208120601f198616915b82811015620002325788860151825594840194600190910190840162000211565b5085821015620002515787850151600019600388901b60f8161c191681555b5050505050600190811b01905550565b61256a80620002716000396000f3fe60806040526004361061014b5760003560e01c806364b0a7b9116100b6578063b85e3c0e1161006f578063b85e3c0e1461039d578063b88d4fde14610417578063c87b56dd14610437578063e985e9c514610457578063ec736cff146104a0578063f2fde38b146104c057600080fd5b806364b0a7b9146102f357806370a0823114610315578063715018a6146103355780638da5cb5b1461034a57806395d89b4114610368578063a22cb4651461037d57600080fd5b80632b4c97c8116101085780632b4c97c8146102405780632f745c591461025357806342842e0e146102735780634f6ccce7146102935780636352211e146102b357806363f6efec146102d357600080fd5b806301ffc9a71461015057806306fdde0314610185578063081812fc146101a7578063095ea7b3146101df57806318160ddd1461020157806323b872dd14610220575b600080fd5b34801561015c57600080fd5b5061017061016b366004611dc9565b6104e0565b60405190151581526020015b60405180910390f35b34801561019157600080fd5b5061019a6104f1565b60405161017c9190611e36565b3480156101b357600080fd5b506101c76101c2366004611e49565b610583565b6040516001600160a01b03909116815260200161017c565b3480156101eb57600080fd5b506101ff6101fa366004611e7e565b6105aa565b005b34801561020d57600080fd5b506008545b60405190815260200161017c565b34801561022c57600080fd5b506101ff61023b366004611ea8565b6106c4565b6101ff61024e366004611e49565b6106f5565b34801561025f57600080fd5b5061021261026e366004611e7e565b6107f3565b34801561027f57600080fd5b506101ff61028e366004611ea8565b610889565b34801561029f57600080fd5b506102126102ae366004611e49565b6108a4565b3480156102bf57600080fd5b506101c76102ce366004611e49565b610937565b3480156102df57600080fd5b506101ff6102ee366004611f90565b610997565b3480156102ff57600080fd5b50610308610ab8565b60405161017c9190611fc5565b34801561032157600080fd5b50610212610330366004612035565b610bc1565b34801561034157600080fd5b506101ff610c47565b34801561035657600080fd5b50600b546001600160a01b03166101c7565b34801561037457600080fd5b5061019a610c5b565b34801561038957600080fd5b506101ff610398366004612050565b610c6a565b3480156103a957600080fd5b506103ec6103b8366004611e49565b600e60205260009081526040902080546001820154600283015460039093015491926001600160a01b039182169290911684565b604080519485526001600160a01b03938416602086015284019190915216606082015260800161017c565b34801561042357600080fd5b506101ff61043236600461208c565b610c79565b34801561044357600080fd5b5061019a610452366004611e49565b610cb1565b34801561046357600080fd5b50610170610472366004612108565b6001600160a01b03918216600090815260056020908152604080832093909416825291909152205460ff1690565b3480156104ac57600080fd5b506101ff6104bb36600461213b565b610cbc565b3480156104cc57600080fd5b506101ff6104db366004612035565b610e09565b60006104eb82610e82565b92915050565b606060008054610500906121a8565b80601f016020809104026020016040519081016040528092919081815260200182805461052c906121a8565b80156105795780601f1061054e57610100808354040283529160200191610579565b820191906000526020600020905b81548152906001019060200180831161055c57829003601f168201915b5050505050905090565b600061058e82610ea7565b506000908152600460205260409020546001600160a01b031690565b60006105b582610937565b9050806001600160a01b0316836001600160a01b0316036106275760405162461bcd60e51b815260206004820152602160248201527f4552433732313a20617070726f76616c20746f2063757272656e74206f776e656044820152603960f91b60648201526084015b60405180910390fd5b336001600160a01b038216148061064357506106438133610472565b6106b55760405162461bcd60e51b815260206004820152603d60248201527f4552433732313a20617070726f76652063616c6c6572206973206e6f7420746f60448201527f6b656e206f776e6572206f7220617070726f76656420666f7220616c6c000000606482015260840161061e565b6106bf8383610f06565b505050565b6106ce3382610f74565b6106ea5760405162461bcd60e51b815260040161061e906121dc565b6106bf838383610ff3565b6000818152600e6020526040902033313411156107495760405162461bcd60e51b8152602060048201526012602482015271696e73756666696369656e742066756e647360701b604482015260640161061e565b60038101546040516000916001600160a01b0316906108fc90349084818181858888f193505050503d806000811461079d576040519150601f19603f3d011682016040523d82523d6000602084013e6107a2565b606091505b50509050806106bf5760405162461bcd60e51b815260206004820152601a60248201527f5472616e7366657220746f2063726561746f72206661696c6564000000000000604482015260640161061e565b60006107fe83610bc1565b82106108605760405162461bcd60e51b815260206004820152602b60248201527f455243373231456e756d657261626c653a206f776e657220696e646578206f7560448201526a74206f6620626f756e647360a81b606482015260840161061e565b506001600160a01b03919091166000908152600660209081526040808320938352929052205490565b6106bf83838360405180602001604052806000815250610c79565b60006108af60085490565b82106109125760405162461bcd60e51b815260206004820152602c60248201527f455243373231456e756d657261626c653a20676c6f62616c20696e646578206f60448201526b7574206f6620626f756e647360a01b606482015260840161061e565b6008828154811061092557610925612229565b90600052602060002001549050919050565b6000818152600260205260408120546001600160a01b0316806104eb5760405162461bcd60e51b8152602060048201526018602482015277115490cdcc8c4e881a5b9d985b1a59081d1bdad95b88125160421b604482015260640161061e565b60008151116109de5760405162461bcd60e51b8152602060048201526013602482015272506c6561736520696e7365727420612055524960681b604482015260640161061e565b60006109e9600c5490565b90506109f9600c80546001019055565b610a033382611164565b610a0d818361117e565b7302101dfb77fde026414827fdc604ddaf224f0921732d25602551487c3f3354dd80d76d54383a24335862aa36a730600080610a4d868686868b86611249565b600d80546000818152600e60205260408120918255600182018054336001600160a01b031991821617909155600283018c90556003830180549091166001600160a01b038616179055825493945090929190610aa883612255565b9190505550505050505050505050565b60606000600d5467ffffffffffffffff811115610ad757610ad7611ee4565b604051908082528060200260200182016040528015610b2957816020015b604080516080810182526000808252602080830182905292820181905260608201528252600019909201910181610af55790505b50905060005b600d54811015610bbb576000818152600e602090815260409182902082516080810184528154815260018201546001600160a01b0390811693820193909352600282015493810193909352600381015490911660608301528351909190849084908110610b9e57610b9e612229565b60200260200101819052505080610bb490612255565b9050610b2f565b50919050565b60006001600160a01b038216610c2b5760405162461bcd60e51b815260206004820152602960248201527f4552433732313a2061646472657373207a65726f206973206e6f7420612076616044820152683634b21037bbb732b960b91b606482015260840161061e565b506001600160a01b031660009081526003602052604090205490565b610c4f61127a565b610c5960006112d4565b565b606060018054610500906121a8565b610c75338383611326565b5050565b610c833383610f74565b610c9f5760405162461bcd60e51b815260040161061e906121dc565b610cab848484846113f4565b50505050565b60606104eb82611427565b6000825111610d035760405162461bcd60e51b8152602060048201526013602482015272506c6561736520696e7365727420612055524960681b604482015260640161061e565b6000815111610d545760405162461bcd60e51b815260206004820152601f60248201527f506c6561736520696e7365727420616e206974656d2069706673206861736800604482015260640161061e565b6000610d5f600c5490565b9050610d6f600c80546001019055565b610d793382611164565b610d83818461117e565b6000848152600e60205260409081902060038101549151632142170760e11b81523360048201526001600160a01b0390921660248301526044820183905290309081906342842e0e90606401600060405180830381600087803b158015610de957600080fd5b505af1158015610dfd573d6000803e3d6000fd5b50505050505050505050565b610e1161127a565b6001600160a01b038116610e765760405162461bcd60e51b815260206004820152602660248201527f4f776e61626c653a206e6577206f776e657220697320746865207a65726f206160448201526564647265737360d01b606482015260840161061e565b610e7f816112d4565b50565b60006001600160e01b03198216632483248360e11b14806104eb57506104eb8261152f565b6000818152600260205260409020546001600160a01b0316610e7f5760405162461bcd60e51b8152602060048201526018602482015277115490cdcc8c4e881a5b9d985b1a59081d1bdad95b88125160421b604482015260640161061e565b600081815260046020526040902080546001600160a01b0319166001600160a01b0384169081179091558190610f3b82610937565b6001600160a01b03167f8c5be1e5ebec7d5bd14f71427d1e84f3dd0314c0f7b2291e5b200ac8c7c3b92560405160405180910390a45050565b600080610f8083610937565b9050806001600160a01b0316846001600160a01b03161480610fc757506001600160a01b0380821660009081526005602090815260408083209388168352929052205460ff165b80610feb5750836001600160a01b0316610fe084610583565b6001600160a01b0316145b949350505050565b826001600160a01b031661100682610937565b6001600160a01b03161461102c5760405162461bcd60e51b815260040161061e9061226e565b6001600160a01b03821661108e5760405162461bcd60e51b8152602060048201526024808201527f4552433732313a207472616e7366657220746f20746865207a65726f206164646044820152637265737360e01b606482015260840161061e565b61109b8383836001611554565b826001600160a01b03166110ae82610937565b6001600160a01b0316146110d45760405162461bcd60e51b815260040161061e9061226e565b600081815260046020908152604080832080546001600160a01b03199081169091556001600160a01b0387811680865260038552838620805460001901905590871680865283862080546001019055868652600290945282852080549092168417909155905184937fddf252ad1be2c89b69c2b068fc378daa952ba7f163c4a11628f55a4df523b3ef91a4505050565b610c75828260405180602001604052806000815250611560565b6000828152600260205260409020546001600160a01b03166111f95760405162461bcd60e51b815260206004820152602e60248201527f45524337323155524953746f726167653a2055524920736574206f66206e6f6e60448201526d32bc34b9ba32b73a103a37b5b2b760911b606482015260840161061e565b6000828152600a602052604090206112118282612301565b506040518281527ff8e1a15aba9398e019f0b49df1a4fde98ee17ae345cb5f6b5e2c27f5033e8ce79060200160405180910390a15050565b6000806112598787878787611593565b8051602090910120905061126e83828a6115fc565b98975050505050505050565b600b546001600160a01b03163314610c595760405162461bcd60e51b815260206004820181905260248201527f4f776e61626c653a2063616c6c6572206973206e6f7420746865206f776e6572604482015260640161061e565b600b80546001600160a01b038381166001600160a01b0319831681179093556040519116919082907f8be0079c531659141344cd1fd0a4f28419497f9722a3daafe3b4186f6b6457e090600090a35050565b816001600160a01b0316836001600160a01b0316036113875760405162461bcd60e51b815260206004820152601960248201527f4552433732313a20617070726f766520746f2063616c6c657200000000000000604482015260640161061e565b6001600160a01b03838116600081815260056020908152604080832094871680845294825291829020805460ff191686151590811790915591519182527f17307eab39ab6107e8899845ad3d59bd9653f200f220920489ca2b5937696c31910160405180910390a3505050565b6113ff848484610ff3565b61140b84848484611626565b610cab5760405162461bcd60e51b815260040161061e906123c1565b606061143282610ea7565b6000828152600a60205260408120805461144b906121a8565b80601f0160208091040260200160405190810160405280929190818152602001828054611477906121a8565b80156114c45780601f10611499576101008083540402835291602001916114c4565b820191906000526020600020905b8154815290600101906020018083116114a757829003601f168201915b5050505050905060006114e260408051602081019091526000815290565b905080516000036114f4575092915050565b81511561152657808260405160200161150e929190612413565b60405160208183030381529060405292505050919050565b610feb84611727565b60006001600160e01b0319821663780e9d6360e01b14806104eb57506104eb8261179b565b610cab848484846117eb565b61156a838361191f565b6115776000848484611626565b6106bf5760405162461bcd60e51b815260040161061e906123c1565b60408051602081018390529081018590526001600160a01b0384166060828101919091526080820184905290869060a00160408051601f19818403018152908290526115e29291602001612442565b604051602081830303815290604052905095945050505050565b6000604051836040820152846020820152828152600b8101905060ff815360559020949350505050565b60006001600160a01b0384163b1561171c57604051630a85bd0160e11b81526001600160a01b0385169063150b7a029061166a9033908990889088906004016124b1565b6020604051808303816000875af19250505080156116a5575060408051601f3d908101601f191682019092526116a2918101906124ee565b60015b611702573d8080156116d3576040519150601f19603f3d011682016040523d82523d6000602084013e6116d8565b606091505b5080516000036116fa5760405162461bcd60e51b815260040161061e906123c1565b805181602001fd5b6001600160e01b031916630a85bd0160e11b149050610feb565b506001949350505050565b606061173282610ea7565b600061174960408051602081019091526000815290565b905060008151116117695760405180602001604052806000815250611794565b8061177384611ab8565b604051602001611784929190612413565b6040516020818303038152906040525b9392505050565b60006001600160e01b031982166380ac58cd60e01b14806117cc57506001600160e01b03198216635b5e139f60e01b145b806104eb57506301ffc9a760e01b6001600160e01b03198316146104eb565b600181111561185a5760405162461bcd60e51b815260206004820152603560248201527f455243373231456e756d657261626c653a20636f6e7365637574697665207472604482015274185b9cd9995c9cc81b9bdd081cdd5c1c1bdc9d1959605a1b606482015260840161061e565b816001600160a01b0385166118b6576118b181600880546000838152600960205260408120829055600182018355919091527ff3f7a9fe364faab93b216da50a3214154f22a0a2b415b23a84c8169e8b636ee30155565b6118d9565b836001600160a01b0316856001600160a01b0316146118d9576118d98582611b4b565b6001600160a01b0384166118f5576118f081611be8565b611918565b846001600160a01b0316846001600160a01b031614611918576119188482611c97565b5050505050565b6001600160a01b0382166119755760405162461bcd60e51b815260206004820181905260248201527f4552433732313a206d696e7420746f20746865207a65726f2061646472657373604482015260640161061e565b6000818152600260205260409020546001600160a01b0316156119da5760405162461bcd60e51b815260206004820152601c60248201527f4552433732313a20746f6b656e20616c7265616479206d696e74656400000000604482015260640161061e565b6119e8600083836001611554565b6000818152600260205260409020546001600160a01b031615611a4d5760405162461bcd60e51b815260206004820152601c60248201527f4552433732313a20746f6b656e20616c7265616479206d696e74656400000000604482015260640161061e565b6001600160a01b038216600081815260036020908152604080832080546001019055848352600290915280822080546001600160a01b0319168417905551839291907fddf252ad1be2c89b69c2b068fc378daa952ba7f163c4a11628f55a4df523b3ef908290a45050565b60606000611ac583611cdb565b600101905060008167ffffffffffffffff811115611ae557611ae5611ee4565b6040519080825280601f01601f191660200182016040528015611b0f576020820181803683370190505b5090508181016020015b600019016f181899199a1a9b1b9c1cb0b131b232b360811b600a86061a8153600a8504945084611b1957509392505050565b60006001611b5884610bc1565b611b62919061250b565b600083815260076020526040902054909150808214611bb5576001600160a01b03841660009081526006602090815260408083208584528252808320548484528184208190558352600790915290208190555b5060009182526007602090815260408084208490556001600160a01b039094168352600681528383209183525290812055565b600854600090611bfa9060019061250b565b60008381526009602052604081205460088054939450909284908110611c2257611c22612229565b906000526020600020015490508060088381548110611c4357611c43612229565b6000918252602080832090910192909255828152600990915260408082208490558582528120556008805480611c7b57611c7b61251e565b6001900381819060005260206000200160009055905550505050565b6000611ca283610bc1565b6001600160a01b039093166000908152600660209081526040808320868452825280832085905593825260079052919091209190915550565b60008072184f03e93ff9f4daa797ed6e38ed64bf6a1f0160401b8310611d1a5772184f03e93ff9f4daa797ed6e38ed64bf6a1f0160401b830492506040015b6d04ee2d6d415b85acef81000000008310611d46576d04ee2d6d415b85acef8100000000830492506020015b662386f26fc100008310611d6457662386f26fc10000830492506010015b6305f5e1008310611d7c576305f5e100830492506008015b6127108310611d9057612710830492506004015b60648310611da2576064830492506002015b600a83106104eb5760010192915050565b6001600160e01b031981168114610e7f57600080fd5b600060208284031215611ddb57600080fd5b813561179481611db3565b60005b83811015611e01578181015183820152602001611de9565b50506000910152565b60008151808452611e22816020860160208601611de6565b601f01601f19169290920160200192915050565b6020815260006117946020830184611e0a565b600060208284031215611e5b57600080fd5b5035919050565b80356001600160a01b0381168114611e7957600080fd5b919050565b60008060408385031215611e9157600080fd5b611e9a83611e62565b946020939093013593505050565b600080600060608486031215611ebd57600080fd5b611ec684611e62565b9250611ed460208501611e62565b9150604084013590509250925092565b634e487b7160e01b600052604160045260246000fd5b600067ffffffffffffffff80841115611f1557611f15611ee4565b604051601f8501601f19908116603f01168101908282118183101715611f3d57611f3d611ee4565b81604052809350858152868686011115611f5657600080fd5b858560208301376000602087830101525050509392505050565b600082601f830112611f8157600080fd5b61179483833560208501611efa565b600060208284031215611fa257600080fd5b813567ffffffffffffffff811115611fb957600080fd5b610feb84828501611f70565b602080825282518282018190526000919060409081850190868401855b8281101561202857815180518552868101516001600160a01b03908116888701528682015187870152606091820151169085015260809093019290850190600101611fe2565b5091979650505050505050565b60006020828403121561204757600080fd5b61179482611e62565b6000806040838503121561206357600080fd5b61206c83611e62565b91506020830135801515811461208157600080fd5b809150509250929050565b600080600080608085870312156120a257600080fd5b6120ab85611e62565b93506120b960208601611e62565b925060408501359150606085013567ffffffffffffffff8111156120dc57600080fd5b8501601f810187136120ed57600080fd5b6120fc87823560208401611efa565b91505092959194509250565b6000806040838503121561211b57600080fd5b61212483611e62565b915061213260208401611e62565b90509250929050565b60008060006060848603121561215057600080fd5b83359250602084013567ffffffffffffffff8082111561216f57600080fd5b61217b87838801611f70565b9350604086013591508082111561219157600080fd5b5061219e86828701611f70565b9150509250925092565b600181811c908216806121bc57607f821691505b602082108103610bbb57634e487b7160e01b600052602260045260246000fd5b6020808252602d908201527f4552433732313a2063616c6c6572206973206e6f7420746f6b656e206f776e6560408201526c1c881bdc88185c1c1c9bdd9959609a1b606082015260800190565b634e487b7160e01b600052603260045260246000fd5b634e487b7160e01b600052601160045260246000fd5b6000600182016122675761226761223f565b5060010190565b60208082526025908201527f4552433732313a207472616e736665722066726f6d20696e636f72726563742060408201526437bbb732b960d91b606082015260800190565b601f8211156106bf57600081815260208120601f850160051c810160208610156122da5750805b601f850160051c820191505b818110156122f9578281556001016122e6565b505050505050565b815167ffffffffffffffff81111561231b5761231b611ee4565b61232f8161232984546121a8565b846122b3565b602080601f831160018114612364576000841561234c5750858301515b600019600386901b1c1916600185901b1785556122f9565b600085815260208120601f198616915b8281101561239357888601518255948401946001909101908401612374565b50858210156123b15787850151600019600388901b60f8161c191681555b5050505050600190811b01905550565b60208082526032908201527f4552433732313a207472616e7366657220746f206e6f6e20455243373231526560408201527131b2b4bb32b91034b6b83632b6b2b73a32b960711b606082015260800190565b60008351612425818460208801611de6565b835190830190612439818360208801611de6565b01949350505050565b733d60ad80600a3d3981f3363d3d373d3d3d363d7360601b8152606083901b6bffffffffffffffffffffffff191660148201526e5af43d82803e903d91602b57fd5bf360881b602882015281516000906124a3816037850160208701611de6565b919091016037019392505050565b6001600160a01b03858116825284166020820152604081018390526080606082018190526000906124e490830184611e0a565b9695505050505050565b60006020828403121561250057600080fd5b815161179481611db3565b818103818111156104eb576104eb61223f565b634e487b7160e01b600052603160045260246000fdfea26469706673582212203c8035de9f38ca04ba9c42ce0c05853ca7a53cbdd052d28683db273901f3e63e64736f6c63430008130033",
    "linkReferences": {}
  },
  "methodIdentifiers": {
    "_memories(uint256)": "b85e3c0e",
    "addItemToMemory(uint256,string,string)": "ec736cff",
    "approve(address,uint256)": "095ea7b3",
    "balanceOf(address)": "70a08231",
    "createMemory(string)": "63f6efec",
    "donateToMemory(uint256)": "2b4c97c8",
    "getApproved(uint256)": "081812fc",
    "getMemories()": "64b0a7b9",
    "isApprovedForAll(address,address)": "e985e9c5",
    "name()": "06fdde03",
    "owner()": "8da5cb5b",
    "ownerOf(uint256)": "6352211e",
    "renounceOwnership()": "715018a6",
    "safeTransferFrom(address,address,uint256)": "42842e0e",
    "safeTransferFrom(address,address,uint256,bytes)": "b88d4fde",
    "setApprovalForAll(address,bool)": "a22cb465",
    "supportsInterface(bytes4)": "01ffc9a7",
    "symbol()": "95d89b41",
    "tokenByIndex(uint256)": "4f6ccce7",
    "tokenOfOwnerByIndex(address,uint256)": "2f745c59",
    "tokenURI(uint256)": "c87b56dd",
    "totalSupply()": "18160ddd",
    "transferFrom(address,address,uint256)": "23b872dd",
    "transferOwnership(address)": "f2fde38b"
  },
  "id": 22
}