{
  "abi": [
    {
      "inputs": [],
      "stateMutability": "nonpayable",
      "type": "constructor"
    },
    {
      "anonymous": false,
      "inputs": [
        {
          "indexed": true,
          "internalType": "address",
          "name": "owner",
          "type": "address"
        },
        {
          "indexed": true,
          "internalType": "address",
          "name": "approved",
          "type": "address"
        },
        {
          "indexed": true,
          "internalType": "uint256",
          "name": "tokenId",
          "type": "uint256"
        }
      ],
      "name": "Approval",
      "type": "event"
    },
    {
      "anonymous": false,
      "inputs": [
        {
          "indexed": true,
          "internalType": "address",
          "name": "owner",
          "type": "address"
        },
        {
          "indexed": true,
          "internalType": "address",
          "name": "operator",
          "type": "address"
        },
        {
          "indexed": false,
          "internalType": "bool",
          "name": "approved",
          "type": "bool"
        }
      ],
      "name": "ApprovalForAll",
      "type": "event"
    },
    {
      "anonymous": false,
      "inputs": [
        {
          "indexed": false,
          "internalType": "uint256",
          "name": "_fromTokenId",
          "type": "uint256"
        },
        {
          "indexed": false,
          "internalType": "uint256",
          "name": "_toTokenId",
          "type": "uint256"
        }
      ],
      "name": "BatchMetadataUpdate",
      "type": "event"
    },
    {
      "anonymous": false,
      "inputs": [
        {
          "indexed": true,
          "internalType": "uint256",
          "name": "tokenId",
          "type": "uint256"
        }
      ],
      "name": "ItemMinted",
      "type": "event"
    },
    {
      "anonymous": false,
      "inputs": [
        {
          "indexed": false,
          "internalType": "uint256",
          "name": "_tokenId",
          "type": "uint256"
        }
      ],
      "name": "MetadataUpdate",
      "type": "event"
    },
    {
      "anonymous": false,
      "inputs": [
        {
          "indexed": true,
          "internalType": "address",
          "name": "from",
          "type": "address"
        },
        {
          "indexed": true,
          "internalType": "address",
          "name": "to",
          "type": "address"
        },
        {
          "indexed": true,
          "internalType": "uint256",
          "name": "tokenId",
          "type": "uint256"
        }
      ],
      "name": "Transfer",
      "type": "event"
    },
    {
      "inputs": [
        {
          "internalType": "address",
          "name": "to",
          "type": "address"
        },
        {
          "internalType": "uint256",
          "name": "tokenId",
          "type": "uint256"
        }
      ],
      "name": "approve",
      "outputs": [],
      "stateMutability": "nonpayable",
      "type": "function"
    },
    {
      "inputs": [
        {
          "internalType": "address",
          "name": "owner",
          "type": "address"
        }
      ],
      "name": "balanceOf",
      "outputs": [
        {
          "internalType": "uint256",
          "name": "",
          "type": "uint256"
        }
      ],
      "stateMutability": "view",
      "type": "function"
    },
    {
      "inputs": [
        {
          "internalType": "uint256",
          "name": "tokenId",
          "type": "uint256"
        }
      ],
      "name": "getApproved",
      "outputs": [
        {
          "internalType": "address",
          "name": "",
          "type": "address"
        }
      ],
      "stateMutability": "view",
      "type": "function"
    },
    {
      "inputs": [
        {
          "internalType": "address",
          "name": "owner",
          "type": "address"
        },
        {
          "internalType": "address",
          "name": "operator",
          "type": "address"
        }
      ],
      "name": "isApprovedForAll",
      "outputs": [
        {
          "internalType": "bool",
          "name": "",
          "type": "bool"
        }
      ],
      "stateMutability": "view",
      "type": "function"
    },
    {
      "inputs": [
        {
          "internalType": "address",
          "name": "to",
          "type": "address"
        },
        {
          "internalType": "string",
          "name": "uri",
          "type": "string"
        }
      ],
      "name": "mintItem",
      "outputs": [],
      "stateMutability": "nonpayable",
      "type": "function"
    },
    {
      "inputs": [],
      "name": "name",
      "outputs": [
        {
          "internalType": "string",
          "name": "",
          "type": "string"
        }
      ],
      "stateMutability": "view",
      "type": "function"
    },
    {
      "inputs": [
        {
          "internalType": "uint256",
          "name": "tokenId",
          "type": "uint256"
        }
      ],
      "name": "ownerOf",
      "outputs": [
        {
          "internalType": "address",
          "name": "",
          "type": "address"
        }
      ],
      "stateMutability": "view",
      "type": "function"
    },
    {
      "inputs": [
        {
          "internalType": "address",
          "name": "from",
          "type": "address"
        },
        {
          "internalType": "address",
          "name": "to",
          "type": "address"
        },
        {
          "internalType": "uint256",
          "name": "tokenId",
          "type": "uint256"
        }
      ],
      "name": "safeTransferFrom",
      "outputs": [],
      "stateMutability": "nonpayable",
      "type": "function"
    },
    {
      "inputs": [
        {
          "internalType": "address",
          "name": "from",
          "type": "address"
        },
        {
          "internalType": "address",
          "name": "to",
          "type": "address"
        },
        {
          "internalType": "uint256",
          "name": "tokenId",
          "type": "uint256"
        },
        {
          "internalType": "bytes",
          "name": "data",
          "type": "bytes"
        }
      ],
      "name": "safeTransferFrom",
      "outputs": [],
      "stateMutability": "nonpayable",
      "type": "function"
    },
    {
      "inputs": [
        {
          "internalType": "address",
          "name": "operator",
          "type": "address"
        },
        {
          "internalType": "bool",
          "name": "approved",
          "type": "bool"
        }
      ],
      "name": "setApprovalForAll",
      "outputs": [],
      "stateMutability": "nonpayable",
      "type": "function"
    },
    {
      "inputs": [
        {
          "internalType": "bytes4",
          "name": "interfaceId",
          "type": "bytes4"
        }
      ],
      "name": "supportsInterface",
      "outputs": [
        {
          "internalType": "bool",
          "name": "",
          "type": "bool"
        }
      ],
      "stateMutability": "view",
      "type": "function"
    },
    {
      "inputs": [],
      "name": "symbol",
      "outputs": [
        {
          "internalType": "string",
          "name": "",
          "type": "string"
        }
      ],
      "stateMutability": "view",
      "type": "function"
    },
    {
      "inputs": [
        {
          "internalType": "uint256",
          "name": "index",
          "type": "uint256"
        }
      ],
      "name": "tokenByIndex",
      "outputs": [
        {
          "internalType": "uint256",
          "name": "",
          "type": "uint256"
        }
      ],
      "stateMutability": "view",
      "type": "function"
    },
    {
      "inputs": [
        {
          "internalType": "address",
          "name": "owner",
          "type": "address"
        },
        {
          "internalType": "uint256",
          "name": "index",
          "type": "uint256"
        }
      ],
      "name": "tokenOfOwnerByIndex",
      "outputs": [
        {
          "internalType": "uint256",
          "name": "",
          "type": "uint256"
        }
      ],
      "stateMutability": "view",
      "type": "function"
    },
    {
      "inputs": [
        {
          "internalType": "uint256",
          "name": "tokenId",
          "type": "uint256"
        }
      ],
      "name": "tokenURI",
      "outputs": [
        {
          "internalType": "string",
          "name": "",
          "type": "string"
        }
      ],
      "stateMutability": "view",
      "type": "function"
    },
    {
      "inputs": [],
      "name": "totalSupply",
      "outputs": [
        {
          "internalType": "uint256",
          "name": "",
          "type": "uint256"
        }
      ],
      "stateMutability": "view",
      "type": "function"
    },
    {
      "inputs": [
        {
          "internalType": "address",
          "name": "from",
          "type": "address"
        },
        {
          "internalType": "address",
          "name": "to",
          "type": "address"
        },
        {
          "internalType": "uint256",
          "name": "tokenId",
          "type": "uint256"
        }
      ],
      "name": "transferFrom",
      "outputs": [],
      "stateMutability": "nonpayable",
      "type": "function"
    }
  ],
  "bytecode": {
    "object": "0x60806040523480156200001157600080fd5b506040518060400160405280601681526020017f455243363535312d4d656d6f726965732d4974656d730000000000000000000081525060405180604001604052806003815260200162454d4960e81b815250816000908162000075919062000132565b50600162000084828262000132565b505050620001fe565b634e487b7160e01b600052604160045260246000fd5b600181811c90821680620000b857607f821691505b602082108103620000d957634e487b7160e01b600052602260045260246000fd5b50919050565b601f8211156200012d57600081815260208120601f850160051c81016020861015620001085750805b601f850160051c820191505b81811015620001295782815560010162000114565b5050505b505050565b81516001600160401b038111156200014e576200014e6200008d565b62000166816200015f8454620000a3565b84620000df565b602080601f8311600181146200019e5760008415620001855750858301515b600019600386901b1c1916600185901b17855562000129565b600085815260208120601f198616915b82811015620001cf57888601518255948401946001909101908401620001ae565b5085821015620001ee5787850151600019600388901b60f8161c191681555b5050505050600190811b01905550565b611bc1806200020e6000396000f3fe608060405234801561001057600080fd5b506004361061010b5760003560e01c806342842e0e116100a257806395d89b411161007157806395d89b4114610224578063a22cb4651461022c578063b88d4fde1461023f578063c87b56dd14610252578063e985e9c51461026557600080fd5b806342842e0e146101d85780634f6ccce7146101eb5780636352211e146101fe57806370a082311461021157600080fd5b8063110bcd45116100de578063110bcd451461018d57806318160ddd146101a057806323b872dd146101b25780632f745c59146101c557600080fd5b806301ffc9a71461011057806306fdde0314610138578063081812fc1461014d578063095ea7b314610178575b600080fd5b61012361011e36600461157a565b6102a1565b60405190151581526020015b60405180910390f35b6101406102b2565b60405161012f91906115e7565b61016061015b3660046115fa565b610344565b6040516001600160a01b03909116815260200161012f565b61018b61018636600461162f565b61036b565b005b61018b61019b3660046116e5565b610485565b6008545b60405190815260200161012f565b61018b6101c0366004611747565b6104e4565b6101a46101d336600461162f565b610515565b61018b6101e6366004611747565b6105ab565b6101a46101f93660046115fa565b6105c6565b61016061020c3660046115fa565b610659565b6101a461021f366004611783565b6106b9565b61014061073f565b61018b61023a36600461179e565b61074e565b61018b61024d3660046117da565b61075d565b6101406102603660046115fa565b610795565b610123610273366004611856565b6001600160a01b03918216600090815260056020908152604080832093909416825291909152205460ff1690565b60006102ac826107a0565b92915050565b6060600080546102c190611889565b80601f01602080910402602001604051908101604052809291908181526020018280546102ed90611889565b801561033a5780601f1061030f5761010080835404028352916020019161033a565b820191906000526020600020905b81548152906001019060200180831161031d57829003601f168201915b5050505050905090565b600061034f826107c5565b506000908152600460205260409020546001600160a01b031690565b600061037682610659565b9050806001600160a01b0316836001600160a01b0316036103e85760405162461bcd60e51b815260206004820152602160248201527f4552433732313a20617070726f76616c20746f2063757272656e74206f776e656044820152603960f91b60648201526084015b60405180910390fd5b336001600160a01b038216148061040457506104048133610273565b6104765760405162461bcd60e51b815260206004820152603d60248201527f4552433732313a20617070726f76652063616c6c6572206973206e6f7420746f60448201527f6b656e206f776e6572206f7220617070726f76656420666f7220616c6c00000060648201526084016103df565b6104808383610827565b505050565b6000610490600b5490565b90506104a0600b80546001019055565b6104aa8382610895565b6104b481836108af565b60405181907fb024351dd495ddd57c50334b2a17ad2e929b28be0ea5a482e0e9b4277766c67b90600090a2505050565b6104ee338261097a565b61050a5760405162461bcd60e51b81526004016103df906118c3565b6104808383836109f9565b6000610520836106b9565b82106105825760405162461bcd60e51b815260206004820152602b60248201527f455243373231456e756d657261626c653a206f776e657220696e646578206f7560448201526a74206f6620626f756e647360a81b60648201526084016103df565b506001600160a01b03919091166000908152600660209081526040808320938352929052205490565b6104808383836040518060200160405280600081525061075d565b60006105d160085490565b82106106345760405162461bcd60e51b815260206004820152602c60248201527f455243373231456e756d657261626c653a20676c6f62616c20696e646578206f60448201526b7574206f6620626f756e647360a01b60648201526084016103df565b6008828154811061064757610647611910565b90600052602060002001549050919050565b6000818152600260205260408120546001600160a01b0316806102ac5760405162461bcd60e51b8152602060048201526018602482015277115490cdcc8c4e881a5b9d985b1a59081d1bdad95b88125160421b60448201526064016103df565b60006001600160a01b0382166107235760405162461bcd60e51b815260206004820152602960248201527f4552433732313a2061646472657373207a65726f206973206e6f7420612076616044820152683634b21037bbb732b960b91b60648201526084016103df565b506001600160a01b031660009081526003602052604090205490565b6060600180546102c190611889565b610759338383610b6a565b5050565b610767338361097a565b6107835760405162461bcd60e51b81526004016103df906118c3565b61078f84848484610c38565b50505050565b60606102ac82610c6b565b60006001600160e01b03198216632483248360e11b14806102ac57506102ac82610d73565b6000818152600260205260409020546001600160a01b03166108245760405162461bcd60e51b8152602060048201526018602482015277115490cdcc8c4e881a5b9d985b1a59081d1bdad95b88125160421b60448201526064016103df565b50565b600081815260046020526040902080546001600160a01b0319166001600160a01b038416908117909155819061085c82610659565b6001600160a01b03167f8c5be1e5ebec7d5bd14f71427d1e84f3dd0314c0f7b2291e5b200ac8c7c3b92560405160405180910390a45050565b610759828260405180602001604052806000815250610d98565b6000828152600260205260409020546001600160a01b031661092a5760405162461bcd60e51b815260206004820152602e60248201527f45524337323155524953746f726167653a2055524920736574206f66206e6f6e60448201526d32bc34b9ba32b73a103a37b5b2b760911b60648201526084016103df565b6000828152600a602052604090206109428282611974565b506040518281527ff8e1a15aba9398e019f0b49df1a4fde98ee17ae345cb5f6b5e2c27f5033e8ce79060200160405180910390a15050565b60008061098683610659565b9050806001600160a01b0316846001600160a01b031614806109cd57506001600160a01b0380821660009081526005602090815260408083209388168352929052205460ff165b806109f15750836001600160a01b03166109e684610344565b6001600160a01b0316145b949350505050565b826001600160a01b0316610a0c82610659565b6001600160a01b031614610a325760405162461bcd60e51b81526004016103df90611a34565b6001600160a01b038216610a945760405162461bcd60e51b8152602060048201526024808201527f4552433732313a207472616e7366657220746f20746865207a65726f206164646044820152637265737360e01b60648201526084016103df565b610aa18383836001610dcb565b826001600160a01b0316610ab482610659565b6001600160a01b031614610ada5760405162461bcd60e51b81526004016103df90611a34565b600081815260046020908152604080832080546001600160a01b03199081169091556001600160a01b0387811680865260038552838620805460001901905590871680865283862080546001019055868652600290945282852080549092168417909155905184937fddf252ad1be2c89b69c2b068fc378daa952ba7f163c4a11628f55a4df523b3ef91a4505050565b816001600160a01b0316836001600160a01b031603610bcb5760405162461bcd60e51b815260206004820152601960248201527f4552433732313a20617070726f766520746f2063616c6c65720000000000000060448201526064016103df565b6001600160a01b03838116600081815260056020908152604080832094871680845294825291829020805460ff191686151590811790915591519182527f17307eab39ab6107e8899845ad3d59bd9653f200f220920489ca2b5937696c31910160405180910390a3505050565b610c438484846109f9565b610c4f84848484610dd7565b61078f5760405162461bcd60e51b81526004016103df90611a79565b6060610c76826107c5565b6000828152600a602052604081208054610c8f90611889565b80601f0160208091040260200160405190810160405280929190818152602001828054610cbb90611889565b8015610d085780601f10610cdd57610100808354040283529160200191610d08565b820191906000526020600020905b815481529060010190602001808311610ceb57829003601f168201915b505050505090506000610d2660408051602081019091526000815290565b90508051600003610d38575092915050565b815115610d6a578082604051602001610d52929190611acb565b60405160208183030381529060405292505050919050565b6109f184610ed8565b60006001600160e01b0319821663780e9d6360e01b14806102ac57506102ac82610f4c565b610da28383610f9c565b610daf6000848484610dd7565b6104805760405162461bcd60e51b81526004016103df90611a79565b61078f84848484611135565b60006001600160a01b0384163b15610ecd57604051630a85bd0160e11b81526001600160a01b0385169063150b7a0290610e1b903390899088908890600401611afa565b6020604051808303816000875af1925050508015610e56575060408051601f3d908101601f19168201909252610e5391810190611b37565b60015b610eb3573d808015610e84576040519150601f19603f3d011682016040523d82523d6000602084013e610e89565b606091505b508051600003610eab5760405162461bcd60e51b81526004016103df90611a79565b805181602001fd5b6001600160e01b031916630a85bd0160e11b1490506109f1565b506001949350505050565b6060610ee3826107c5565b6000610efa60408051602081019091526000815290565b90506000815111610f1a5760405180602001604052806000815250610f45565b80610f2484611269565b604051602001610f35929190611acb565b6040516020818303038152906040525b9392505050565b60006001600160e01b031982166380ac58cd60e01b1480610f7d57506001600160e01b03198216635b5e139f60e01b145b806102ac57506301ffc9a760e01b6001600160e01b03198316146102ac565b6001600160a01b038216610ff25760405162461bcd60e51b815260206004820181905260248201527f4552433732313a206d696e7420746f20746865207a65726f206164647265737360448201526064016103df565b6000818152600260205260409020546001600160a01b0316156110575760405162461bcd60e51b815260206004820152601c60248201527f4552433732313a20746f6b656e20616c7265616479206d696e7465640000000060448201526064016103df565b611065600083836001610dcb565b6000818152600260205260409020546001600160a01b0316156110ca5760405162461bcd60e51b815260206004820152601c60248201527f4552433732313a20746f6b656e20616c7265616479206d696e7465640000000060448201526064016103df565b6001600160a01b038216600081815260036020908152604080832080546001019055848352600290915280822080546001600160a01b0319168417905551839291907fddf252ad1be2c89b69c2b068fc378daa952ba7f163c4a11628f55a4df523b3ef908290a45050565b60018111156111a45760405162461bcd60e51b815260206004820152603560248201527f455243373231456e756d657261626c653a20636f6e7365637574697665207472604482015274185b9cd9995c9cc81b9bdd081cdd5c1c1bdc9d1959605a1b60648201526084016103df565b816001600160a01b038516611200576111fb81600880546000838152600960205260408120829055600182018355919091527ff3f7a9fe364faab93b216da50a3214154f22a0a2b415b23a84c8169e8b636ee30155565b611223565b836001600160a01b0316856001600160a01b0316146112235761122385826112fc565b6001600160a01b03841661123f5761123a81611399565b611262565b846001600160a01b0316846001600160a01b031614611262576112628482611448565b5050505050565b606060006112768361148c565b600101905060008167ffffffffffffffff81111561129657611296611659565b6040519080825280601f01601f1916602001820160405280156112c0576020820181803683370190505b5090508181016020015b600019016f181899199a1a9b1b9c1cb0b131b232b360811b600a86061a8153600a85049450846112ca57509392505050565b60006001611309846106b9565b6113139190611b54565b600083815260076020526040902054909150808214611366576001600160a01b03841660009081526006602090815260408083208584528252808320548484528184208190558352600790915290208190555b5060009182526007602090815260408084208490556001600160a01b039094168352600681528383209183525290812055565b6008546000906113ab90600190611b54565b600083815260096020526040812054600880549394509092849081106113d3576113d3611910565b9060005260206000200154905080600883815481106113f4576113f4611910565b600091825260208083209091019290925582815260099091526040808220849055858252812055600880548061142c5761142c611b75565b6001900381819060005260206000200160009055905550505050565b6000611453836106b9565b6001600160a01b039093166000908152600660209081526040808320868452825280832085905593825260079052919091209190915550565b60008072184f03e93ff9f4daa797ed6e38ed64bf6a1f0160401b83106114cb5772184f03e93ff9f4daa797ed6e38ed64bf6a1f0160401b830492506040015b6d04ee2d6d415b85acef810000000083106114f7576d04ee2d6d415b85acef8100000000830492506020015b662386f26fc10000831061151557662386f26fc10000830492506010015b6305f5e100831061152d576305f5e100830492506008015b612710831061154157612710830492506004015b60648310611553576064830492506002015b600a83106102ac5760010192915050565b6001600160e01b03198116811461082457600080fd5b60006020828403121561158c57600080fd5b8135610f4581611564565b60005b838110156115b257818101518382015260200161159a565b50506000910152565b600081518084526115d3816020860160208601611597565b601f01601f19169290920160200192915050565b602081526000610f4560208301846115bb565b60006020828403121561160c57600080fd5b5035919050565b80356001600160a01b038116811461162a57600080fd5b919050565b6000806040838503121561164257600080fd5b61164b83611613565b946020939093013593505050565b634e487b7160e01b600052604160045260246000fd5b600067ffffffffffffffff8084111561168a5761168a611659565b604051601f8501601f19908116603f011681019082821181831017156116b2576116b2611659565b816040528093508581528686860111156116cb57600080fd5b858560208301376000602087830101525050509392505050565b600080604083850312156116f857600080fd5b61170183611613565b9150602083013567ffffffffffffffff81111561171d57600080fd5b8301601f8101851361172e57600080fd5b61173d8582356020840161166f565b9150509250929050565b60008060006060848603121561175c57600080fd5b61176584611613565b925061177360208501611613565b9150604084013590509250925092565b60006020828403121561179557600080fd5b610f4582611613565b600080604083850312156117b157600080fd5b6117ba83611613565b9150602083013580151581146117cf57600080fd5b809150509250929050565b600080600080608085870312156117f057600080fd5b6117f985611613565b935061180760208601611613565b925060408501359150606085013567ffffffffffffffff81111561182a57600080fd5b8501601f8101871361183b57600080fd5b61184a8782356020840161166f565b91505092959194509250565b6000806040838503121561186957600080fd5b61187283611613565b915061188060208401611613565b90509250929050565b600181811c9082168061189d57607f821691505b6020821081036118bd57634e487b7160e01b600052602260045260246000fd5b50919050565b6020808252602d908201527f4552433732313a2063616c6c6572206973206e6f7420746f6b656e206f776e6560408201526c1c881bdc88185c1c1c9bdd9959609a1b606082015260800190565b634e487b7160e01b600052603260045260246000fd5b601f82111561048057600081815260208120601f850160051c8101602086101561194d5750805b601f850160051c820191505b8181101561196c57828155600101611959565b505050505050565b815167ffffffffffffffff81111561198e5761198e611659565b6119a28161199c8454611889565b84611926565b602080601f8311600181146119d757600084156119bf5750858301515b600019600386901b1c1916600185901b17855561196c565b600085815260208120601f198616915b82811015611a06578886015182559484019460019091019084016119e7565b5085821015611a245787850151600019600388901b60f8161c191681555b5050505050600190811b01905550565b60208082526025908201527f4552433732313a207472616e736665722066726f6d20696e636f72726563742060408201526437bbb732b960d91b606082015260800190565b60208082526032908201527f4552433732313a207472616e7366657220746f206e6f6e20455243373231526560408201527131b2b4bb32b91034b6b83632b6b2b73a32b960711b606082015260800190565b60008351611add818460208801611597565b835190830190611af1818360208801611597565b01949350505050565b6001600160a01b0385811682528416602082015260408101839052608060608201819052600090611b2d908301846115bb565b9695505050505050565b600060208284031215611b4957600080fd5b8151610f4581611564565b818103818111156102ac57634e487b7160e01b600052601160045260246000fd5b634e487b7160e01b600052603160045260246000fdfea26469706673582212207ce3f54b23e80614c51b876aefd5000f72185af796a3e3bda7f13588f441f87864736f6c63430008130033",
    "linkReferences": {}
  },
  "methodIdentifiers": {
    "approve(address,uint256)": "095ea7b3",
    "balanceOf(address)": "70a08231",
    "getApproved(uint256)": "081812fc",
    "isApprovedForAll(address,address)": "e985e9c5",
    "mintItem(address,string)": "110bcd45",
    "name()": "06fdde03",
    "ownerOf(uint256)": "6352211e",
    "safeTransferFrom(address,address,uint256)": "42842e0e",
    "safeTransferFrom(address,address,uint256,bytes)": "b88d4fde",
    "setApprovalForAll(address,bool)": "a22cb465",
    "supportsInterface(bytes4)": "01ffc9a7",
    "symbol()": "95d89b41",
    "tokenByIndex(uint256)": "4f6ccce7",
    "tokenOfOwnerByIndex(address,uint256)": "2f745c59",
    "tokenURI(uint256)": "c87b56dd",
    "totalSupply()": "18160ddd",
    "transferFrom(address,address,uint256)": "23b872dd"
  },
  "id": 23
}