{
  "abi": [
    {
      "inputs": [],
      "stateMutability": "nonpayable",
      "type": "constructor"
    },
    {
      "anonymous": false,
      "inputs": [
        {
          "indexed": true,
          "internalType": "address",
          "name": "owner",
          "type": "address"
        },
        {
          "indexed": true,
          "internalType": "address",
          "name": "approved",
          "type": "address"
        },
        {
          "indexed": true,
          "internalType": "uint256",
          "name": "tokenId",
          "type": "uint256"
        }
      ],
      "name": "Approval",
      "type": "event"
    },
    {
      "anonymous": false,
      "inputs": [
        {
          "indexed": true,
          "internalType": "address",
          "name": "owner",
          "type": "address"
        },
        {
          "indexed": true,
          "internalType": "address",
          "name": "operator",
          "type": "address"
        },
        {
          "indexed": false,
          "internalType": "bool",
          "name": "approved",
          "type": "bool"
        }
      ],
      "name": "ApprovalForAll",
      "type": "event"
    },
    {
      "anonymous": false,
      "inputs": [
        {
          "indexed": false,
          "internalType": "uint256",
          "name": "_fromTokenId",
          "type": "uint256"
        },
        {
          "indexed": false,
          "internalType": "uint256",
          "name": "_toTokenId",
          "type": "uint256"
        }
      ],
      "name": "BatchMetadataUpdate",
      "type": "event"
    },
    {
      "anonymous": false,
      "inputs": [
        {
          "indexed": true,
          "internalType": "uint256",
          "name": "tokenId",
          "type": "uint256"
        }
      ],
      "name": "ItemMinted",
      "type": "event"
    },
    {
      "anonymous": false,
      "inputs": [
        {
          "indexed": false,
          "internalType": "uint256",
          "name": "_tokenId",
          "type": "uint256"
        }
      ],
      "name": "MetadataUpdate",
      "type": "event"
    },
    {
      "anonymous": false,
      "inputs": [
        {
          "indexed": true,
          "internalType": "address",
          "name": "from",
          "type": "address"
        },
        {
          "indexed": true,
          "internalType": "address",
          "name": "to",
          "type": "address"
        },
        {
          "indexed": true,
          "internalType": "uint256",
          "name": "tokenId",
          "type": "uint256"
        }
      ],
      "name": "Transfer",
      "type": "event"
    },
    {
      "inputs": [
        {
          "internalType": "address",
          "name": "",
          "type": "address"
        }
      ],
      "name": "addressToTokenId",
      "outputs": [
        {
          "internalType": "uint256",
          "name": "",
          "type": "uint256"
        }
      ],
      "stateMutability": "view",
      "type": "function"
    },
    {
      "inputs": [
        {
          "internalType": "address",
          "name": "to",
          "type": "address"
        },
        {
          "internalType": "uint256",
          "name": "tokenId",
          "type": "uint256"
        }
      ],
      "name": "approve",
      "outputs": [],
      "stateMutability": "nonpayable",
      "type": "function"
    },
    {
      "inputs": [
        {
          "internalType": "address",
          "name": "owner",
          "type": "address"
        }
      ],
      "name": "balanceOf",
      "outputs": [
        {
          "internalType": "uint256",
          "name": "",
          "type": "uint256"
        }
      ],
      "stateMutability": "view",
      "type": "function"
    },
    {
      "inputs": [
        {
          "internalType": "uint256",
          "name": "tokenId",
          "type": "uint256"
        }
      ],
      "name": "getApproved",
      "outputs": [
        {
          "internalType": "address",
          "name": "",
          "type": "address"
        }
      ],
      "stateMutability": "view",
      "type": "function"
    },
    {
      "inputs": [
        {
          "internalType": "address",
          "name": "_address",
          "type": "address"
        }
      ],
      "name": "getTokenIdByAddress",
      "outputs": [
        {
          "internalType": "uint256",
          "name": "",
          "type": "uint256"
        }
      ],
      "stateMutability": "view",
      "type": "function"
    },
    {
      "inputs": [
        {
          "internalType": "address",
          "name": "owner",
          "type": "address"
        },
        {
          "internalType": "address",
          "name": "operator",
          "type": "address"
        }
      ],
      "name": "isApprovedForAll",
      "outputs": [
        {
          "internalType": "bool",
          "name": "",
          "type": "bool"
        }
      ],
      "stateMutability": "view",
      "type": "function"
    },
    {
      "inputs": [
        {
          "internalType": "string",
          "name": "uri",
          "type": "string"
        }
      ],
      "name": "mintItem",
      "outputs": [],
      "stateMutability": "nonpayable",
      "type": "function"
    },
    {
      "inputs": [],
      "name": "name",
      "outputs": [
        {
          "internalType": "string",
          "name": "",
          "type": "string"
        }
      ],
      "stateMutability": "view",
      "type": "function"
    },
    {
      "inputs": [
        {
          "internalType": "uint256",
          "name": "tokenId",
          "type": "uint256"
        }
      ],
      "name": "ownerOf",
      "outputs": [
        {
          "internalType": "address",
          "name": "",
          "type": "address"
        }
      ],
      "stateMutability": "view",
      "type": "function"
    },
    {
      "inputs": [
        {
          "internalType": "address",
          "name": "from",
          "type": "address"
        },
        {
          "internalType": "address",
          "name": "to",
          "type": "address"
        },
        {
          "internalType": "uint256",
          "name": "tokenId",
          "type": "uint256"
        }
      ],
      "name": "safeTransferFrom",
      "outputs": [],
      "stateMutability": "nonpayable",
      "type": "function"
    },
    {
      "inputs": [
        {
          "internalType": "address",
          "name": "from",
          "type": "address"
        },
        {
          "internalType": "address",
          "name": "to",
          "type": "address"
        },
        {
          "internalType": "uint256",
          "name": "tokenId",
          "type": "uint256"
        },
        {
          "internalType": "bytes",
          "name": "data",
          "type": "bytes"
        }
      ],
      "name": "safeTransferFrom",
      "outputs": [],
      "stateMutability": "nonpayable",
      "type": "function"
    },
    {
      "inputs": [
        {
          "internalType": "address",
          "name": "operator",
          "type": "address"
        },
        {
          "internalType": "bool",
          "name": "approved",
          "type": "bool"
        }
      ],
      "name": "setApprovalForAll",
      "outputs": [],
      "stateMutability": "nonpayable",
      "type": "function"
    },
    {
      "inputs": [
        {
          "internalType": "bytes4",
          "name": "interfaceId",
          "type": "bytes4"
        }
      ],
      "name": "supportsInterface",
      "outputs": [
        {
          "internalType": "bool",
          "name": "",
          "type": "bool"
        }
      ],
      "stateMutability": "view",
      "type": "function"
    },
    {
      "inputs": [],
      "name": "symbol",
      "outputs": [
        {
          "internalType": "string",
          "name": "",
          "type": "string"
        }
      ],
      "stateMutability": "view",
      "type": "function"
    },
    {
      "inputs": [
        {
          "internalType": "uint256",
          "name": "index",
          "type": "uint256"
        }
      ],
      "name": "tokenByIndex",
      "outputs": [
        {
          "internalType": "uint256",
          "name": "",
          "type": "uint256"
        }
      ],
      "stateMutability": "view",
      "type": "function"
    },
    {
      "inputs": [
        {
          "internalType": "address",
          "name": "owner",
          "type": "address"
        },
        {
          "internalType": "uint256",
          "name": "index",
          "type": "uint256"
        }
      ],
      "name": "tokenOfOwnerByIndex",
      "outputs": [
        {
          "internalType": "uint256",
          "name": "",
          "type": "uint256"
        }
      ],
      "stateMutability": "view",
      "type": "function"
    },
    {
      "inputs": [
        {
          "internalType": "uint256",
          "name": "tokenId",
          "type": "uint256"
        }
      ],
      "name": "tokenURI",
      "outputs": [
        {
          "internalType": "string",
          "name": "",
          "type": "string"
        }
      ],
      "stateMutability": "view",
      "type": "function"
    },
    {
      "inputs": [],
      "name": "totalSupply",
      "outputs": [
        {
          "internalType": "uint256",
          "name": "",
          "type": "uint256"
        }
      ],
      "stateMutability": "view",
      "type": "function"
    },
    {
      "inputs": [
        {
          "internalType": "address",
          "name": "from",
          "type": "address"
        },
        {
          "internalType": "address",
          "name": "to",
          "type": "address"
        },
        {
          "internalType": "uint256",
          "name": "tokenId",
          "type": "uint256"
        }
      ],
      "name": "transferFrom",
      "outputs": [],
      "stateMutability": "nonpayable",
      "type": "function"
    }
  ],
  "bytecode": {
    "object": "0x60806040523480156200001157600080fd5b506040518060400160405280601681526020017f455243363535312d4d656d6f726965732d4974656d730000000000000000000081525060405180604001604052806003815260200162454d4960e81b815250816000908162000075919062000132565b50600162000084828262000132565b505050620001fe565b634e487b7160e01b600052604160045260246000fd5b600181811c90821680620000b857607f821691505b602082108103620000d957634e487b7160e01b600052602260045260246000fd5b50919050565b601f8211156200012d57600081815260208120601f850160051c81016020861015620001085750805b601f850160051c820191505b81811015620001295782815560010162000114565b5050505b505050565b81516001600160401b038111156200014e576200014e6200008d565b62000166816200015f8454620000a3565b84620000df565b602080601f8311600181146200019e5760008415620001855750858301515b600019600386901b1c1916600185901b17855562000129565b600085815260208120601f198616915b82811015620001cf57888601518255948401946001909101908401620001ae565b5085821015620001ee5787850151600019600388901b60f8161c191681555b5050505050600190811b01905550565b611c14806200020e6000396000f3fe608060405234801561001057600080fd5b50600436106101215760003560e01c80636352211e116100ad578063a22cb46511610071578063a22cb46514610278578063b88d4fde1461028b578063c75458491461029e578063c87b56dd146102b1578063e985e9c5146102c457600080fd5b80636352211e146102015780636511bf2e1461021457806370a08231146102345780638cbab7e41461024757806395d89b411461027057600080fd5b806318160ddd116100f457806318160ddd146101a357806323b872dd146101b55780632f745c59146101c857806342842e0e146101db5780634f6ccce7146101ee57600080fd5b806301ffc9a71461012657806306fdde031461014e578063081812fc14610163578063095ea7b31461018e575b600080fd5b6101396101343660046115e6565b610300565b60405190151581526020015b60405180910390f35b610156610311565b6040516101459190611653565b610176610171366004611666565b6103a3565b6040516001600160a01b039091168152602001610145565b6101a161019c36600461169b565b6103ca565b005b6008545b604051908152602001610145565b6101a16101c33660046116c5565b6104e4565b6101a76101d636600461169b565b610515565b6101a16101e93660046116c5565b6105ab565b6101a76101fc366004611666565b6105c6565b61017661020f366004611666565b610659565b6101a7610222366004611701565b600c6020526000908152604090205481565b6101a7610242366004611701565b6106b9565b6101a7610255366004611701565b6001600160a01b03166000908152600c602052604090205490565b61015661073f565b6101a161028636600461171c565b61074e565b6101a16102993660046117e4565b61075d565b6101a16102ac366004611860565b610795565b6101566102bf366004611666565b610801565b6101396102d23660046118a9565b6001600160a01b03918216600090815260056020908152604080832093909416825291909152205460ff1690565b600061030b8261080c565b92915050565b606060008054610320906118dc565b80601f016020809104026020016040519081016040528092919081815260200182805461034c906118dc565b80156103995780601f1061036e57610100808354040283529160200191610399565b820191906000526020600020905b81548152906001019060200180831161037c57829003601f168201915b5050505050905090565b60006103ae82610831565b506000908152600460205260409020546001600160a01b031690565b60006103d582610659565b9050806001600160a01b0316836001600160a01b0316036104475760405162461bcd60e51b815260206004820152602160248201527f4552433732313a20617070726f76616c20746f2063757272656e74206f776e656044820152603960f91b60648201526084015b60405180910390fd5b336001600160a01b0382161480610463575061046381336102d2565b6104d55760405162461bcd60e51b815260206004820152603d60248201527f4552433732313a20617070726f76652063616c6c6572206973206e6f7420746f60448201527f6b656e206f776e6572206f7220617070726f76656420666f7220616c6c000000606482015260840161043e565b6104df8383610893565b505050565b6104ee3382610901565b61050a5760405162461bcd60e51b815260040161043e90611916565b6104df838383610980565b6000610520836106b9565b82106105825760405162461bcd60e51b815260206004820152602b60248201527f455243373231456e756d657261626c653a206f776e657220696e646578206f7560448201526a74206f6620626f756e647360a81b606482015260840161043e565b506001600160a01b03919091166000908152600660209081526040808320938352929052205490565b6104df8383836040518060200160405280600081525061075d565b60006105d160085490565b82106106345760405162461bcd60e51b815260206004820152602c60248201527f455243373231456e756d657261626c653a20676c6f62616c20696e646578206f60448201526b7574206f6620626f756e647360a01b606482015260840161043e565b6008828154811061064757610647611963565b90600052602060002001549050919050565b6000818152600260205260408120546001600160a01b03168061030b5760405162461bcd60e51b8152602060048201526018602482015277115490cdcc8c4e881a5b9d985b1a59081d1bdad95b88125160421b604482015260640161043e565b60006001600160a01b0382166107235760405162461bcd60e51b815260206004820152602960248201527f4552433732313a2061646472657373207a65726f206973206e6f7420612076616044820152683634b21037bbb732b960b91b606482015260840161043e565b506001600160a01b031660009081526003602052604090205490565b606060018054610320906118dc565b610759338383610af1565b5050565b6107673383610901565b6107835760405162461bcd60e51b815260040161043e90611916565b61078f84848484610bbf565b50505050565b60006107a0600b5490565b90506107b0600b80546001019055565b6107ba3382610bf2565b6107c48183610c0c565b336000908152600c60205260408082208390555182917fb024351dd495ddd57c50334b2a17ad2e929b28be0ea5a482e0e9b4277766c67b91a25050565b606061030b82610cd7565b60006001600160e01b03198216632483248360e11b148061030b575061030b82610ddf565b6000818152600260205260409020546001600160a01b03166108905760405162461bcd60e51b8152602060048201526018602482015277115490cdcc8c4e881a5b9d985b1a59081d1bdad95b88125160421b604482015260640161043e565b50565b600081815260046020526040902080546001600160a01b0319166001600160a01b03841690811790915581906108c882610659565b6001600160a01b03167f8c5be1e5ebec7d5bd14f71427d1e84f3dd0314c0f7b2291e5b200ac8c7c3b92560405160405180910390a45050565b60008061090d83610659565b9050806001600160a01b0316846001600160a01b0316148061095457506001600160a01b0380821660009081526005602090815260408083209388168352929052205460ff165b806109785750836001600160a01b031661096d846103a3565b6001600160a01b0316145b949350505050565b826001600160a01b031661099382610659565b6001600160a01b0316146109b95760405162461bcd60e51b815260040161043e90611979565b6001600160a01b038216610a1b5760405162461bcd60e51b8152602060048201526024808201527f4552433732313a207472616e7366657220746f20746865207a65726f206164646044820152637265737360e01b606482015260840161043e565b610a288383836001610e04565b826001600160a01b0316610a3b82610659565b6001600160a01b031614610a615760405162461bcd60e51b815260040161043e90611979565b600081815260046020908152604080832080546001600160a01b03199081169091556001600160a01b0387811680865260038552838620805460001901905590871680865283862080546001019055868652600290945282852080549092168417909155905184937fddf252ad1be2c89b69c2b068fc378daa952ba7f163c4a11628f55a4df523b3ef91a4505050565b816001600160a01b0316836001600160a01b031603610b525760405162461bcd60e51b815260206004820152601960248201527f4552433732313a20617070726f766520746f2063616c6c657200000000000000604482015260640161043e565b6001600160a01b03838116600081815260056020908152604080832094871680845294825291829020805460ff191686151590811790915591519182527f17307eab39ab6107e8899845ad3d59bd9653f200f220920489ca2b5937696c31910160405180910390a3505050565b610bca848484610980565b610bd684848484610e10565b61078f5760405162461bcd60e51b815260040161043e906119be565b610759828260405180602001604052806000815250610f11565b6000828152600260205260409020546001600160a01b0316610c875760405162461bcd60e51b815260206004820152602e60248201527f45524337323155524953746f726167653a2055524920736574206f66206e6f6e60448201526d32bc34b9ba32b73a103a37b5b2b760911b606482015260840161043e565b6000828152600a60205260409020610c9f8282611a5e565b506040518281527ff8e1a15aba9398e019f0b49df1a4fde98ee17ae345cb5f6b5e2c27f5033e8ce79060200160405180910390a15050565b6060610ce282610831565b6000828152600a602052604081208054610cfb906118dc565b80601f0160208091040260200160405190810160405280929190818152602001828054610d27906118dc565b8015610d745780601f10610d4957610100808354040283529160200191610d74565b820191906000526020600020905b815481529060010190602001808311610d5757829003601f168201915b505050505090506000610d9260408051602081019091526000815290565b90508051600003610da4575092915050565b815115610dd6578082604051602001610dbe929190611b1e565b60405160208183030381529060405292505050919050565b61097884610f44565b60006001600160e01b0319821663780e9d6360e01b148061030b575061030b82610fb8565b61078f84848484611008565b60006001600160a01b0384163b15610f0657604051630a85bd0160e11b81526001600160a01b0385169063150b7a0290610e54903390899088908890600401611b4d565b6020604051808303816000875af1925050508015610e8f575060408051601f3d908101601f19168201909252610e8c91810190611b8a565b60015b610eec573d808015610ebd576040519150601f19603f3d011682016040523d82523d6000602084013e610ec2565b606091505b508051600003610ee45760405162461bcd60e51b815260040161043e906119be565b805181602001fd5b6001600160e01b031916630a85bd0160e11b149050610978565b506001949350505050565b610f1b838361113c565b610f286000848484610e10565b6104df5760405162461bcd60e51b815260040161043e906119be565b6060610f4f82610831565b6000610f6660408051602081019091526000815290565b90506000815111610f865760405180602001604052806000815250610fb1565b80610f90846112d5565b604051602001610fa1929190611b1e565b6040516020818303038152906040525b9392505050565b60006001600160e01b031982166380ac58cd60e01b1480610fe957506001600160e01b03198216635b5e139f60e01b145b8061030b57506301ffc9a760e01b6001600160e01b031983161461030b565b60018111156110775760405162461bcd60e51b815260206004820152603560248201527f455243373231456e756d657261626c653a20636f6e7365637574697665207472604482015274185b9cd9995c9cc81b9bdd081cdd5c1c1bdc9d1959605a1b606482015260840161043e565b816001600160a01b0385166110d3576110ce81600880546000838152600960205260408120829055600182018355919091527ff3f7a9fe364faab93b216da50a3214154f22a0a2b415b23a84c8169e8b636ee30155565b6110f6565b836001600160a01b0316856001600160a01b0316146110f6576110f68582611368565b6001600160a01b0384166111125761110d81611405565b611135565b846001600160a01b0316846001600160a01b0316146111355761113584826114b4565b5050505050565b6001600160a01b0382166111925760405162461bcd60e51b815260206004820181905260248201527f4552433732313a206d696e7420746f20746865207a65726f2061646472657373604482015260640161043e565b6000818152600260205260409020546001600160a01b0316156111f75760405162461bcd60e51b815260206004820152601c60248201527f4552433732313a20746f6b656e20616c7265616479206d696e74656400000000604482015260640161043e565b611205600083836001610e04565b6000818152600260205260409020546001600160a01b03161561126a5760405162461bcd60e51b815260206004820152601c60248201527f4552433732313a20746f6b656e20616c7265616479206d696e74656400000000604482015260640161043e565b6001600160a01b038216600081815260036020908152604080832080546001019055848352600290915280822080546001600160a01b0319168417905551839291907fddf252ad1be2c89b69c2b068fc378daa952ba7f163c4a11628f55a4df523b3ef908290a45050565b606060006112e2836114f8565b600101905060008167ffffffffffffffff81111561130257611302611758565b6040519080825280601f01601f19166020018201604052801561132c576020820181803683370190505b5090508181016020015b600019016f181899199a1a9b1b9c1cb0b131b232b360811b600a86061a8153600a850494508461133657509392505050565b60006001611375846106b9565b61137f9190611ba7565b6000838152600760205260409020549091508082146113d2576001600160a01b03841660009081526006602090815260408083208584528252808320548484528184208190558352600790915290208190555b5060009182526007602090815260408084208490556001600160a01b039094168352600681528383209183525290812055565b60085460009061141790600190611ba7565b6000838152600960205260408120546008805493945090928490811061143f5761143f611963565b90600052602060002001549050806008838154811061146057611460611963565b600091825260208083209091019290925582815260099091526040808220849055858252812055600880548061149857611498611bc8565b6001900381819060005260206000200160009055905550505050565b60006114bf836106b9565b6001600160a01b039093166000908152600660209081526040808320868452825280832085905593825260079052919091209190915550565b60008072184f03e93ff9f4daa797ed6e38ed64bf6a1f0160401b83106115375772184f03e93ff9f4daa797ed6e38ed64bf6a1f0160401b830492506040015b6d04ee2d6d415b85acef81000000008310611563576d04ee2d6d415b85acef8100000000830492506020015b662386f26fc10000831061158157662386f26fc10000830492506010015b6305f5e1008310611599576305f5e100830492506008015b61271083106115ad57612710830492506004015b606483106115bf576064830492506002015b600a831061030b5760010192915050565b6001600160e01b03198116811461089057600080fd5b6000602082840312156115f857600080fd5b8135610fb1816115d0565b60005b8381101561161e578181015183820152602001611606565b50506000910152565b6000815180845261163f816020860160208601611603565b601f01601f19169290920160200192915050565b602081526000610fb16020830184611627565b60006020828403121561167857600080fd5b5035919050565b80356001600160a01b038116811461169657600080fd5b919050565b600080604083850312156116ae57600080fd5b6116b78361167f565b946020939093013593505050565b6000806000606084860312156116da57600080fd5b6116e38461167f565b92506116f16020850161167f565b9150604084013590509250925092565b60006020828403121561171357600080fd5b610fb18261167f565b6000806040838503121561172f57600080fd5b6117388361167f565b91506020830135801515811461174d57600080fd5b809150509250929050565b634e487b7160e01b600052604160045260246000fd5b600067ffffffffffffffff8084111561178957611789611758565b604051601f8501601f19908116603f011681019082821181831017156117b1576117b1611758565b816040528093508581528686860111156117ca57600080fd5b858560208301376000602087830101525050509392505050565b600080600080608085870312156117fa57600080fd5b6118038561167f565b93506118116020860161167f565b925060408501359150606085013567ffffffffffffffff81111561183457600080fd5b8501601f8101871361184557600080fd5b6118548782356020840161176e565b91505092959194509250565b60006020828403121561187257600080fd5b813567ffffffffffffffff81111561188957600080fd5b8201601f8101841361189a57600080fd5b6109788482356020840161176e565b600080604083850312156118bc57600080fd5b6118c58361167f565b91506118d36020840161167f565b90509250929050565b600181811c908216806118f057607f821691505b60208210810361191057634e487b7160e01b600052602260045260246000fd5b50919050565b6020808252602d908201527f4552433732313a2063616c6c6572206973206e6f7420746f6b656e206f776e6560408201526c1c881bdc88185c1c1c9bdd9959609a1b606082015260800190565b634e487b7160e01b600052603260045260246000fd5b60208082526025908201527f4552433732313a207472616e736665722066726f6d20696e636f72726563742060408201526437bbb732b960d91b606082015260800190565b60208082526032908201527f4552433732313a207472616e7366657220746f206e6f6e20455243373231526560408201527131b2b4bb32b91034b6b83632b6b2b73a32b960711b606082015260800190565b601f8211156104df57600081815260208120601f850160051c81016020861015611a375750805b601f850160051c820191505b81811015611a5657828155600101611a43565b505050505050565b815167ffffffffffffffff811115611a7857611a78611758565b611a8c81611a8684546118dc565b84611a10565b602080601f831160018114611ac15760008415611aa95750858301515b600019600386901b1c1916600185901b178555611a56565b600085815260208120601f198616915b82811015611af057888601518255948401946001909101908401611ad1565b5085821015611b0e5787850151600019600388901b60f8161c191681555b5050505050600190811b01905550565b60008351611b30818460208801611603565b835190830190611b44818360208801611603565b01949350505050565b6001600160a01b0385811682528416602082015260408101839052608060608201819052600090611b8090830184611627565b9695505050505050565b600060208284031215611b9c57600080fd5b8151610fb1816115d0565b8181038181111561030b57634e487b7160e01b600052601160045260246000fd5b634e487b7160e01b600052603160045260246000fdfea2646970667358221220ab8d35d1e1bb91eca94b1214dc26309f9edb362e06133a1561850b8392cc1bd864736f6c63430008130033",
    "linkReferences": {}
  },
  "methodIdentifiers": {
    "addressToTokenId(address)": "6511bf2e",
    "approve(address,uint256)": "095ea7b3",
    "balanceOf(address)": "70a08231",
    "getApproved(uint256)": "081812fc",
    "getTokenIdByAddress(address)": "8cbab7e4",
    "isApprovedForAll(address,address)": "e985e9c5",
    "mintItem(string)": "c7545849",
    "name()": "06fdde03",
    "ownerOf(uint256)": "6352211e",
    "safeTransferFrom(address,address,uint256)": "42842e0e",
    "safeTransferFrom(address,address,uint256,bytes)": "b88d4fde",
    "setApprovalForAll(address,bool)": "a22cb465",
    "supportsInterface(bytes4)": "01ffc9a7",
    "symbol()": "95d89b41",
    "tokenByIndex(uint256)": "4f6ccce7",
    "tokenOfOwnerByIndex(address,uint256)": "2f745c59",
    "tokenURI(uint256)": "c87b56dd",
    "totalSupply()": "18160ddd",
    "transferFrom(address,address,uint256)": "23b872dd"
  },
  "id": 19
}